:020000040800F2
:10000000C0370020F98E00085D8D00085F8D000864
:10001000618D0008638D0008658D000800000000F8
:100020000000000000000000000000007B7E0008CF
:10003000678D000800000000357E0008357100085B
:10004000978F00089B8F00089F8F0008A38F0008E0
:10005000A78F0008AB8F0008AF8F0008B38F000890
:10006000B78F0008BB8F0008BF8F0008C38F000840
:10007000C78F0008CB8F0008CF8F0008D38F0008F0
:10008000D78F0008DB8F0008DF8F0008E38F0008A0
:10009000698D0008E78F0008EB8F0008EF8F0008DC
:1000A000F38F0008F78F0008FB8F0008FF8F000810
:1000B0000390000807900008738D00080B9000085B
:1000C0000F90000813900008179000081B9000087C
:1000D0001F90000823900008279000082B9000082C
:1000E0002F90000833900008379000082DE9F04F5A
:1000F0000FF2A41CA1B0DCE90089CDE900892A9D9A
:10010000DFF8DC9B049100248DF843500D944FF0F0
:10011000FF38824616461F460FE0B3462C461BF8B2
:10012000011B0498D0470028049000F0A2800D988D
:10013000401C641E0D90F2D176193078252808D124
:10014000002100220791089209910A920B910C92CA
:100150000DE06A464146304600F0DAFF050001D165
:100160000D98A1E0D9D50125E6E741F0010116F887
:10017000010F2028F9D023280CD02B2804D02D28BB
:1001800005D0302809D076E041F00201EFE741F0D8
:100190000401ECE741F00801E9E741F01001E6E76E
:1001A0000F9209E00F98484505DA00EB800402EB56
:1001B0004402303A0F92761C3278A2F130000A28BD
:1001C000F0D330782E2818BFCDF8388022D116F819
:1001D000010F2A2807D138683860761C50F8042BA4
:1001E00038600E9216E02D280CBF761C00200022ED
:1001F0000E920AE040B90E9A4A4505DA02EB8204F3
:1002000003EB4403303B0E93761C3378A3F13002AA
:100210000A2AEFD3ADF8401021A0317800F082FF18
:1002200008B116F8010B8DF842009DF842006828CD
:1002300004D1307868280AD1622105E06C2804BF17
:1002400030786C2803D171218DF84210761C12A8E9
:1002500006903A4616F8013B02A9504600F064F8B1
:1002600038B912AA02A9504600F0C8F900287FF553
:1002700064AF404618E02A2892D13A683A6052F8B2
:10028000040B3A6000280F9003D540420F9041F0D4
:100290000401761C95E7000000000000000000004B
:1002A000686A6C747A4C000021B0BDE8F08F622857
:1002B00020D0682811D06A2803D06C2827D0712854
:1002C00025D10868C01D20F007000860D0E9002390
:1002D00008300860194610467047002A0A680A600C
:1002E000106803D0121D0A6000B217E0121D0A60E8
:1002F00080B217E0002A0A680A60106803D0121D55
:100300000A6040B20AE0121D0A60C0B20AE0002A88
:100310000A680A60106803D0121D0A60C11770478E
:10032000121D0A60002170477CB50D4611461C461F
:100330002E69B4F1250200F04F811C3A00F0848050
:10034000121F022A40F280800E3A00F00981521FEB
:1003500059D0093A78D0921E16D0521E35D0521E6E
:10036000022A71D9121F30D0521F00F09880521EFD
:1003700049D0521E00F0E280D21E00F0FF80921E93
:1003800041D0D21E3FD02DE195F83A406C2C09D0D7
:100390006869421C6A610A680A6052F8043B0A6094
:1003A000335429E10A680A6052F8043B0A6000935A
:1003B000002201924FF0FF332B636A46294600F07A
:1003C00098F9002840F1188103E195F83A000122DC
:1003D000FFF76DFFC5E90001002904D56869411CDC
:1003E00069612D220DE0288F810704D56869411CC1
:1003F00069612B2205E0C00721D56869411C69614C
:10040000202232541BE095F83A000022FFF74FFFFC
:10041000C5E9000195F83800010710D5D5E900239A
:10042000002B08BF002A0AD044F02000782806D10B
:10043000686930213154401C421C6A6134542146A1
:1004400068693044E86087E00868C01D20F0070054
:100450000860D0E9002308300860C5E90023D5E929
:100460000001C80F04D06869411C69612D220DE0AC
:10047000288F810704D56869411C69612B2205E03A
:10048000C00704D56869411C69612022325468693B
:100490003044E8602146284600F036FAACE005F129
:1004A0003A02507820B14FF0FF340FF6043074E078
:1004B0001078622808D0682824D06A2812D06C28C6
:1004C0002ED071280ED02BE00A680A6052F8040B77
:1004D0000A6020B94FF0FF340FF6EC205DE0E96AC6
:1004E000017089E00A680A6052F8040B0A6020B9BA
:1004F0004FF0FF340FF6D0204FE0EA6AD317C0E97F
:10050000002379E00A680A6052F8040B0A6020B9F7
:100510004FF0FF340FF6B0203FE0E96A01806BE056
:100520000A680A6052F8040B0A6020B94FF0FF34E1
:100530000FF6942031E0E96A01605DE00A680A6024
:1005400052F8040B0A60002120F0000221F0FF3372
:10055000C5E90023EE607821284600F02DF94BE034
:100560006C2285F83A200B680B6053F8042B0B6063
:1005700052BB4FF0FF340FF684200EE095F83A207E
:100580006C2AF0D00868086050F8044B0860EC60F2
:100590003CB94FF0FF340FF6482000F0EBFD201A75
:1005A00076BD2E6B002E04D5204600F003FE0446D7
:1005B00008E032460021204600F026FE002814BF45
:1005C000041B3446AC6117E0294600F092F800287D
:1005D00012D54FF0FF3076BD6869411C6961252254
:1005E000325409E06969481C68612522725421006F
:1005F00002D0431C6B613454002076BD2DE9F041DC
:100600000E4605469046726B7069316AB46A121ADA
:10061000B069521A716A121AF069521A121A96F8CF
:100620003800141B41070DD4002C0BDD2746B068A1
:100630002021A8470028B06057D0F06A401C7F1ED8
:10064000F062F4D1736942463146284600F098FCC6
:1006500000284AD1376A002F0ADDB0683021A84748
:100660000028B06041D0F06A401C7F1EF062F4D1D7
:10067000B369F2683146284600F082FCA8BB776A6D
:10068000002F09DDB0683021A847B06068B3F06A78
:10069000401C7F1EF062F5D1F068B169F369421821
:1006A0003146284600F06CFCF8B9B76A002F09DD26
:1006B000B0683021A847B060B8B1F06A401C7F1E16
:1006C000F062F5D196F8380041070BD5002C09DD12
:1006D000B0682021A847B06038B1F06A401C641EA1
:1006E000F062F5D10020BDE8F0814FF0FF30BDE8A9
:1006F000F0812DE9F8470D46A3B02F6B002F064679
:10070000904648BF6FF000470FF60C1400F0A8FDAC
:10071000D4E90023696B4018CDE90123812828BF63
:100720004FF0FF3042D20024002F33DDD8F8001004
:1007300001AA684600F0EEFC8146B9F1000F38D4FA
:10074000D8F8000010B9B9F1010932D44F4521DBC6
:100750006869484481280AD30021696303AA2946AD
:100760003046FFF74BFF040014D40020686103AB50
:10077000D5F814A04A46694603EB0A0000F07AFD5A
:10078000CA44C5F814A058F8040B002818BFA7EBFA
:100790000907C9D14CB903AA29463046FFF72EFFF5
:1007A000044614B9002068616863204624B0BDE89F
:1007B000F0874FF0FF34F8E72DE9FC4307466F2937
:1007C0003E6908BF082405D041F02000782814BFF6
:1007D0000A2410243C25D7E90023642918BF69297D
:1007E0009046994605D1002B03D5D8F1000869EB56
:1007F0004909B9F1000F08BFB8F1000F1FD1386BDC
:10080000E8B9082C4CD197F83800010748D53020BA
:100810003B2586F83B0043E000280ED597F83800CA
:1008200000F01400102808D17B6B7969386A5B1AD4
:100830001B1A9A1A002AC8BF3A62BDE8F3838DF8E2
:100840000010404649462246E31700F067FD30326B
:10085000D0B26D1E3A28019504DB9DF80000A0F18E
:1008600051018A187255404649462246E31700F066
:1008700055FD80465FEA010908BFB8F1000F03D0BB
:10088000F86871198842DCD3082C09D197F8380030
:10089000010705D5705D302802D06D1E30207055DF
:1008A000C5F13C02BA617119F960386B8242B3DA62
:1008B000821A3A624FF6EF70398F01403987BDE8EE
:1008C000F3832DE9D04306460F4614464FF0000847
:1008D000DFF8109412E0E00707D542464B46304659
:1008E000394600F033FE06460F464046494642462A
:1008F0004B4600F02BFE641080468946002CEAD15E
:1009000030463946BDE8D0832DE9F84F05468A4682
:100910004AF020048EB0D5E90089612C02AE09D0DE
:10092000286B002848BF062003D408BF672C01D1DC
:1009300001202863D5E900014A005215521C0DD14F
:100940000B030BD0AAF1610103201A29A86102D27E
:100950000FF2CC6110E00FF2CC610DE04A005215AD
:10096000521C0ED10B030CD1AAF1610103201A29EC
:10097000A86116D30FF2B461E868032200F07AFC94
:10098000C0E1CDE90C01DDE90C2323F00043B3F510
:10099000801F0DD20027002B08BF002A019703D12A
:1009A00011E00FF28461E7E701AA00F0A1FE0AE07E
:1009B000CD48CE4900EB1350DDE90C2301900B40EC
:1009C000CB4910461943C5E90001612C0DD1E868F7
:1009D00030210170821CBAF1610FEA600CBF7821EE
:1009E000582141706869801C6861D5E90001CDE932
:1009F0000C01DDE90C2333F0004104BF0028002383
:100A000000F04881612C40F0A080286B4946002806
:100A10004CBF4FF0210B00F1010B40460022002398
:100A2000DDE90C8900F09CFE01990BF1010738BF4C
:100A300089F00049091F002F01918DF808200DF160
:100A4000090040F33581A9490091064640464946D0
:100A50000022002300F09CFE80F029814800400D18
:100A600000F11C0211D0002A0FDD40F2FF739A4200
:100A700005DBA04909F000400143002011E0009B84
:100A8000194041EA025140460BE028F0000039F0DD
:100A9000004108BF00280FBF49461C22494600F00C
:100AA0008FFE8046894600F029FFFF1F002F044675
:100AB00009DD00F041FF02460B464046494600F082
:100AC0004DFF80468946F01D072104E004F00F0227
:100AD00000F8012D2411002C01DD491EF6D5491E18
:100AE0005CBF002200F8012DF9D5DCE0002019469A
:100AF00002AA0A4400E05B1E12F80149491E844222
:100B0000F9D00F2804D10DF10900425C521C425467
:100B1000002904D50198001D02AE5B1C0190581EEF
:100B20000CD43118AAF13A040A783032D7B23A2FED
:100B3000A8BFA218401E01F80129F5D5286B00288E
:100B400040F1A780591E2963A3E001996A4A47F240
:100B50009750414391FBF2F2019229F00046D2F105
:100B6000070204DD40463146FFF7ABFE0AE0524281
:100B700000206249FFF7A5FE02460B46404631467B
:100B800000F05EFF8046662C286B06BF019F0A3787
:100B900006273F18142FC8BF142730208DF80800EF
:100BA00089460DF1090000E03046002F34DD06468D
:100BB0004046494601F068F801460A4606F1080336
:100BC00004200A26B2FBF6F606EB860EA2EB4E02D6
:100BD000303203F8012C0A22B6FBF2F202EB820E4D
:100BE000A6EB4E063036401E03F8026DE9D1083FF1
:100BF000002F03F10806D7DD084601F059F8024638
:100C00000B464046494600F0A9FE00223C4B00F04E
:100C10009DFC80468946CBE70DF10901401A0DF194
:100C2000090604E00199491E401E0191761C3178A5
:100C30003029F7D0662C02D10199491C03E0652CBC
:100C40000CBF012100212B6BCB189842B8BF431E6B
:100C5000002B1ED4834204DAF05C3528A8BF39206B
:100C600000DA30201946721E02EB010800E05B1E1C
:100C700018F80199491E8145F9D0392802D1705CD4
:100C8000401C7054002904D50198401C16465B1C7A
:100C90000190019800B200901BB23246514628469E
:100CA00000F034F82EE0C61D002F3FF7CFAE3046DF
:100CB0000DF10901401A03465845C8BF5B46002B99
:100CC0000DF109063FF53AAF8342BFF60FAF0DF1C4
:100CD0000900C15C07297FF709AF0F2007E7000073
:100CE000CBCCCC0C0000244002FCFFFFFFFF0F80A8
:100CF0000000E03F0000F07FA08601000000F03F10
:100D000084D797410FB0BDE8F08F00002DE9F84778
:100D100083B006468A461746984600F0FDF9B8F1BA
:100D2000000F406A356B90F8009002DC4FF001082C
:100D3000BFA74AF02000BDF93040662808BF641CF8
:100D400015D0672840F0848014F1040FC0F286802B
:100D5000AC4280F2838096F83800641C010702D40C
:100D6000A845B8BF454620B22D1A48BF00250FFA46
:100D700084FAF068B169BAF1000F25DC4A1C30230F
:100D80004354002D03DC96F83800010703D5F068C2
:100D900000F80290521C15EB0A0FB8BF6C4220B24B
:100DA000441941424445B8BFA046B26171620FFA8E
:100DB00088F5F561F068B3692A463946184400F0B1
:100DC00059FA641BB462C4E022B29045084417DAB1
:100DD0004246394600F04EFAB0694044B061AAEB91
:100DE0000801002D716203DC96F838100A0705D55A
:100DF000F16801F80090F069401CF061B562A8E06C
:100E0000394600F037FAB069002D5044A8EB0408C9
:100E100003DC96F838100A0703D5F16801F8009052
:100E2000401CB0610FFA88F08542F368B069B8BF22
:100E3000A8460FFA88F207EB0A01184400F01AFAE4
:100E4000B1690FFA88F00144B161281A706280E03C
:100E5000BAF1610F14D14FF0700A16E0A84504DA18
:100E600096F838100A0758BF45466D1E48BF002542
:100E7000BAF1670F14BF4FF0450A4FF0650A04E05E
:100E8000BAF1410F08BF4FF0500AB169F368481C2E
:100E9000B061002D17F8012B5A5403DC96F8381076
:100EA0000A071BD5F168431CB36101F80090002DBF
:100EB00014DDA8F101080FFA88F039468542F76879
:100EC000B8BFA8460FFA88F2F81800F0D3F9B06955
:100ED0000FFA88F108446D1AB0617562F068B16963
:100EE0000844002C80F800A003D42B224270811CFF
:100EF00003E02D2141706442811C00206A460AE013
:100F000023460A2493FBF4F404EB8405A3EB450386
:100F100002F8013B401C24B2002CF1DC012806DC65
:100F20004AF02002652A04BF302201F8012B48B99B
:100F3000302001F8010B07E0401E1DF8003030336F
:100F400001F8013B0028F7DCF268B0691044091A87
:100F5000F16196F8380000F0140010280DD1726984
:100F6000B169706A8A18F1698218B06A8A188218A1
:100F7000706B8242BCBF821A326204B0BDE8F08757
:100F8000F8B505460E4617461C46002074B117F802
:100F9000011BB068A847B06030B1F06A401CF06235
:100FA0000020641EF3D1F2BD4FF0FF30F2BD00000F
:100FB0007072696E74665F733A20256E206469737F
:100FC000616C6C6F776564007072696E74663A204C
:100FD00062616420256E20617267756D656E7400B4
:100FE0007072696E74665F733A2062616420257363
:100FF00020617267756D656E740000007072696EB5
:1010000074665F733A2062616420256C732061729C
:1010100067756D656E740000000000000000000040
:101020006E616E004E414E00696E6600494E46008C
:101030003000F0B40246106895681318506803EB4E
:101040005004C0071DD54D441BE013F8017B05F883
:10105000017B491EF9D1A0B1B60813F8011B06F0B7
:101060000306032E08BF13F8016B01EB062149426A
:10107000801C294405D011F8016B05F8016B401E56
:10108000F9D1A3420ED013F8016B16F0030104BF8F
:1010900013F8011BC91C30090F28DAD113F8010B12
:1010A0000F30D6E7F0BC02F10C0070471B487047C8
:1010B00070B45368D418042B09DA41B1057804F8E8
:1010C000015B10F8016B16B15B1C491EF3E753601E
:1010D00070BC704738B514461D4661B1FFF7E8FF94
:1010E00061686A6B204690476FF00102811A02D056
:1010F000491E01D001E003E005E00021616032BD3E
:101100006FF0010032BD4FF0FF3032BDDA6B104797
:10111000024BDFE7014BF9E701487047F00100207F
:10112000B8010020C9B202788A421AB11CBF10F877
:10113000012FF9E718BF0020704730B4002513E0F5
:1011400050F8042BD30744BFA9F101039A18091FD3
:10115000042942F8045BFAD213468C0744BF158079
:101160009B1CC90748BF1D7050F8041B0029E7D11C
:1011700030BC704780B500B906A005490B681BB1AB
:1011800022220021984701E000F09FFD222002BDAD
:10119000B8310020636F6E73747261696E74206879
:1011A000616E646C65723A20626164206D65737370
:1011B0006167650000F10103810704D010F8011B8D
:1011C000820781B1FAD10268A2F10131914311F095
:1011D000803104BF50F8042FF6E709BAB1FA81F163
:1011E00000EBD100401CC01A7047B1F5807F02D3DC
:1011F0004FF0FF3070470170012070470078401EAB
:101200008041C043C00F7047C9B2830706D0521E49
:1012100022D310F8013B9942F7D11FE0083A13D3CB
:1012200002F1040241EA012141EA014150F8043B84
:10123000121F21BF4B40A3F1013C2CEA030C1CF010
:10124000803FF3D0C9B2001F083210F8013B521E94
:1012500028BF91EA030FF8D818BF0120401E70473D
:1012600080B5FFF723FF006C02BD0268531C0360CA
:101270001170704762B38B0708D0521E11F8013B02
:1012800000F8013B00F024808B07F6D1830740F083
:10129000208000BF103A07D330B4B1E83810103ABC
:1012A000A0E83810F9D230BC530724BFB1E80810C9
:1012B000A0E8081044BF51F8043B40F8043BD207B3
:1012C00024BF31F8022B20F8022B44BF0B780370A7
:1012D0007047121F17D35B0009D151F8043B20F867
:1012E000023B1B0C121F20F8023BF6D20BE051F818
:1012F000043B00F8013B1B0A20F8023B1B0C121FA9
:1013000000F8013BF3D238BF121D521E24BF11F862
:10131000013B00F8013BF8D870470102BBBBE1B1CB
:10132000B2F5803F80F07E80022A1ED98C46B1FB48
:10133000F2F102FB11C31B0443EA1043B3FBF2FCBE
:1013400002FB1C3380B240EA0343B3FBF2F002FB22
:10135000103240EA0C4000237047022A05D9844627
:10136000B0FBF2F002FB10C270474AB105D100F0A9
:10137000010249085FEA30007047002200237047ED
:1013800000F0A6BC0B000200002100207047904234
:1013900071EB030CF6D3B3F5803F2FD2F0B5B3FA5F
:1013A00083F7B1FA81F4A7F10F0E3D1B5340CEF144
:1013B000200602FA0EF2F3415340B5F10F0746D86A
:1013C0000F3C2C444140C4F12006A040F141414073
:1013D000B1FBF3F603FB1611A2FB0645001BA94166
:1013E00002D2761E8018594180EA010221FA0EF3DA
:1013F00062FA0EF200215A403046F0BD30B4B1FB23
:10140000F3FC03FB1C11A2FB0C45001BA94103D2FA
:10141000ACF1010C8018594130BC02460B466046C5
:1014200000217047B2F1807F65D3F0B5B2FA82F740
:10143000B1FA81F4C7F10F063D1B22FA06F307F15A
:10144000110EF24120355A40B5F10F07B8D941408D
:10145000C4F12006A040F1414140B1FBF3FC03FB85
:101460001C11A2FB0C45001BA94103D2BCF1010CCD
:10147000801859410F2F12D30F3FC90341EA504141
:10148000B1FBF3F603FB1611A2FB0645D4EBC0300B
:10149000A94102D2761E8018594146EACC3C07B3D6
:1014A0004140C7F12006B840F1414140B1FBF3F69D
:1014B00003FB1611A2FB0645001BA94102D2761EB2
:1014C0008018594180EA010221FA0EF3C7F1200485
:1014D00062FA0EF20CFA07F05A402CFA04F130438B
:1014E000F0BD80EA010221FA0EF3002162FA0EF249
:1014F00060465A40F0BD8C46B1FBF2F102FB11C3CD
:101500001B0243EA1063B3FBF2FC02FB1C331B0219
:101510004CEA002043EA1063B3FBF2FC02FB1C33ED
:101520001B024CEA002043EA1063B3FBF2FC02FB0F
:101530001C331B024CEA002043EA1063B3FBF2FCAD
:1015400002FB1C324CEA002000237047B0B581EA50
:10155000030C0CF0004C40F2FF7515EA11541DBF4E
:1015600015EA1357AC42AF4239E0E41923EA455378
:1015700043F48013C90241F0004141EA505EC702C2
:101580001100A7FB020200284FF00000EEFB012033
:101590004FF00001E3FB072118BF42F001024018A1
:1015A00000214941E3FB0E01A4F580640F0302D240
:1015B00052004041494154F101046CDD470872F189
:1015C000004250F1000051EB0451A1F580115CBFC5
:1015D00041EA0C01B0BD4CEA05510020B0BD05EA5E
:1015E0001357AC4214BFAF4241E050EA410E1CBF5A
:1015F00052EA430E02E061460020B0BD24423C4462
:101600001BD15FEA070EF6D0090302BF0146002096
:10161000AEF1140EB1FA81F7AEEB070401FA07FE42
:101620000C37C7F1200100FA07F7C8404EEA000E58
:1016300023EA455343F48013A2E733F00043B3FA9F
:1016400083F704BFB2FA82FE77440B3FE41BB7F185
:10165000200E2FBF02FA0EF3BB40C7F1200E22FA74
:101660000EFE38BF43EA0E03BA40641C82E750EA1C
:10167000410E14BF52EA430E6FF000014FF4001701
:1016800017EB430F8ABF194617EB410FB5E74CEA3A
:1016900005510020B0BDD4F10104B4F120070FDAE8
:1016A000C4F12007520828BF42F0010210FA07F5E2
:1016B00001FA07F7E1BF2A43E0403843E1400FE079
:1016C000352C98DCC7F1200452EA400220FA07F2D8
:1016D00018BF42F0010231FA07F0A1400A4300218D
:1016E00072F1004250F1000051EB0C01B0BD00005E
:1016F00010B5144600F002F8226010BDC1F30A5381
:1017000043B14A0012F5001F28D2A3F2FE32A1EB2A
:101710000251704750EA410C20D001F0004C31EAF0
:101720000C01B1FA81F204BFB0FA80F3D2180B3A7F
:10173000B2F120032CBF00FA03F1914041EA0C0101
:101740003EBFC2F1200C20FA0CF3194390405242E4
:1017500040F2FD33D21A01EB03517047002270476B
:101760004FF4001C1CEB410F94BF1CEB430F09E02E
:1017700041EA030C50EA4C0C52EA0C0C03D2994299
:1017800008BF9042704714BF8B42824270470000EE
:101790004FF4001C1CEB410F94BF1CEB430F09E0FE
:1017A00041EA030C50EA4C0C52EA0C0C03D28B4277
:1017B00008BF8242704714BF9942904270470000B0
:1017C000124254D440F2FF7C1CEA11530FD06345FF
:1017D00031D09B1863453CBF01EB0251704701F0CB
:1017E000004141EA0C510020AFF30080704750EAFD
:1017F000410320D001F0004C91EA0C011CD0B1FA59
:1018000081F30B3B9A420DD9D21A994051EA0C014F
:10181000C3F1200C20FA0CFC61449840531C40F2A8
:10182000FF7CD7E7914041EA0C01C2F1200C20FA7D
:101830000CF3194390407047B0FA80F31533202B16
:10184000E0D3202AEED3203A203B9A4209D9D21A7B
:1018500000FA03F141EA0C010020531C40F2FF7C26
:10186000B8E700FA02F141EA0C0100207047524249
:1018700040F2FF7C1CEA11530DD06345DBD0B2EB84
:10188000030C3CBFA1EB025170470CF1010221EAAD
:10189000035141F4801150EA410CCCD001F0004CCE
:1018A000352A27DC30B481EA0C01B2F1200309DAD1
:1018B000C2F12003044601FA03F5D0402843D14089
:1018C0009C400CE0C3F12002450020FA03F418BF4D
:1018D00044F0010421FA03F091400C43002174F11B
:1018E000004550F1000051EB0C01244230BC7FF464
:1018F0007BAF70476146002076E70000C1F30A53D2
:1019000040F2FE329B1A14DDD3F120034FEAE1725C
:1019100008DDC90241EA505141F00040D84080182A
:101920005040704703F2E13010B1D24382F00040E2
:101930007047002070470000C11768B14840401A46
:10194000B0FA80F29040D21CC907C2F5846241EA25
:10195000025202EBD02140057047000070B44FF0F6
:10196000004591EA030F40F1B5816B40841A71EB99
:10197000030603D2001BB141121973414FF4001C3E
:101980001CEB410F34BF7CEB430442E00C0DA4EB95
:101990001356352E4FDC45EAC323DB0A45EAC12145
:1019A000C912B6F120050DDD63FA05F6EB4086EAB3
:1019B0000305124218BF45F00105C01851F100019E
:1019C0000CD213E062FA06F5F2405540F3415A405A
:1019D000B340F3405A408018594107D349085FEAA1
:1019E00030005FEA350528BF45F0010501F580119B
:1019F000420875F1004250F1000041EB04514E00E5
:101A000016F5001F70BC38BF70470020090D09058E
:101A100070471CEB410F10D252EA43060BD0BCEBCF
:101A2000410F05D80C0DAB43661E342EB6DD02E027
:101A3000AB438018594170BC704770BC70470000C0
:101A4000F0B540F2FF7581EA030C0CF0004C15EA8A
:101A500011541DBF15EA1357AC42AF42E5E0BC413B
:101A6000C1F31301C3F31303801A994143F48013A4
:101A700004D2641E4000494180185941C90241EA1C
:101A80005051B1FBF3F603FB1611A2FB0675D7EB21
:101A9000C020A94102D2761E80185941C90241EAEC
:101AA0005051B1FBF3FE03FB1E11A2FB0E75D7EBE9
:101AB000C020A94103D2AEF1010E8018594189021C
:101AC00041EA9051760546EA8E2EB1FBF3F603FB10
:101AD0001611A2FB0675D7EB8020A94102D2761E13
:101AE00080185941C90241EA50514EEA060EB1FB35
:101AF000F3F603FB1611A2FB0675D7EBC020A94134
:101B000002D2761E80185941C90241EA5051B1FBF8
:101B1000F3F703FB1711A2FB0735D3EBC020A94154
:101B200067F100070CBF004247F0010766F3D527B5
:101B30004FEA1E31B80814F5806412DDBD0775F157
:101B4000004250EB0E5051EB045111F5801F5CBF69
:101B500041EA0C01F0BD4CF07F6141F0E041002012
:101B6000F0BDBD076D0840EA0E5041F48011D4F17C
:101B70000104B4F120060ADAC4F120060200E040B4
:101B800001FA06F3E1401843B24015430EE0342C4D
:101B900013DCC6F1200445EA40056D0820FA06F280
:101BA000154321FA06F0A1400D43002175F10042D2
:101BB00050F1000051EB0C01F0BD00205FEA0C0178
:101BC000F0BDCFB992185B41B3FA83F704BFB2FA04
:101BD00082F6BF190B3FB7F120062FBF02FA06F3BA
:101BE000BB40C7F1200622FA06F638BF3343BA409D
:101BF0001CB1E419641E33E77F4231F00041B1FAB1
:101C000081F404BFB0FA80F6A4190B3CB4F12006AD
:101C10002FBF00FA06F1A140C4F1200620FA06F613
:101C200038BF3143A0403C1B1AE7AC421ABF05EA5B
:101C30001357AF4212E050EA41061CBF52EA430676
:101C4000BFE750EA4107304661461CBF41EA0551F3
:101C5000F0BD52EA430C08BFC143F0BD00204FF471
:101C6000001616EB410F98BF16EB430F08BF16EB9B
:101C7000410F24BFC14305E016EB430F0CBF614683
:101C80004CEA0551F0BD0000400D491840EA8120A2
:101C90000CD2490DA1F58061491C40F0004005DBE4
:101CA000D1F11F0154BFC840C017704700207047D2
:101CB000014648B1B0FA80F18840C91CC1F5846181
:101CC000090501EBD02140057047012000F0B8B8AC
:101CD00070470000841A71EB030604D26E40001BAB
:101CE000B141121973414FF4001C1CEB410F34BF7A
:101CF0007CEB430683E00C0DA4EB1356362E00F369
:101D00007C80012E45EAC32341DC43EA525312BFD3
:101D1000D20292025B08240545EAC12141EA5051F2
:101D2000D2EBC020994125D407D1B0FA80F610FA41
:101D300006F162D00020203608E0B1FA81F6B14009
:101D4000C6F1200220FA02F21143B0404FEAF474C7
:101D5000B4EB465434F001064FEA74040AD8D6F5C1
:101D60000016760D04F00044F04061FA06F250408F
:101D7000F1404840C00A40EA415021F0004128BFEC
:101D80005FEA500550F1000044EBD12135E0DB0A59
:101D900045EAC121C90AB6F120050EDD42EA024238
:101DA000120CC5F1200603FA06F6EB4042EA0605DE
:101DB0006D42984161F100010DE062FA06F5F240D2
:101DC000554063FA06FC82EA0C02F3405A406D4229
:101DD000904161EB030111F4801F05D1641E62057F
:101DE00002D06D004041494121F48011430875F152
:101DF000004350F1000041EB045170BC70471CEBF4
:101E0000410F15D223F0004352EA43060BD04FEAAC
:101E10004C0CBCEB410F04D80C0D661E342EB7DD04
:101E2000EBE7801A994150EA410608BF0021E4E738
:101E300008BF1CEB430F28BF6FF00001DDE7000077
:101E400080B5AFF30080024A11001820ABBEFBE75B
:101E5000260002000EB40100002003B0704701000C
:101E60004FF43F42B1F840001043A1F84000002079
:101E7000704701004FF43F42B1F840009043A1F891
:101E80004000002070470200002070470EB418B5D3
:101E900004000120A4F840000020A4F84000002025
:101EA000A4F844000020A4F850002000FFF7D7FF5A
:101EB000002012BC5DF810FBF0B503000A00002002
:101EC000117833F8214048F68F110C40D178002961
:101ED00005D0022906D009D3032904D009E054F41F
:101EE000007408E007E054F4C06404E054F4806433
:101EF00001E00121080048F2800555EA0401167846
:101F000023F8261048F68F76117833F82170374081
:101F100011780F432F43117823F82170117B00298A
:101F200040F0AC80517800293ED01F00B3F850102B
:101F3000CF19117817EB011111F58061B2F806C0C5
:101F40001FFA8CFC5FEA5C0C5FEA4C0CA1F800C045
:101F5000117833F821105FEA416C0AD5177833F80D
:101F600027703E4046F4004656F0C006177823F826
:101F70002760D17801290CD0117833F8216048F618
:101F8000BF710E4096F020063543117823F821509A
:101F900041E1117833F8216048F6BF710E403543B6
:101FA000117823F8215036E19C46B3F8501011EB1C
:101FB0000C0C1178C9001CEB410111F58161D78827
:101FC000BFB27F087F000F801F00B3F85010CF19F9
:101FD0001178C90017EB410E0EF20C4E1169002961
:101FE0000ED1BEF800C048F2FF3111EA0C0CAEF879
:101FF00000C0BEF8001051F40041AEF800101DE022
:1020000011693F290CD21169490892F810C05FEAA2
:10201000CC7C00D5491C5FEA812CAEF800C00DE0F5
:102020001169490992F810C01CF01F0F00D1491E18
:102030005FEA812C5CF4004CAEF800C0117833F8F4
:1020400021105FEA414C0AD5177833F827703E40DB
:1020500046F4404656F08006177823F8276011783A
:1020600033F821604BF68F710E4096F4805696F44B
:1020700000563543117823F82150CCE0117833F81D
:102080002110314041F4014151F08001177823F8CB
:1020900027101F00B3F85010CF19117817EB01115A
:1020A00011F58061B2F808C01FFA8CFC5FEA5C0C85
:1020B0005FEA4C0CA1F800C09C46B3F8501011EB3D
:1020C0000C0C1178C9001CEB410111F58161B2F8CB
:1020D0000AE01FFA8EFE5FEA5E0E5FEA4E0EA1F87E
:1020E00000E05178002945D1117833F821104F04D0
:1020F0000BD5177833F82770374047F4404757F02F
:10210000800792F800C023F82C70117833F8211062
:102110004F060BD5177833F82770374047F4004740
:1021200057F0C00792F800C023F82C70117833F8EC
:1021300021100E4046F4004656F0C006117823F8F0
:102140002160117833F821604BF68F710E4096F4C0
:10215000805696F400562E43117823F821601178AA
:1021600033F8216048F6BF710E403543117823F8EB
:10217000215050E0117833F821104F040BD5177817
:1021800033F82770374047F4404757F0800792F8FC
:1021900000C023F82C70117833F821104F060BD5AE
:1021A000177833F82770374047F4004757F0C007D7
:1021B00092F800C023F82C70117833F821100E40EB
:1021C00046F4404656F08006117823F82160D17815
:1021D00001290CD0117833F8216048F6BF710E4008
:1021E00096F020062E43117823F8216009E011783B
:1021F00033F8216048F6BF710E402E43117823F862
:102200002160117833F821604BF68F710E40354311
:10221000117823F82150C0B2F0BD10B40200087B41
:10222000002842D1487800281FD0087832F82030A2
:1022300058060CD5087832F8204048F68F700440D4
:1022400044F4004454F0C004087822F82040087890
:1022500032F8203048F6BF70034043F4004353F097
:102260008003087822F82030B1E0087832F8203076
:1022700058040CD5087832F8204048F68F70044096
:1022800044F4404454F08004087822F82040087850
:1022900032F820304BF68F70034043F4004353F084
:1022A0008003087822F8203091E04878002847D150
:1022B000087832F8203058040CD5087832F82040DD
:1022C00048F68F70044044F4404454F08004087889
:1022D00022F82040087832F8203058060CD50878CB
:1022E00032F8204048F68F70044044F4004454F023
:1022F000C004087822F82040087832F8203048F6E8
:102300008F70034043F4004353F0C003087822F871
:102310002030087832F820404BF68F70044048F2A5
:1023200080031C43087822F82040087832F82040C7
:1023300048F6BF7004402343087822F8203046E076
:10234000087832F8203058040CD5087832F820404C
:1023500048F68F70044044F4404454F080040878F8
:1023600022F82040087832F8203058060CD508783A
:1023700032F8204048F68F70044044F4004454F092
:10238000C004087822F82040087832F8203048F657
:102390008F70034043F4404353F08003087822F8E1
:1023A0002030087832F8204048F6BF70044048F2E8
:1023B00080031C43087822F82040087832F8204037
:1023C0004BF68F7004402343087822F82030002019
:1023D00010BC7047F8B505000E007078012840F079
:1023E000E7803069B169884204D23469B069001B62
:1023F000B06102E0B4690020B061307B002812D1E6
:1024000023009BB2F2887169280000F02DFA2900A0
:10241000B5F8500041183078C00011EB400000F2D0
:1024200004400480B2E0307835F82000400646D5FC
:1024300029007078002832D12A00B5F8500082189F
:102440003078C00012EB400303F20C43002C0CD197
:10245000B3F800C048F2FF3010EA0C0CA3F800C03B
:10246000188850F40040188018E03F2C0AD2200051
:1024700040085FEAC47C00D5401C5FEA802CA3F8CA
:1024800000C00BE02000400914F01F0F00D1401ED7
:102490005FEA802C5CF4004CA3F800C00CE070787C
:1024A000012809D1B5F8500041183078C00011EB6F
:1024B000400000F20C400480708907003DE0707815
:1024C00000282AD12900B5F8500041183078C00002
:1024D00011EB400202F20442002C09D1138848F2A9
:1024E000FF3003401380108850F40040108013E048
:1024F0003F2C07D220004008E30700D5401C830290
:10250000138009E02000400914F01F0F00D1401E85
:10251000830253F4004313800DE0707801280AD140
:102520002900B5F8500041183078C00011EB400088
:1025300000F2044004803089070023009BB23A0077
:1025400092B27169280000F08FF9707800280DD1DF
:10255000307835F8201048F68F70014041F4004182
:1025600051F0C001307825F820100FE07078012874
:102570000CD1307835F8201048F68F70014041F4C6
:10258000404151F08001307825F82010307835F83E
:10259000201048F6BF70014091F0100191F0200129
:1025A00041F4004151F08001307825F82010CAE054
:1025B0003069B169884204D23469B069001BB061E6
:1025C00002E0B4690020B061307B00282AD12900E4
:1025D000B5F8500041183078C00011EB400202F20B
:1025E0000C42002C09D1138848F2FF3003401380BD
:1025F000108850F40040108013E03F2C07D22000D8
:102600004008E30700D5401C8302138009E0200046
:10261000400914F01F0F00D1401E830253F4004301
:1026200013807FE0707800282AD12900B5F8500087
:1026300041183078C00011EB400202F20442002C35
:1026400009D1138848F2FF3003401380108850F4FA
:102650000040108013E03F2C07D220004008E30721
:1026600000D5401C8302138009E02000400914F0CB
:102670001F0F00D1401E830253F4004313800DE06E
:10268000707801280AD12900B5F850004118307837
:10269000C00011EB400000F2044004802900707873
:1026A000002832D12A00B5F8500082183078C000D6
:1026B00012EB400303F20C43002C0CD1B3F800C022
:1026C00048F2FF3010EA0C0CA3F800C0188850F450
:1026D0000040188018E03F2C0AD2200040085FEA32
:1026E000C47C00D5401C5FEA802CA3F800C00BE03E
:1026F0002000400914F01F0F00D1401E5FEA802C1B
:102700005CF4004CA3F800C00CE07078012809D1FB
:10271000B5F8500041183078C00011EB400000F2CD
:102720000C400480307835F820104BF68F70014053
:1027300091F4805191F4005141F4004151F0800135
:10274000307825F820100020F2BD020048780028DB
:102750000FD0087832F8203048F6BF70034093F06D
:10276000100343F4004353F08003087822F820302C
:102770000EE0087832F820304BF68F70034093F467
:10278000805343F4004353F08003087822F820304C
:102790000020704710B40200087B00284AD1487816
:1027A000002824D0087832F8203058060CD5087854
:1027B00032F8204048F68F70044044F4004454F04E
:1027C000C004087822F82040C878012832D0087860
:1027D00032F8203048F6BF70034093F0200343F4F2
:1027E000004353F08003087822F8203022E0087874
:1027F00032F8203058040CD5087832F8204048F6DA
:102800008F70044044F4404454F08004087822F867
:102810002040087832F820304BF68F70034093F454
:10282000805393F4005343F4004353F0800308783B
:1028300022F82030002010BC704702000800C0B20F
:10284000002802D18020A2F84C000020704701002F
:10285000002070470100002070470100B1F84400DB
:1028600070470200002070472DE9F04304001F006C
:10287000BFB27F1C7F08A4468846100080B21CEBC4
:10288000400E1EF5806E3800002817D098F8009092
:102890004D4618F1010898F800905FEA09291FFADF
:1028A00089F959EA05094E46AEF800601EF1020E9C
:1028B0001EF1020E18F10108401EE5E7BDE8F083A5
:1028C0002DE9F04104001E00B6B2760827008C46C0
:1028D000100080B217EB400E1EF5806E300000280D
:1028E00013D0BEF8008045461EF1020E8CF8005051
:1028F0001CF1010CA8465FEA18288CF800801CF136
:10290000010C1EF1020E401EE9E75FEAC37804D510
:10291000BEF8008045468CF80050BDE8F08100000C
:102920002DE9F043A3B000F005FD00F03CF900F004
:10293000CFFA00F07CF900F099F900F008FA00F005
:1029400066FA00F0A9FADFF8E8480021200000F05C
:1029500007FE0421200000F003FEDFF8D848002124
:10296000200000F0FDFD0421200000F0F9FD082109
:10297000200000F0F5FD0C21200000F0F1FD002109
:10298000DFF8B40800F0ECFD01224FF48061DFF8BD
:10299000AC0801F0B9FB0020DFF8A41808600020A3
:1029A000DFF8A0180860DFF8A0080568DFF89C08C9
:1029B0000068DFF89C683168DFF8984801F008FC8F
:1029C0000100DFF8940801F043FC0100280001F049
:1029D0003FFC316801F0BAFC210001F029FD01F053
:1029E00093FD642190FBF1F0DFF870180860DFF8C8
:1029F00070080168DFF86C080668DFF86C78D7F8B3
:102A00000080DFF85458280001F0E2FB81463000D6
:102A1000414601F0DDFB0100DFF83C0801F018FC45
:102A20000100484601F014FC396801F08FFC2100D8
:102A300001F0FEFC01F068FD642190FBF1F0DFF88D
:102A40002C180860DFF828080168DFF828080668F5
:102A5000DFF82478D7F80080280001F0B9FB0500E2
:102A60003000414601F0B4FB0100DFF8EC0701F053
:102A7000EFFB0100280001F0EBFB396801F066FC78
:102A8000210001F0D5FC01F03FFD642190FBF1F045
:102A9000DFF8E8170860DFF8E8070568DFF8E40703
:102AA0000068DFF8E467316801F092FB0100DFF8AD
:102AB000A80701F0CDFB0100280001F0C9FB316837
:102AC00001F044FC210001F0B3FC01F01DFD642184
:102AD00090FBF1F0DFF8B4170860DFF8B407056881
:102AE000DFF8B0070068DFF8B067316801F070FB0D
:102AF0000100DFF8640701F0ABFB0100280001F0E2
:102B0000A7FB316801F022FC210001F091FC01F0EB
:102B1000FBFC642190FBF1F0DFF8801708601CA833
:102B2000DFF87C171C22FEF7B5FB00211CA801F082
:102B300011FDDFF87017086015A8DFF86C171C226C
:102B4000FEF7A8FB002115A801F004FDDFF85C17D3
:102B500008600EA8DFF858171C22FEF79BFB002127
:102B60000EA801F0F7FCDFF84C17086007A8DFF8A3
:102B700048171C22FEF78EFB002107A801F0EAFC93
:102B8000DFF8381708606846DFF834171C22FEF7B4
:102B900081FB0021684601F0DDFCDFF828170860A2
:102BA00001F0D3FCFEE700B593B009A8282101F09D
:102BB0000FFD6846142101F00BFD05A8102101F05E
:102BC00007FD012009905FF480300A9000210B91ED
:102BD00001210D910221109111905FF4E0101290EB
:102BE00009A801F0F9FC002801D000F0A1FB0F209A
:102BF000009002200190002002904FF4806003902A
:102C0000002004900221684601F09CFF002801D0BA
:102C100000F08EFB102005900020089005A802F01F
:102C20006BF9002801D000F083FB13B000BD80B524
:102C3000DFF89406DFF894160160DFF8941641601F
:102C4000002181600021C1604FF4804101610021B9
:102C50004161002181610021C1610021016202F016
:102C60001FFA002801D000F063FB01BD18B591B038
:102C7000DFF86006D0E90023CDE9002302A81C217B
:102C800001F0A6FC09A8202101F0A2FCDFF8A04574
:102C9000DFF844062060002060600020A0604FF450
:102CA0006160E06000202061002060610020A06180
:102CB000200000F0EFFB002801D000F039FB0020DD
:102CC0000090002001906946200002F04DFB002892
:102CD00001D000F02DFB6020029000200390002026
:102CE000049000200590002006900020079000200E
:102CF0000890002202A9200000F04DFD002801D01C
:102D000000F016FB042202A9200000F044FD002878
:102D100001D000F00DFB0020099000200A90002057
:102D20000B9000200C9000200D904FF400500E905E
:102D30000020109009A9200002F07AFB002801D0A1
:102D400000F0F6FA200002F092FC12B010BD18B5A7
:102D500089B0DFF88805D0E90023CDE9002302A877
:102D60001C2101F035FCDFF8CC445FF0804020608E
:102D7000142060600020A06048F6A040E0600020C1
:102D800020610020A061200000F084FB002801D019
:102D900000F0CEFA0020009000200190694620004B
:102DA00002F0E2FA002801D000F0C2FA602002909E
:102DB000002003900020049000200690002202A929
:102DC000200000F0E8FC002801D000F0B1FA042255
:102DD00002A9200000F0DFFC002801D000F0A8FAD2
:102DE000082202A9200000F0D6FC002801D000F043
:102DF0009FFA0C2202A9200000F0CDFC002801D08F
:102E000000F096FA200002F032FC0AB010BD18B5AE
:102E100089B0DFF8CC04D0E90023CDE9002302A873
:102E20001C2101F0D5FBDFF81044DFF8B804206066
:102E3000282060600020A06048F6A040E0600020EC
:102E400020610020A061200000F024FB002801D0B8
:102E500000F06EFA002000900020019069462000EA
:102E600002F082FA002801D000F062FA602002909D
:102E7000002003900020049000200690002202A968
:102E8000200000F088FC002801D000F051FA20005A
:102E900002F0EDFB0AB010BD80B5DFF84C04DFF89E
:102EA0004C1401605FF4E131416000218160002138
:102EB000C160002101610C2141610021816100217B
:102EC000C16102F08DFC002801D000F031FA01BD93
:102ED00078B585B06846102101F07AFBDFF8100460
:102EE000016851F010010160016811F010010491B6
:102EF0000499016851F020010160016811F020017E
:102F000004910499016851F004010160016811F015
:102F1000040104910499016851F0080101600068FE
:102F200010F0080004900498DFF8C86300224FF402
:102F30000051300001F0E8F8DFF8BC430022022124
:102F4000200001F0E1F8BD4D00224FF4806128001F
:102F500001F0DAF84FF400500090012001900020B9
:102F60000290022003906946300000F0F5FE022036
:102F700000900120019000200290022003906946F9
:102F8000200000F0E9FE4FF4704000900020019016
:102F9000002002906946200000F0DEFE4FF48060C1
:102FA00000900120019000200290022003906946C9
:102FB000280000F0D1FE40200090D0480190002071
:102FC00002906946200000F0C7FE06B070BD020006
:102FD0000020010089B2515C002901D0401CF8E7B3
:102FE00080B27047F8B5040002F072FD0025C44EAF
:102FF000307801282FD1C34A10784B2817D1507848
:10300000412814D190784C2811D1D0780D280ED1B8
:10301000BD4FBE49380002F087FD3800FFF7D7FFEB
:103020000500290089B2380002F0EFFD0DE0B64F2F
:10303000B749380002F078FD3800FFF7C8FF0500F7
:10304000290089B2380002F0E0FD02F003FEB14928
:1030500008600020307002F0FDFDAF4AAD490968FC
:10306000401A1060AD4801681368994201D2116896
:103070000160106840F2E931884208D30020A84975
:1030800008600020A74908600020A74908704FF495
:103090007A7001F08FFA4FF40051964801F05BF816
:1030A000A5E710B50400012001F084FAFBE710B594
:1030B0000400012001F07EFAFBE72DE9F04704004F
:1030C0006148066861480068614F3968614D01F0E8
:1030D0007FF80100604801F0BBF80100300001F00A
:1030E000B7F8396801F032F9290001F0A1F901F0CF
:1030F0000BFA642190FBF1F05849086058480168C8
:1031000058480768DFF86081D8F80090524E3000C8
:1031100001F05EF882463800494601F059F8010096
:103120004D4801F095F80100504601F091F8D8F8AB
:10313000001001F00BF9290001F07AF901F0E4F92F
:10314000642190FBF1F04949086049480168494809
:103150000768DFF82481D8F80090300001F038F8D3
:1031600006003800494601F033F801003A4801F002
:103170006FF80100300001F06BF8D8F8001001F092
:10318000E5F8290001F054F901F0BEF9642190FB43
:10319000F1F03A4908603A4806683A4800683A4F00
:1031A000396801F015F801002B4801F051F80100D1
:1031B000300001F04DF8396801F0C8F8290001F03D
:1031C00037F901F0A1F9642190FBF1F02F49086073
:1031D0002F4806682F4800682F4F396800F0F8FF25
:1031E00001001D4801F034F80100300001F030F812
:1031F000396801F0ABF8290001F01AF901F084F9FF
:10320000642190FBF1F0254908600A2001F0D2F911
:1032100056E710B50400012001F0CCF9FBE710B52A
:10322000040020684149884201D102F019FD10BD17
:10323000C02E0020002F0020402F00200008014059
:10324000342C0140382C0140300000201C000020AC
:103250000800002000A00C470000C84234000040D5
:1032600034000020200000200C0000203800004026
:103270002800002014000020000000203C00004036
:103280002C00002018000020040000204000004016
:1032900038000020240000201000002034040040EA
:1032A000008E00084C3100201C8E00085031002098
:1032B000388E000854310020548E00085831002008
:1032C000708E00085C3100206C2E002000540040FD
:1032D000A0860100688F0008002C0140708F000854
:1032E000788F000800040040802F00200044004038
:1032F0001810024000100140000C014000001110A5
:10330000BD310020C02F0020C0300020388F0008C1
:10331000448F0008603100206431002068310020B3
:103320006C31002070310020BC31002000080040CA
:103330007047704780B50748016851F0100101607F
:10334000032002F0F6FC002002F044FD02F00AF92E
:10335000002002BD0020024010B50400002C01D165
:1033600001205FE02068DFF81C11884213D020683C
:10337000B0F1804F0FD02068DFF80C1188420AD0DE
:103380002068DFF80811884205D04FF48971DFF812
:103390000001FFF7CEFFA068002811D0A068102818
:1033A0000ED0A06820280BD0A068402808D0A068C4
:1033B000602805D040F21311DFF8D400FFF7B9FF01
:1033C000206900280DD02069B0F5807F09D02069E0
:1033D000B0F5007F05D04FF48A71DFF8B400FFF735
:1033E000A8FFA069002808D0A069802805D040F275
:1033F0001511DFF89C00FFF79CFF94F83D000028B2
:1034000005D1002084F83C00200000F0A3FC02203D
:1034100084F83D00211D206800F0DEFA012084F8C8
:103420003D00002010BD10B504002068DFF85410E6
:10343000884213D02068B0F1804F0FD02068DFF8A9
:10344000481088420AD02068DFF84010884205D032
:1034500040F2B911DFF80401FFF76BFF2068C06884
:1034600050F001002168C8602068816811F00701F0
:10347000062905D02068006850F00100226810601D
:10348000002010BD002C0140000400400008004056
:10349000088D000810B50400002C01D101205BE06C
:1034A0002068DFF86C11884212D02068B0F1804F9C
:1034B0000ED02068DFF85C11884209D02068DFF860
:1034C0005811884204D040F29B412448FFF731FF55
:1034D000A068002810D0A06810280DD0A06820286F
:1034E0000AD0A068402807D0A068602804D040F225
:1034F0009C411A48FFF71DFF206900280CD0206965
:10350000B0F5807F08D02069B0F5007F04D040F28C
:103510009D411248FFF70DFFA069002807D0A06960
:10352000802804D040F29E410C48FFF702FF94F837
:103530003D00002805D1002084F83C00200002F066
:1035400067F8022084F83D00211D206800F044FA4D
:10355000012084F83D00002010BD0000088D000807
:1035600070B505000C00DFF8A8602868B04207D1EC
:10357000002C31D0042C2FD0082C2DD00C2C2BD08B
:103580002868B0F1804F07D1002C25D0042C23D01F
:10359000082C21D00C2C1FD02868DFF87810884226
:1035A00007D1002C18D0042C16D0082C14D00C2CC9
:1035B00012D02868DFF86010884207D1002C0BD0A9
:1035C000042C09D0082C07D00C2C05D040F2135144
:1035D000DFF84800FFF7ADFE01222100286800F067
:1035E0007BFB2868B04205D12868406C50F400404D
:1035F000296848642868816811F00701062905D008
:103600002868006850F001002A681060002070BD32
:10361000002C01400004004000080040088D000814
:1036200010B504002068006980071AD52068C068BA
:10363000800716D57FF002002168086101202077FD
:103640002068806910F0030F03D0200002F00CFC0A
:1036500005E0200002F009FC200002F007FC002039
:1036600020772068006940071AD52068C0684007A5
:1036700016D57FF0040021680861022020772068B9
:10368000806910F4407F03D0200002F0EDFB05E0DC
:10369000200002F0EAFB200002F0E8FB0020207787
:1036A0002068006900071AD52068C068000716D591
:1036B0007FF0080021680861042020772068C06935
:1036C00010F0030F03D0200002F0CEFB05E0200035
:1036D00002F0CBFB200002F0C9FB0020207720681D
:1036E0000069C0061AD52068C068C00616D57FF0EC
:1036F000100021680861082020772068C06910F454
:10370000407F03D0200002F0AFFB05E0200002F074
:10371000ACFB200002F0AAFB0020207720680069A3
:10372000C0070AD52068C068C00706D57FF0010031
:10373000216808612000FFF772FD2068006900061B
:103740000AD52068C068000606D57FF08000216891
:103750000861200002F08BFB2068006940060AD552
:103760002068C068400606D57FF0400021680861E7
:10377000200002F07DFB2068006980060AD52068E1
:10378000C068800606D57FF020002168086120000F
:1037900002F06FFB10BD70B505000E001400002C88
:1037A0000DD0042C0BD0082C09D00C2C07D03C2CAD
:1037B00005D040F6EB51DFF81C02FFF7BAFD306888
:1037C000602808D03068702805D040F6EC51DFF84A
:1037D0000402FFF7AEFDB068002808D0B0680228E8
:1037E00005D040F6ED51DFF8EC01FFF7A2FD30699E
:1037F000002808D03069042805D040F6EE51DFF8E3
:10380000D401FFF796FD95F83C00012801D1022074
:10381000D9E0012085F83C00022085F83D00200019
:10382000002807D0042835D0082864D00C2800F0E0
:103830009280C1E02868DFF89011884213D0286890
:10384000B0F1804F0FD02868DFF8801188420AD08D
:103850002868DFF87C11884205D040F6FA51DFF87D
:103860007401FFF766FD3100286800F0ECF8286865
:10387000806950F00800296888612868806930F004
:1038800004002968886128688169306901432868D3
:10389000816191E02868DFF83011884213D02868F0
:1038A000B0F1804F0FD02868DFF8201188420AD08D
:1038B0002868DFF81C11884205D040F60B61DFF85C
:1038C0001401FFF736FD3100286800F013F928686D
:1038D000806950F40060296888612868806930F444
:1038E00080602968886128688069316950EA012010
:1038F0002968886160E02868DFF8CC10884213D01E
:103900002868B0F1804F0FD02868DFF8C0108842D7
:103910000AD02868DFF8B810884205D040F61C614C
:10392000DFF8B000FFF705FD3100286800F03CF932
:103930002868C06950F008002968C8612868C06913
:1039400030F004002968C8612868C1693069014302
:103950002868C16130E02868DFF86C10884213D015
:103960002868B0F1804F0FD02868DFF860108842D7
:103970000AD02868DFF85810884205D040F62D613B
:10398000DFF85000FFF7D5FC3100286800F068F937
:103990002868C06950F400602968C8612868C06957
:1039A00030F480602968C8612868C069316950EACC
:1039B00001202968C861FFE7012085F83D0000204B
:1039C00085F83C00002070BD002C01400004004040
:1039D00000080040088D000810B40368DFF8F042CA
:1039E000A0420AD0B0F1804F07D0DFF8E822904221
:1039F00003D0DFF85023904203D133F070034A68BC
:103A00001343A0420AD0B0F1804F07D0DFF8C422A0
:103A1000904203D0DFF82C23904203D133F440735B
:103A2000CA68134333F080034A69134303608A680A
:103A3000C2620A688262A04201D10A69026301225D
:103A4000426110BC70472DE9F84304000D00206A64
:103A5000400840002062276AD4F80480A66936F046
:103A60007006B608B6002868064337F00207A86853
:103A70000743DFF85C924C4510D1E868002807D076
:103A8000E868082804D041F201719048FFF751FC22
:103A900037F00807E868074337F004074C4521D1A1
:103AA000A869B0F5007F07D0A869002804D041F2CA
:103AB0000E718648FFF73DFC6869B0F5807F07D03E
:103AC0006869002804D041F20F718048FFF731FC8B
:103AD00038F4807838F40078686950EA0808A869F2
:103AE00050EA0808C4F80480A66168686063276229
:103AF000BDE8F1832DE9F84304000D00206A30F0A1
:103B000010002062D4F820806668A76937F4E04787
:103B100037F44077286857EA002738F02008A8686B
:103B200058EA0018DFF8A8914C4511D1E868002840
:103B300007D0E868082804D041F24C716348FFF7C9
:103B4000F8FB38F08008E86858EA001838F04008B8
:103B50004C4521D1A869B0F5007F07D0A86900289D
:103B600004D041F25A715948FFF7E3FB6869B0F598
:103B7000807F07D06869002804D041F25B71534808
:103B8000FFF7D7FB36F4806636F40066686956EABC
:103B90008006A86956EA80066660A7616868A06327
:103BA000C4F82080BDE8F1832DE9F84304000D003E
:103BB000206A30F480702062266A6768D4F81C801E
:103BC00038F070085FEA98085FEA8808286850EAC9
:103BD000080836F40076A86856EA0026DFF8F09068
:103BE0004C4511D1E868002807D0E868082804D0BF
:103BF00041F297713548FFF79CFB36F40066E868A0
:103C000056EA002636F480664C4521D1A869B0F505
:103C1000007F07D0A869002804D041F2A4712B4886
:103C2000FFF787FB6869B0F5807F07D068690028D7
:103C300004D041F2A5712548FFF77BFB37F480578C
:103C400037F40057686957EA0017A86957EA001760
:103C50006760C4F81C806868E0632662BDE8F18391
:103C60002DE9F04104000D00206A30F480502062FC
:103C7000D4F820806668E76937F4E04737F4407786
:103C8000286857EA002738F40058A86858EA00382E
:103C9000DFF83C00844210D16869B0F5807F07D01E
:103CA0006869002804D041F2E3710848FFF741FB3E
:103CB00036F48046686956EA80166660E76168688F
:103CC0002064C4F82080BDE8F0810000088D000861
:103CD000002C01400004004070B505000C001600E7
:103CE0001A4885420DD0B5F1804F0AD01848854258
:103CF00007D01448854204D041F6C9111248FFF795
:103D000018FB002C0CD0042C0AD0082C08D00C2C4A
:103D100006D03C2C04D041F6CA110B48FFF709FB32
:103D2000012114F01F0011FA00F0296A8143296271
:103D3000296A14F01F0216FA02F21143296270BDBB
:103D40000000000000080040088D0008002C014021
:103D500000040040704700002DE9FE4F0700884630
:103D60005FF000095FF0000ADFF81CB45F4514D073
:103D7000DFF81804874210D0DFF8140487420CD013
:103D8000DFF81004874208D0DFF80C04874204D023
:103D9000BD21DFF80804FFF7CCFAD8F800000004D2
:103DA00005D0D8F80000000C0004002804D0BE2183
:103DB000DFF8E803FFF7BDFAD8F8040000283CD08C
:103DC000D8F80400012838D0D8F80400112834D0DD
:103DD000D8F80400022830D0D8F8040012282CD0DB
:103DE000D8F80400DFF8B813884226D0D8F80400C9
:103DF000DFF8B013884220D0D8F80400DFF8A81309
:103E000088421AD0D8F80400DFF8A013884214D0F2
:103E1000D8F80400DFF8981388420ED0D8F80400D0
:103E2000DFF89013884208D0D8F80400032804D0A3
:103E3000BF21DFF86803FFF77CFAD8F8000030FAFA
:103E400009F0002800F05E81012010FA09F00090CE
:103E5000D8F80010009801400C000098844240F00F
:103E60004E815F4514D0DFF82403874210D0DFF87D
:103E7000200387420CD0DFF81C03874208D0DFF80C
:103E80001803874204D0CD21DFF81003FFF751FA61
:103E9000D8F8040000287AD0012821D002284AD07E
:103EA000032800F09A8011282FD0122859D0DFF86B
:103EB000F01288426BD0DFF8F412884267D0DFF846
:103EC000E412884263D0DFF8E81288425FD0DFF85E
:103ED000D81288425BD0DFF8DC12884257D07FE0EE
:103EE000D8F80C0002280CD0D8F80C00012808D013
:103EF000D8F80C00032804D0D521DFF8A002FFF782
:103F000018FAD8F80C0082466AE0D8F80C000228AB
:103F10000CD0D8F80C00012808D0D8F80C000328E1
:103F200004D0DC21DFF87402FFF703FAD8F80C00A4
:103F3000001D824654E0D8F80C0002280CD0D8F8B6
:103F40000C00012808D0D8F80C00032804D0E32185
:103F5000DFF84802FFF7EDF9D8F80C000830824688
:103F60003EE0D8F80C0002280CD0D8F80C0001284C
:103F700008D0D8F80C00032804D0EA21DFF81C028E
:103F8000FFF7D7F9D8F80C000C30824628E0D8F8B3
:103F9000080000280CD0D8F80800012808D0D8F86C
:103FA0000800022804D0F721DFF8F001FFF7C1F97B
:103FB000D8F80800002802D1042082460CE0D8F886
:103FC0000800012804D1082082460098386103E0E7
:103FD000082082460098786102E000208246FFE7D0
:103FE000B4F5807F01D2019701E0381D0190B4F54E
:103FF000807F02D25FEA890602E0B9F10806B600C6
:104000000F210198026811FA06F082431AFA06F0AD
:10401000024301980260D8F80400C0006FD5DFF8B1
:104020009801026852F001020260006810F001007D
:1040300002900298DFF884214846800852F8203028
:1040400019F00300C0B2800081408B435F4501D16D
:10405000002112E0DFF83401874201D101210CE098
:10406000DFF82C01874201D1022106E0DFF82401AC
:10407000874201D1032100E004211D0019F0030053
:10408000C0B2800081400D434846800842F820506D
:10409000D8F80400C00305D5DFF8240101682143E6
:1040A000016004E0DFF818010168A1430160D8F85D
:1040B0000400800305D5DFF80C010168214301608D
:1040C00003E040480168A1430160D8F80400C00241
:1040D00004D53D4801682143016003E03A48016886
:1040E000A1430160D8F80400800204D53748016874
:1040F0002143016003E035480168A143016019F1E3
:1041000001099AE6BDE8F78F70B504000E001500AE
:10411000300080B2002804D14FF4EA711F48FFF745
:1041200008F92800C0B2002808D02800C0B2012831
:1041300004D040F2D5111948FFF7FBF82800C0B2AF
:10414000002803D0300080B2206103E0300080B24C
:104150000004206170BD38B504000D00280080B255
:10416000002804D14FF4F5710C48FFF7E2F8E0683D
:10417000290089B2084203D0280080B2606102E0C1
:10418000280080B2206131BD00080140000C0140D0
:10419000001001400014014000180140548A00083A
:1041A000000011100000211000003110000012105A
:1041B00000002210000032101810024008000140D8
:1041C0000004014004040140080401400C040140C3
:1041D00090EA010F40F1C08081F00041421A3CBFDB
:1041E000801A89184FF0004CC0F3C752FF2A24D020
:1041F000C1F3C75313B3D21AD2F1190327DD4CEA26
:1042000001214CFA03F321EA0303D140C20D4CEA29
:104210000020401834BF20EA0C004CEA5000D205C0
:1042200053EA006373EB0C0C52EB1020420012F1C6
:10423000807F38BF7047C00DC0057047490212BF6C
:104240009A4200EB5120F8E7D2F11703D9D5704715
:1042500010B5FF2313EAD0541DBF13EAD1529C427C
:104260009A4239E0A41ADA0780EA0103134042EACD
:10427000012142EA0020421A3CBF641E01EB4202C7
:10428000090AB2FBF1FE01FB1E221202B2FBF1F0A1
:1042900001FB10226EF30F201202B2FBF1FE4EEA78
:1042A00000207F3406DDFE2C24DA53EA500050EB68
:1042B000C45010BDD4F1020401FB1E2240F08071F5
:1042C000192C1DDC21FA04F0C4F12004A140114393
:1042D00071F10042584110BD9C421ABF03EAD1520D
:1042E0009A420FE080EA010E0EF00043400004D035
:1042F000490016D143F0FF4010BD490008BFD34329
:10430000180010BD9C4205D1D21AF7D001F000412F
:10431000484010BD4A0212BF0846484000F0004025
:1043200010BD4AB90902B1FA81F2914044B1A41812
:10433000C00140F000409EE7C90141F000415242F7
:104340000002B0FA80F4A040141B94E790EA010F39
:104350007FF544AF81F00041431A4FF000423EBF69
:104360005340C01AC91800BFD3095FEAD05C13EBF1
:10437000400F34BFB3EB410F40E07CEBD1530CD383
:1043800042EA012122D8D1EB402009D3400A28BFBC
:104390005FEA500140EBCC507047401A15D0400204
:1043A000B0FA80F2521C9040400A4FEA3C23B3EB33
:1043B000026384BF00EB730007E040F400001A16AC
:1043C000DB07C2F10102D04018437047182BFCDC18
:1043D00031FA03F202FA03F3591A38BF42F001022C
:1043E000D2EB40203CBF4000ACF1010C5FEACC5C5A
:1043F000C20572F100414CEB5020704713EB400FA7
:104400000FD2C94209D0ACEBD153022B03DB4902D6
:10441000172BDDDD70479143401AC042D5D10020F3
:10442000704713EB410FD0D36FF0000070470000CE
:10443000FF2212EAD05C1DBF12EAD1539445934289
:104440002BE09C44D30780EA01021A4043EA002093
:1044500043EA0121A1FB0030C04238BF40007CF19B
:104460007F010BDBFE294ADA5B0842EAC15153EABD
:10447000006373F1004C51EB10207047D1F1080C30
:10448000DCF120012FDB5B0810FA01F10B4320FA6D
:104490000CF073F100415041704794451CBF02EA93
:1044A000D153934280EA010202F000421DD0400045
:1044B00019D0490017D05BB9634514D00902B1FA8D
:1044C00081F39940BCEB030CC00140F00040C1E710
:1044D0000002B0FA80FC10FA0CF0B3EB0C0CC9012E
:1044E00041F00041B6E71000704740000AD0490093
:1044F00008D010F1807F94BF11F1807F02E042F07C
:10450000FF407047D0437047C0F3C7517E390EDD7E
:10451000C217D1F1200106DD000240F00040C84082
:10452000104450407047D04380F000407047002056
:1045300070470000010000200A0012B2842A03D054
:104540000A0012B2D21C1018704780B501F0F4FDB9
:10455000002002BD38B584B004000D006069002859
:1045600013D0A069002810D0B4F90800FFF7E2FFCB
:10457000A16902916169019100902B002269216873
:10458000606801F077FC039011E0B4F90800FFF7D0
:10459000D1FF03A9019100902B00226992B22168FA
:1045A000606801F0B5FC012801D0002000E003980C
:1045B00005B030BD38B505000120B5FBF0F4002C86
:1045C00001D0200000E0012001F08FFD002032BD6D
:1045D000002202F04BB800002DE9FC470400002C3B
:1045E00001D10120ACE22068002809D0207810F029
:1045F0000F0F05D140F26711DFF8C808FEF799FEEA
:104600002078C0077CD5606800280DD06068B0F5C0
:10461000803F09D06068B0F5A02F05D040F26D1141
:10462000DFF8A008FEF785FEDFF85C08016811F0EE
:104630000C01042907D0016811F00C0108290CD1E4
:104640000068C00309D5DFF83C080068800357D52F
:104650006068002854D1012072E26068B0F5803FA4
:1046600006D1DFF82008016851F48031016026E0AE
:10467000606800280AD1DFF80C08016831F4803145
:104680000160016831F48021016018E06068B0F5D4
:10469000A02F0AD1DFF8EC07016851F480210160F6
:1046A000016851F48031016009E0DFF8D807016842
:1046B00031F480310160016831F48021016060686B
:1046C00000280ED001F0C6FA0500DFF8B807006830
:1046D000800315D401F0BEFA401B6528F5D30320F2
:1046E0002EE201F0B7FA0500DFF8980700688003B2
:1046F00006D501F0AFFA401B6528F5D303201FE271
:104700002078800765D52069002808D02069012815
:1047100005D040F2A111DFF8AC07FEF70AFE606990
:10472000202805D34FF4D171DFF89807FEF701FE7A
:10473000DFF85407016811F00C0F07D0016811F081
:104740000C01082914D10068C00311D4DFF8340724
:104750000168890704D52169012901D00120EFE111
:10476000016831F0F801626951EAC201016030E08C
:10477000206900281AD00120DFF84C17086001F0EA
:1047800069FA0500DFF8FC060168890706D401F024
:1047900061FA401B0328F5D30320D1E1016831F011
:1047A000F801626951EAC201016012E00020DFF8FD
:1047B0001817086001F04EFA0500DFF8C806006817
:1047C000800706D501F046FA401B0328F5D30320E5
:1047D000B6E12078000738D5A069002808D0A06984
:1047E000012805D04FF4F171DFF8D806FEF7A1FDDE
:1047F000A069002816D00120DFF8D016086001F06B
:1048000029FA0500DFF8B8060068800706D401F031
:1048100021FA401B0328F5D3032091E1012000F089
:1048200035FB12E00020DFF8A416086001F012FA50
:104830000500DFF88C060068800706D501F00AFA4B
:10484000401B0328F5D303207AE12078400740F18C
:104850009D800027E06800280BD0E068012808D080
:10486000E068052805D040F21121DFF85806FEF770
:1048700060FDDFF85C86D8F80000C0000DD4D8F8E1
:10488000000050F08050C8F80000D8F8000010F088
:1048900080500090009801200700DFF83896D9F882
:1048A0000000C00513D4D9F8000050F48070C9F896
:1048B000000001F0CFF90500D9F80000C00506D4CA
:1048C00001F0C8F9401B6528F6D3032038E1E06801
:1048D000012806D1DFF80006016851F001010160EE
:1048E00025E0E06800280AD1DFF8EC0501684908F6
:1048F00049000160016831F00401016017E0E068DF
:1049000005280AD1DFF8D005016851F004010160E3
:10491000016851F00101016009E0DFF8BC050168A0
:10492000490849000160016831F004010160E06854
:10493000002810D001F08EF90500DFF89C05006812
:10494000800719D401F086F9401B41F28931884271
:10495000F3D30320F4E001F07DF90500DFF87805DA
:104960000068800708D501F075F9401B41F28931D4
:104970008842F3D30320E3E03800C0B2012805D118
:10498000D8F8000030F08050C8F80000E069002836
:104990000BD0E069012808D0E069022805D040F278
:1049A000AF21DFF82005FEF7C4FCE069002800F025
:1049B000C680DFF8D474386810F00C00082800F0C6
:1049C000AB80E069022840F09480206A002809D07A
:1049D000206AB0F5803F05D04FF42E71DFF8E40473
:1049E000FEF7A7FC606A00283DD0606AB0F5802F12
:1049F00039D0606AB0F5002F35D0606AB0F5402F2D
:104A000031D0606AB0F5801F2DD0606AB0F5A01F6C
:104A100029D0606AB0F5C01F25D0606AB0F5E01FEC
:104A200021D0606AB0F5001F1DD0606AB0F5101F7C
:104A300019D0606AB0F5201F15D0606AB0F5301F3C
:104A400011D0606AB0F5401F0DD0606AB0F5501FFC
:104A500009D0606AB0F5601F05D040F2B921DFF8D7
:104A60006404FEF766FCDFF874A40020CAF80000B6
:104A700001F0F0F88046DFF80C94D9F800008001CE
:104A800007D501F0E7F8B0EB08000328F3D30320C3
:104A900056E0206AB0F5803F12D1A068002809D006
:104AA000A068B0F5003F05D040F2CF21DFF8140434
:104AB000FEF73FFC396831F40031A06801433960EA
:104AC000396831F47411206A0143606A0143396026
:104AD0000120CAF8000001F0BDF80500D9F8000077
:104AE00080012CD401F0B6F8401B0328F6D3032034
:104AF00026E00020DFF8E413086001F0ABF80500C1
:104B0000DFF880030068800119D501F0A3F8401B8D
:104B10000328F5D3032013E0E069012801D1012027
:104B20000EE03868060016F48030216A884204D10D
:104B300016F47010616A884201D0012000E0002064
:104B4000BDE8F6872DE9F04104000D00002C01D1ED
:104B5000012018E1207810F00F0F05D14FF44E71AD
:104B6000DFF86003FEF7E5FB002D09D0012D07D02B
:104B7000022D05D040F23931DFF84803FEF7D9FBAA
:104B8000DFF85C73386810F00700A8420BD2386871
:104B9000C008C00028433860386810F00700A842F9
:104BA00001D00120EFE0207880073AD52078400737
:104BB00005D5DFF8D402016851F4E0610160207886
:104BC000000705D5DFF8C002016851F460510160AB
:104BD000A06800281DD0A06880281AD0A06890285E
:104BE00017D0A068A02814D0A068B02811D0A06861
:104BF000C0280ED0A068D0280BD0A068E02808D02C
:104C0000A068F02805D040F25F31DFF8B802FEF767
:104C100090FBDFF874120A6832F0F002A0680243D9
:104C20000A602078C00747D5606800280BD060680C
:104C3000012808D06068022805D040F26631DFF80C
:104C40008402FEF776FB6068012806D1DFF83402A3
:104C50000068800312D4012095E06068022806D124
:104C6000DFF820020068800108D401208BE0DFF823
:104C700014020068800701D4012084E0DFF8088274
:104C8000D8F800108908890060680143C8F800104E
:104C900000F0E0FF0600D8F8000010F00C0061689A
:104CA000B0EB810F08D000F0D5FF801B41F28931B5
:104CB0008842F0D3032066E0386810F00700854290
:104CC0000BD23868C008C00028433860386810F03C
:104CD0000700A84201D0012055E0207840071FD5E9
:104CE000E068002815D0E068B0F5806F11D0E0686A
:104CF000B0F5A06F0DD0E068B0F5C06F09D0E068E6
:104D0000B0F5E06F05D04FF46971DFF8B801FEF738
:104D100010FB5D490A6832F4E062E06802430A6011
:104D2000207800071FD52069002814D02069B0F52D
:104D3000806F10D02069B0F5A06F0CD02069B0F55D
:104D4000C06F08D02069B0F5E06F04D040F2AB31FD
:104D50005C48FEF7EEFA4C48016831F46051226974
:104D600051EAC201016000F010F85E49464A12683B
:104D7000C2F30312895CC8404F4908604F4800687D
:104D800001F028F80020BDE8F081F0B585B001A859
:104D900055491022FCF77EFA54480088ADF800000F
:104DA00000200021002200230025374E346814F033
:104DB0000C07042F02D0082F02D01BE03D481AE058
:104DC00001A8C4F38347C05D0300E0030CD5684627
:104DD0003668C6F34046805D0100364800FB03F0AC
:104DE000B0FBF1F0020003E0414800FB03F00200D9
:104DF000100000E02F4805B0F0BD2F480068704754
:104E000080B5FFF7FAFF3B491F4A1268C2F302223E
:104E1000895CC84002BD80B5FFF7EFFF35491A4AEB
:104E20001268C2F3C222895CC84002BD38B50400D2
:104E30000D00002C04D140F223512248FEF779FAEC
:104E4000002D04D140F224511E48FEF772FA0F20C3
:104E500020600D48016811F003016160016811F0E4
:104E6000F001A160016811F4E061E1600068C00830
:104E700010F4E06020611A48006810F00700286014
:104E800031BD0000001002400410024081B00A4908
:104E90000968C9084FF47A72B1FBF2F101FB00F125
:104EA000009100BF00994A1E00920029F9D101B07B
:104EB0007047000000127A004400002040000020EB
:104EC00024100240B48C0008000042428004424298
:104ED0001C1002400070004020100240600042425E
:104EE00000200240D88E0008C88E00081A1300085F
:104EF00000093D00808F00082DE9F84305000026D9
:104F00000024287810F0130F03D16C215E48FEF7BF
:104F100010FA2878C00740F18080686800280FD018
:104F20006868B0F5807F0BD06868B0F5007F07D067
:104F30006868B0F5407F03D072215348FEF7F9F955
:104F40000027DFF84881D8F80000C0000DD4D8F859
:104F5000000050F08050C8F80000D8F8000010F0B1
:104F600080500090009801200700DFF82491D9F8C4
:104F70000000C00513D4D9F8000050F48070C9F8BF
:104F8000000000F067FE0600D9F80000C00506D456
:104F900000F060FE801B6528F6D3032071E0DFF887
:104FA000F490D9F8000010F440700400002C22D0D6
:104FB000686810F4407084421DD0D9F8000030F4C5
:104FC0004070040034480121016000210160C9F8EB
:104FD0000040E0070FD500F03DFE0600D9F80000C4
:104FE000800708D400F036FE801B41F289318842E8
:104FF000F4D3032045E0D9F8001031F4407168681B
:105000000143C9F800103800C0B2012805D1D8F812
:10501000000030F08050C8F800002878800719D5CB
:10502000A86800280FD0A868B0F5804F0BD0A868FA
:10503000B0F5004F07D0A868B0F5404F03D0B921B4
:105040001148FEF776F915490A6832F44042A8681B
:1050500002430A602878C00612D5E868B0F5800FD0
:1050600007D0E868002804D040F215110648FEF782
:1050700060F90A490A6832F48002E86802430A606B
:105080000020BDE8F2830000AC8A00081C1002403A
:1050900000700040201002404004424204100240D0
:1050A00070B50400002C01D1012048E12068DFF830
:1050B000901288420AD02068DFF88812884205D012
:1050C00040F2CD11DFF88002FEF733F96068002866
:1050D00004D06068DFF87412884205D34FF4E7719A
:1050E000DFF86402FEF725F9A068002809D0A0685F
:1050F000B0F5804F05D040F2CF11DFF84C02FEF73B
:1051000018F9E068800A8002002805D04FF4E871A1
:10511000DFF83402FEF70DF92069B0F5804F09D0B1
:105120002069B0F5404F05D040F2D111DFF81802E8
:10513000FEF7FFF86069002808D06069012805D0F3
:105140004FF4E971DFF80002FEF7F3F8A06930F0E0
:10515000FE00002805D040F2D311DFF8EC01FEF785
:10516000E8F8E069002808D0E069402805D04FF44D
:10517000EA71DFF8D401FEF7DCF8206A002808D0D5
:10518000206A802805D040F2D511DFF8BC01FEF777
:10519000D0F894F83D00002805D1002084F83C00A8
:1051A000200000F002FA242084F83D002068006806
:1051B0004008400021680860FFF722FE0100DFF888
:1051C00090016268824208D2DFF88821914201D2C0
:1051D000012200E00022D2B207E0DFF87C219142F8
:1051E00001D2012200E00022D2B2012A01D1012025
:1051F000A5E0DFF86821B1FBF2F223685B689B0948
:105200009B01134325686B6023681B6A65688542B0
:1052100001D2551C08E04FF4967505FB02F54FF4DA
:105220007A76B5FBF6F56D1C9B099B012B4325682F
:105230002B622368DB696568854214D2481E656865
:105240006D00B0FBF5F0401C0005000D042801D2F4
:1052500004253EE0481E65686D00B0FBF5F56D1C49
:105260002D052D0D35E0A068002809D14D1E66687A
:1052700003204643B5FBF6F0401C0005000D0AE094
:105280004D1E666819204643B5FBF6F0401C00052C
:10529000000D50F48040000501D1012519E0A068FF
:1052A000002809D14D1E666803204643B5FBF6F57C
:1052B0006D1C2D052D0D0AE04D1E66681920464314
:1052C000B5FBF6F56D1C2D052D0D55F4804555F4F7
:1052D0000045DFF88C0003402B432068C361206841
:1052E000036833F0C003E0690343206A0343206886
:1052F000036020688368DFF86C0003402069034383
:10530000E0680343206883602068C3681B0A1B02AF
:10531000A569606905432B432068C3602068006865
:1053200050F001002368186000202064202084F8D9
:105330003D0000202063002084F83E00002070BD66
:1053400000540040005800400C8C0008811A0600F0
:10535000A186010080841E0000093D0040420F002C
:105360000030FFFF007CFFFF38B504000D0020680F
:105370007949884210D02068B0F1804F0CD0206865
:105380007649884208D020687549884204D040F2A6
:1053900064617048FDF7CDFF2868002819D028689F
:1053A000102816D02868202813D02868302810D05C
:1053B000286840280DD0286850280AD0286860281E
:1053C00007D02868702804D040F265616148FDF775
:1053D000B0FF6868802807D06868002804D040F2D1
:1053E00066615C48FDF7A5FF94F83C00012801D1F7
:1053F00002201CE0012084F83C00022084F83D00DB
:10540000206841682068826831F070012868014393
:1054100032F0800268680243206841602068826040
:10542000012084F83D00002084F83C00002032BDBB
:1054300070B504000D00002620684749884204D05A
:1054400040F29E614348FDF774FF2868B0F5006F95
:1054500007D02868002804D040F29F613D48FDF73E
:1054600068FF6868B0F5806F07D06868002804D0CE
:105470004FF4D4613748FDF75CFFA868002810D0CE
:10548000A868B0F5807F0CD0A868B0F5007F08D080
:10549000A868B0F5407F04D040F2A1612D48FDF727
:1054A00048FFE868B0F5807F04D340F2A261294844
:1054B000FDF73FFF2869B0F5805F07D02869002815
:1054C00004D040F2A3612348FDF733FF6869002848
:1054D00008D06869B0F5005F04D040F2A4611D48AF
:1054E000FDF727FFE869B0F5804F07D0E86900288D
:1054F00004D040F2A5611748FDF71BFF94F83C006B
:10550000012801D1022024E0012084F83C00360A61
:105510003602E868064336F44076A868064336F457
:1055200080666868064336F400662868064336F4E9
:1055300080562869064336F400566869064336F4F7
:105540008046E869064320684664002084F83C00F1
:10555000002070BD048B0008002C014000040040B6
:105560000008004080B59548016851F001010160D4
:10557000006810F00100009000989148016851F017
:1055800080510160006810F0805000900098002267
:105590000F217FF0010000F0E0FB8A49086830F03D
:1055A000E06050F00070086001BD18B585B00400DF
:1055B00001A81021FFF70CF820688349884225D103
:1055C0007E48016851F008010160006810F0080091
:1055D000009000984FF44070019012200290032038
:1055E000049001A97948FEF7B7FB7649086850F0A6
:1055F000E06050F0020008607148016851F4001149
:105600000160006810F400100090009806B010BD12
:1056100081B001686E4A91420AD168490A6852F421
:1056200000620A60096811F40061009100991CE0B1
:105630000168B1F1804F0AD161490A6852F0010254
:105640000A60096811F00101009100990DE00168FC
:10565000604A914209D15A490A6852F002020A602E
:10566000096811F002010091009901B0704718B566
:1056700085B0040068461021FEF7AAFF206854494F
:10568000884215D14D48016851F00401016000685D
:1056900010F00400049004984FF440700090022031
:1056A00001900220039069464B48FEF755FB4DE000
:1056B0002068B0F1804F31D14048016851F00401B9
:1056C0000160016811F0040104910499016851F02E
:1056D00008010160006810F008000490049803209D
:1056E0000090022001900220039069463A48FEF79C
:1056F00033FB4FF4406000900220019002200390A1
:1057000069463248FEF728FB2E49086830F440709D
:1057100050F0E06050F40070086017E020682D49F8
:10572000884213D12548016851F0040101600068E6
:1057300010F0040004900498402000900220019092
:105740000220039069462448FEF706FB06B010BD10
:1057500030B585B0040068461021FEF739FF206897
:105760001E49884228D11648016851F40031016071
:10577000006810F40030049004981048016851F05B
:1057800004010160006810F00400049004980420F3
:10579000009002200190032003900F4D69462800DD
:1057A000FEF7DAFA08200090002001900020029015
:1057B00069462800FEF7D0FA05B030BD1810024047
:1057C0001C1002400400014000540040000C014045
:1057D000002C01400004004000080140004400404B
:1057E00010B50400002C01D1012080E0A069002840
:1057F0002AD02068DFF8F81088420FD02068DFF840
:10580000F41088420AD02068DFF8EC10884205D0F6
:105810004FF4A371DFF8E400FDF78BFDA0690028C9
:1058200027D0A069B0F5807F23D0A069B0F5007FB4
:105830001FD0A069B0F5407F1BD040F24711DFF8C0
:10584000BC00FDF776FD14E02068DFF8A410884264
:105850000FD02068DFF89C1088420AD02068DFF85B
:105860009810884205D040F24B11DFF89000FDF708
:1058700060FDA068002809D0A068B0F5805F05D061
:1058800040F24D11DFF87400FDF753FD94F8390034
:10589000002805D1002084F838002000FFF758FFC9
:1058A000242084F839002068C06830F40050216852
:1058B000C860200000F024F82068006930F49040AF
:1058C000216808612068406930F02A002168486139
:1058D0002068C06850F400502168C8600020E06370
:1058E000202084F83900202084F83A00002010BDE0
:1058F0000038014000440040004800405C8B000834
:10590000F8B5040060687049884204D340F6FD3160
:105910006C48FDF70EFDE068002808D0E068B0F59F
:10592000005F04D040F6FE316648FDF702FD2069B5
:1059300000280CD02069B0F5806F08D02069B0F540
:10594000C06F04D040F6FF315E48FDF7F2FC60699D
:105950004FF6F371084202D16069002804D14FF478
:1059600040615848FDF7E5FC2068016931F4405179
:10597000E068014320680161A5682069054360690A
:1059800005432068C1685148014029432068C1602F
:105990002068416931F44071A06901432068416188
:1059A00020684749884245D1FFF735FA642119221A
:1059B00002FB00F36668B600B3FBF6F36426B3FBA4
:1059C000F6F302FB00F66768BF00B6FBF7F602FBD2
:1059D00000F7D4F804C05FEA8C0CB7FBFCF75FF06B
:1059E000640CB7FBFCF701FB1766360132366427FF
:1059F000B6FBF7F616F0F00616EB031602FB00F303
:105A00006768BF00B3FBF7F302FB00F26768BF00F3
:105A1000B2FBF7F26427B2FBF7F201FB1231090186
:105A200032316422B1FBF2F111F00F018E192168BD
:105A30008E6044E0FFF7E4F96421192202FB00F3D1
:105A40006668B600B3FBF6F36426B3FBF6F302FB1D
:105A500000F66768BF00B6FBF7F602FB00F7D4F864
:105A600004C05FEA8C0CB7FBFCF75FF0640CB7FB7B
:105A7000FCF701FB1766360132366427B6FBF7F6F2
:105A800016F0F00616EB031602FB00F36768BF0082
:105A9000B3FBF7F302FB00F26768BF00B2FBF7F25B
:105AA0006427B2FBF7F201FB1231090132316422A3
:105AB000B1FBF2F111F00F018E1921688E60F1BD7A
:105AC000003801405C8B000821AA4400F3E9FFFF85
:105AD00010B5114C00221149200000F0E0FD002813
