:020000040800F2
:1000000088200020A989000861880008638800080A
:1000100065880008678800086988000800000000FB
:100020000000000000000000000000002B6F00082E
:100030006B88000800000000E56E0008E56100081C
:10004000298A00082D8A0008318A0008358A0008AC
:10005000398A00083D8A0008418A0008458A00085C
:10006000498A00084D8A0008518A0008558A00080C
:10007000598A00085D8A0008618A0008658A0008BC
:10008000698A00086D8A0008718A0008758A00086C
:100090006D880008798A00087D8A0008818A000836
:1000A000858A0008898A00088D8A0008918A0008DC
:1000B000958A0008998A0008778800089D8A0008B8
:1000C000A18A0008A58A0008A98A0008AD8A00084C
:1000D000B18A0008B58A0008B98A0008BD8A0008FC
:1000E000C18A0008C58A0008C98A00082DE9F04FB6
:1000F0000FF2A41CA1B0DCE90089CDE900892A9D9A
:10010000DFF8DC9B049100248DF843500D944FF0F0
:10011000FF38824616461F460FE0B3462C461BF8B2
:10012000011B0498D0470028049000F0A2800D988D
:10013000401C641E0D90F2D176193078252808D124
:10014000002100220791089209910A920B910C92CA
:100150000DE06A464146304600F0DAFF050001D165
:100160000D98A1E0D9D50125E6E741F0010116F887
:10017000010F2028F9D023280CD02B2804D02D28BB
:1001800005D0302809D076E041F00201EFE741F0D8
:100190000401ECE741F00801E9E741F01001E6E76E
:1001A0000F9209E00F98484505DA00EB800402EB56
:1001B0004402303A0F92761C3278A2F130000A28BD
:1001C000F0D330782E2818BFCDF8388022D116F819
:1001D000010F2A2807D138683860761C50F8042BA4
:1001E00038600E9216E02D280CBF761C00200022ED
:1001F0000E920AE040B90E9A4A4505DA02EB8204F3
:1002000003EB4403303B0E93761C3378A3F13002AA
:100210000A2AEFD3ADF8401021A0317800F082FF18
:1002200008B116F8010B8DF842009DF842006828CD
:1002300004D1307868280AD1622105E06C2804BF17
:1002400030786C2803D171218DF84210761C12A8E9
:1002500006903A4616F8013B02A9504600F064F8B1
:1002600038B912AA02A9504600F0C8F900287FF553
:1002700064AF404618E02A2892D13A683A6052F8B2
:10028000040B3A6000280F9003D540420F9041F0D4
:100290000401761C95E7000000000000000000004B
:1002A000686A6C747A4C000021B0BDE8F08F622857
:1002B00020D0682811D06A2803D06C2827D0712854
:1002C00025D10868C01D20F007000860D0E9002390
:1002D00008300860194610467047002A0A680A600C
:1002E000106803D0121D0A6000B217E0121D0A60E8
:1002F00080B217E0002A0A680A60106803D0121D55
:100300000A6040B20AE0121D0A60C0B20AE0002A88
:100310000A680A60106803D0121D0A60C11770478E
:10032000121D0A60002170477CB50D4611461C461F
:100330002E69B4F1250200F04F811C3A00F0848050
:10034000121F022A40F280800E3A00F00981521FEB
:1003500059D0093A78D0921E16D0521E35D0521E6E
:10036000022A71D9121F30D0521F00F09880521EFD
:1003700049D0521E00F0E280D21E00F0FF80921E93
:1003800041D0D21E3FD02DE195F83A406C2C09D0D7
:100390006869421C6A610A680A6052F8043B0A6094
:1003A000335429E10A680A6052F8043B0A6000935A
:1003B000002201924FF0FF332B636A46294600F07A
:1003C00098F9002840F1188103E195F83A000122DC
:1003D000FFF76DFFC5E90001002904D56869411CDC
:1003E00069612D220DE0288F810704D56869411CC1
:1003F00069612B2205E0C00721D56869411C69614C
:10040000202232541BE095F83A000022FFF74FFFFC
:10041000C5E9000195F83800010710D5D5E900239A
:10042000002B08BF002A0AD044F02000782806D10B
:10043000686930213154401C421C6A6134542146A1
:1004400068693044E86087E00868C01D20F0070054
:100450000860D0E9002308300860C5E90023D5E929
:100460000001C80F04D06869411C69612D220DE0AC
:10047000288F810704D56869411C69612B2205E03A
:10048000C00704D56869411C69612022325468693B
:100490003044E8602146284600F036FAACE005F129
:1004A0003A02507820B14FF0FF340FF6043074E078
:1004B0001078622808D0682824D06A2812D06C28C6
:1004C0002ED071280ED02BE00A680A6052F8040B77
:1004D0000A6020B94FF0FF340FF6EC205DE0E96AC6
:1004E000017089E00A680A6052F8040B0A6020B9BA
:1004F0004FF0FF340FF6D0204FE0EA6AD317C0E97F
:10050000002379E00A680A6052F8040B0A6020B9F7
:100510004FF0FF340FF6B0203FE0E96A01806BE056
:100520000A680A6052F8040B0A6020B94FF0FF34E1
:100530000FF6942031E0E96A01605DE00A680A6024
:1005400052F8040B0A60002120F0000221F0FF3372
:10055000C5E90023EE607821284600F02DF94BE034
:100560006C2285F83A200B680B6053F8042B0B6063
:1005700052BB4FF0FF340FF684200EE095F83A207E
:100580006C2AF0D00868086050F8044B0860EC60F2
:100590003CB94FF0FF340FF6482000F0EBFD201A75
:1005A00076BD2E6B002E04D5204600F003FE0446D7
:1005B00008E032460021204600F026FE002814BF45
:1005C000041B3446AC6117E0294600F092F800287D
:1005D00012D54FF0FF3076BD6869411C6961252254
:1005E000325409E06969481C68612522725421006F
:1005F00002D0431C6B613454002076BD2DE9F041DC
:100600000E4605469046726B7069316AB46A121ADA
:10061000B069521A716A121AF069521A121A96F8CF
:100620003800141B41070DD4002C0BDD2746B068A1
:100630002021A8470028B06057D0F06A401C7F1ED8
:10064000F062F4D1736942463146284600F098FCC6
:1006500000284AD1376A002F0ADDB0683021A84748
:100660000028B06041D0F06A401C7F1EF062F4D1D7
:10067000B369F2683146284600F082FCA8BB776A6D
:10068000002F09DDB0683021A847B06068B3F06A78
:10069000401C7F1EF062F5D1F068B169F369421821
:1006A0003146284600F06CFCF8B9B76A002F09DD26
:1006B000B0683021A847B060B8B1F06A401C7F1E16
:1006C000F062F5D196F8380041070BD5002C09DD12
:1006D000B0682021A847B06038B1F06A401C641EA1
:1006E000F062F5D10020BDE8F0814FF0FF30BDE8A9
:1006F000F0812DE9F8470D46A3B02F6B002F064679
:10070000904648BF6FF000470FF60C1400F0A8FDAC
:10071000D4E90023696B4018CDE90123812828BF63
:100720004FF0FF3042D20024002F33DDD8F8001004
:1007300001AA684600F0EEFC8146B9F1000F38D4FA
:10074000D8F8000010B9B9F1010932D44F4521DBC6
:100750006869484481280AD30021696303AA2946AD
:100760003046FFF74BFF040014D40020686103AB50
:10077000D5F814A04A46694603EB0A0000F07AFD5A
:10078000CA44C5F814A058F8040B002818BFA7EBFA
:100790000907C9D14CB903AA29463046FFF72EFFF5
:1007A000044614B9002068616863204624B0BDE89F
:1007B000F0874FF0FF34F8E72DE9FC4307466F2937
:1007C0003E6908BF082405D041F02000782814BFF6
:1007D0000A2410243C25D7E90023642918BF69297D
:1007E0009046994605D1002B03D5D8F1000869EB56
:1007F0004909B9F1000F08BFB8F1000F1FD1386BDC
:10080000E8B9082C4CD197F83800010748D53020BA
:100810003B2586F83B0043E000280ED597F83800CA
:1008200000F01400102808D17B6B7969386A5B1AD4
:100830001B1A9A1A002AC8BF3A62BDE8F3838DF8E2
:100840000010404649462246E31700F067FD30326B
:10085000D0B26D1E3A28019504DB9DF80000A0F18E
:1008600051018A187255404649462246E31700F066
:1008700055FD80465FEA010908BFB8F1000F03D0BB
:10088000F86871198842DCD3082C09D197F8380030
:10089000010705D5705D302802D06D1E30207055DF
:1008A000C5F13C02BA617119F960386B8242B3DA62
:1008B000821A3A624FF6EF70398F01403987BDE8EE
:1008C000F3832DE9D04306460F4614464FF0000847
:1008D000DFF8109412E0E00707D542464B46304659
:1008E000394600F033FE06460F464046494642462A
:1008F0004B4600F02BFE641080468946002CEAD15E
:1009000030463946BDE8D0832DE9F84F05468A4682
:100910004AF020048EB0D5E90089612C02AE09D0DE
:10092000286B002848BF062003D408BF672C01D1DC
:1009300001202863D5E900014A005215521C0DD14F
:100940000B030BD0AAF1610103201A29A86102D27E
:100950000FF2CC6110E00FF2CC610DE04A005215AD
:10096000521C0ED10B030CD1AAF1610103201A29EC
:10097000A86116D30FF2B461E868032200F07AFC94
:10098000C0E1CDE90C01DDE90C2323F00043B3F510
:10099000801F0DD20027002B08BF002A019703D12A
:1009A00011E00FF28461E7E701AA00F0A1FE0AE07E
:1009B000CD48CE4900EB1350DDE90C2301900B40EC
:1009C000CB4910461943C5E90001612C0DD1E868F7
:1009D00030210170821CBAF1610FEA600CBF7821EE
:1009E000582141706869801C6861D5E90001CDE932
:1009F0000C01DDE90C2333F0004104BF0028002383
:100A000000F04881612C40F0A080286B4946002806
:100A10004CBF4FF0210B00F1010B40460022002398
:100A2000DDE90C8900F09CFE01990BF1010738BF4C
:100A300089F00049091F002F01918DF808200DF160
:100A4000090040F33581A9490091064640464946D0
:100A50000022002300F09CFE80F029814800400D18
:100A600000F11C0211D0002A0FDD40F2FF739A4200
:100A700005DBA04909F000400143002011E0009B84
:100A8000194041EA025140460BE028F0000039F0DD
:100A9000004108BF00280FBF49461C22494600F00C
:100AA0008FFE8046894600F029FFFF1F002F044675
:100AB00009DD00F041FF02460B464046494600F082
:100AC0004DFF80468946F01D072104E004F00F0227
:100AD00000F8012D2411002C01DD491EF6D5491E18
:100AE0005CBF002200F8012DF9D5DCE0002019469A
:100AF00002AA0A4400E05B1E12F80149491E844222
:100B0000F9D00F2804D10DF10900425C521C425467
:100B1000002904D50198001D02AE5B1C0190581EEF
:100B20000CD43118AAF13A040A783032D7B23A2FED
:100B3000A8BFA218401E01F80129F5D5286B00288E
:100B400040F1A780591E2963A3E001996A4A47F240
:100B50009750414391FBF2F2019229F00046D2F105
:100B6000070204DD40463146FFF7ABFE0AE0524281
:100B700000206249FFF7A5FE02460B46404631467B
:100B800000F05EFF8046662C286B06BF019F0A3787
:100B900006273F18142FC8BF142730208DF80800EF
:100BA00089460DF1090000E03046002F34DD06468D
:100BB0004046494601F068F801460A4606F1080336
:100BC00004200A26B2FBF6F606EB860EA2EB4E02D6
:100BD000303203F8012C0A22B6FBF2F202EB820E4D
:100BE000A6EB4E063036401E03F8026DE9D1083FF1
:100BF000002F03F10806D7DD084601F059F8024638
:100C00000B464046494600F0A9FE00223C4B00F04E
:100C10009DFC80468946CBE70DF10901401A0DF194
:100C2000090604E00199491E401E0191761C3178A5
:100C30003029F7D0662C02D10199491C03E0652CBC
:100C40000CBF012100212B6BCB189842B8BF431E6B
:100C5000002B1ED4834204DAF05C3528A8BF39206B
:100C600000DA30201946721E02EB010800E05B1E1C
:100C700018F80199491E8145F9D0392802D1705CD4
:100C8000401C7054002904D50198401C16465B1C7A
:100C90000190019800B200901BB23246514628469E
:100CA00000F034F82EE0C61D002F3FF7CFAE3046DF
:100CB0000DF10901401A03465845C8BF5B46002B99
:100CC0000DF109063FF53AAF8342BFF60FAF0DF1C4
:100CD0000900C15C07297FF709AF0F2007E7000073
:100CE000CBCCCC0C0000244002FCFFFFFFFF0F80A8
:100CF0000000E03F0000F07FA08601000000F03F10
:100D000084D797410FB0BDE8F08F00002DE9F84778
:100D100083B006468A461746984600F0FDF9B8F1BA
:100D2000000F406A356B90F8009002DC4FF001082C
:100D3000BFA74AF02000BDF93040662808BF641CF8
:100D400015D0672840F0848014F1040FC0F286802B
:100D5000AC4280F2838096F83800641C010702D40C
:100D6000A845B8BF454620B22D1A48BF00250FFA46
:100D700084FAF068B169BAF1000F25DC4A1C30230F
:100D80004354002D03DC96F83800010703D5F068C2
:100D900000F80290521C15EB0A0FB8BF6C4220B24B
:100DA000441941424445B8BFA046B26171620FFA8E
:100DB00088F5F561F068B3692A463946184400F0B1
:100DC00059FA641BB462C4E022B29045084417DAB1
:100DD0004246394600F04EFAB0694044B061AAEB91
:100DE0000801002D716203DC96F838100A0705D55A
:100DF000F16801F80090F069401CF061B562A8E06C
:100E0000394600F037FAB069002D5044A8EB0408C9
:100E100003DC96F838100A0703D5F16801F8009052
:100E2000401CB0610FFA88F08542F368B069B8BF22
:100E3000A8460FFA88F207EB0A01184400F01AFAE4
:100E4000B1690FFA88F00144B161281A706280E03C
:100E5000BAF1610F14D14FF0700A16E0A84504DA18
:100E600096F838100A0758BF45466D1E48BF002542
:100E7000BAF1670F14BF4FF0450A4FF0650A04E05E
:100E8000BAF1410F08BF4FF0500AB169F368481C2E
:100E9000B061002D17F8012B5A5403DC96F8381076
:100EA0000A071BD5F168431CB36101F80090002DBF
:100EB00014DDA8F101080FFA88F039468542F76879
:100EC000B8BFA8460FFA88F2F81800F0D3F9B06955
:100ED0000FFA88F108446D1AB0617562F068B16963
:100EE0000844002C80F800A003D42B224270811CFF
:100EF00003E02D2141706442811C00206A460AE013
:100F000023460A2493FBF4F404EB8405A3EB450386
:100F100002F8013B401C24B2002CF1DC012806DC65
:100F20004AF02002652A04BF302201F8012B48B99B
:100F3000302001F8010B07E0401E1DF8003030336F
:100F400001F8013B0028F7DCF268B0691044091A87
:100F5000F16196F8380000F0140010280DD1726984
:100F6000B169706A8A18F1698218B06A8A188218A1
:100F7000706B8242BCBF821A326204B0BDE8F08757
:100F8000F8B505460E4617461C46002074B117F802
:100F9000011BB068A847B06030B1F06A401CF06235
:100FA0000020641EF3D1F2BD4FF0FF30F2BD00000F
:100FB0007072696E74665F733A20256E206469737F
:100FC000616C6C6F776564007072696E74663A204C
:100FD00062616420256E20617267756D656E7400B4
:100FE0007072696E74665F733A2062616420257363
:100FF00020617267756D656E740000007072696EB5
:1010000074665F733A2062616420256C732061729C
:1010100067756D656E740000000000000000000040
:101020006E616E004E414E00696E6600494E46008C
:101030003000F0B40246106895681318506803EB4E
:101040005004C0071DD54D441BE013F8017B05F883
:10105000017B491EF9D1A0B1B60813F8011B06F0B7
:101060000306032E08BF13F8016B01EB062149426A
:10107000801C294405D011F8016B05F8016B401E56
:10108000F9D1A3420ED013F8016B16F0030104BF8F
:1010900013F8011BC91C30090F28DAD113F8010B12
:1010A0000F30D6E7F0BC02F10C0070471B487047C8
:1010B00070B45368D418042B09DA41B1057804F8E8
:1010C000015B10F8016B16B15B1C491EF3E753601E
:1010D00070BC704738B514461D4661B1FFF7E8FF94
:1010E00061686A6B204690476FF00102811A02D056
:1010F000491E01D001E003E005E00021616032BD3E
:101100006FF0010032BD4FF0FF3032BDDA6B104797
:10111000024BDFE7014BF9E701487047B4010020BB
:101120007C010020C9B202788A421AB11CBF10F8B3
:10113000012FF9E718BF0020704730B4002513E0F5
:1011400050F8042BD30744BFA9F101039A18091FD3
:10115000042942F8045BFAD213468C0744BF158079
:101160009B1CC90748BF1D7050F8041B0029E7D11C
:1011700030BC704780B500B906A005490B681BB1AB
:1011800022220021984701E000F09FFD222002BDAD
:10119000801D0020636F6E73747261696E742068C5
:1011A000616E646C65723A20626164206D65737370
:1011B0006167650000F10103810704D010F8011B8D
:1011C000820781B1FAD10268A2F10131914311F095
:1011D000803104BF50F8042FF6E709BAB1FA81F163
:1011E00000EBD100401CC01A7047B1F5807F02D3DC
:1011F0004FF0FF3070470170012070470078401EAB
:101200008041C043C00F7047C9B2830706D0521E49
:1012100022D310F8013B9942F7D11FE0083A13D3CB
:1012200002F1040241EA012141EA014150F8043B84
:10123000121F21BF4B40A3F1013C2CEA030C1CF010
:10124000803FF3D0C9B2001F083210F8013B521E94
:1012500028BF91EA030FF8D818BF0120401E70473D
:1012600080B5FFF723FF006C02BD0268531C0360CA
:101270001170704762B38B0708D0521E11F8013B02
:1012800000F8013B00F024808B07F6D1830740F083
:10129000208000BF103A07D330B4B1E83810103ABC
:1012A000A0E83810F9D230BC530724BFB1E80810C9
:1012B000A0E8081044BF51F8043B40F8043BD207B3
:1012C00024BF31F8022B20F8022B44BF0B780370A7
:1012D0007047121F17D35B0009D151F8043B20F867
:1012E000023B1B0C121F20F8023BF6D20BE051F818
:1012F000043B00F8013B1B0A20F8023B1B0C121FA9
:1013000000F8013BF3D238BF121D521E24BF11F862
:10131000013B00F8013BF8D870470102BBBBE1B1CB
:10132000B2F5803F80F07E80022A1ED98C46B1FB48
:10133000F2F102FB11C31B0443EA1043B3FBF2FCBE
:1013400002FB1C3380B240EA0343B3FBF2F002FB22
:10135000103240EA0C4000237047022A05D9844627
:10136000B0FBF2F002FB10C270474AB105D100F0A9
:10137000010249085FEA30007047002200237047ED
:1013800000F0A6BC0B000200002100207047904234
:1013900071EB030CF6D3B3F5803F2FD2F0B5B3FA5F
:1013A00083F7B1FA81F4A7F10F0E3D1B5340CEF144
:1013B000200602FA0EF2F3415340B5F10F0746D86A
:1013C0000F3C2C444140C4F12006A040F141414073
:1013D000B1FBF3F603FB1611A2FB0645001BA94166
:1013E00002D2761E8018594180EA010221FA0EF3DA
:1013F00062FA0EF200215A403046F0BD30B4B1FB23
:10140000F3FC03FB1C11A2FB0C45001BA94103D2FA
:10141000ACF1010C8018594130BC02460B466046C5
:1014200000217047B2F1807F65D3F0B5B2FA82F740
:10143000B1FA81F4C7F10F063D1B22FA06F307F15A
:10144000110EF24120355A40B5F10F07B8D941408D
:10145000C4F12006A040F1414140B1FBF3FC03FB85
:101460001C11A2FB0C45001BA94103D2BCF1010CCD
:10147000801859410F2F12D30F3FC90341EA504141
:10148000B1FBF3F603FB1611A2FB0645D4EBC0300B
:10149000A94102D2761E8018594146EACC3C07B3D6
:1014A0004140C7F12006B840F1414140B1FBF3F69D
:1014B00003FB1611A2FB0645001BA94102D2761EB2
:1014C0008018594180EA010221FA0EF3C7F1200485
:1014D00062FA0EF20CFA07F05A402CFA04F130438B
:1014E000F0BD80EA010221FA0EF3002162FA0EF249
:1014F00060465A40F0BD8C46B1FBF2F102FB11C3CD
:101500001B0243EA1063B3FBF2FC02FB1C331B0219
:101510004CEA002043EA1063B3FBF2FC02FB1C33ED
:101520001B024CEA002043EA1063B3FBF2FC02FB0F
:101530001C331B024CEA002043EA1063B3FBF2FCAD
:1015400002FB1C324CEA002000237047B0B581EA50
:10155000030C0CF0004C40F2FF7515EA11541DBF4E
:1015600015EA1357AC42AF4239E0E41923EA455378
:1015700043F48013C90241F0004141EA505EC702C2
:101580001100A7FB020200284FF00000EEFB012033
:101590004FF00001E3FB072118BF42F001024018A1
:1015A00000214941E3FB0E01A4F580640F0302D240
:1015B00052004041494154F101046CDD470872F189
:1015C000004250F1000051EB0451A1F580115CBFC5
:1015D00041EA0C01B0BD4CEA05510020B0BD05EA5E
:1015E0001357AC4214BFAF4241E050EA410E1CBF5A
:1015F00052EA430E02E061460020B0BD24423C4462
:101600001BD15FEA070EF6D0090302BF0146002096
:10161000AEF1140EB1FA81F7AEEB070401FA07FE42
:101620000C37C7F1200100FA07F7C8404EEA000E58
:1016300023EA455343F48013A2E733F00043B3FA9F
:1016400083F704BFB2FA82FE77440B3FE41BB7F185
:10165000200E2FBF02FA0EF3BB40C7F1200E22FA74
:101660000EFE38BF43EA0E03BA40641C82E750EA1C
:10167000410E14BF52EA430E6FF000014FF4001701
:1016800017EB430F8ABF194617EB410FB5E74CEA3A
:1016900005510020B0BDD4F10104B4F120070FDAE8
:1016A000C4F12007520828BF42F0010210FA07F5E2
:1016B00001FA07F7E1BF2A43E0403843E1400FE079
:1016C000352C98DCC7F1200452EA400220FA07F2D8
:1016D00018BF42F0010231FA07F0A1400A4300218D
:1016E00072F1004250F1000051EB0C01B0BD00005E
:1016F00010B5144600F002F8226010BDC1F30A5381
:1017000043B14A0012F5001F28D2A3F2FE32A1EB2A
:101710000251704750EA410C20D001F0004C31EAF0
:101720000C01B1FA81F204BFB0FA80F3D2180B3A7F
:10173000B2F120032CBF00FA03F1914041EA0C0101
:101740003EBFC2F1200C20FA0CF3194390405242E4
:1017500040F2FD33D21A01EB03517047002270476B
:101760004FF4001C1CEB410F94BF1CEB430F09E02E
:1017700041EA030C50EA4C0C52EA0C0C03D2994299
:1017800008BF9042704714BF8B42824270470000EE
:101790004FF4001C1CEB410F94BF1CEB430F09E0FE
:1017A00041EA030C50EA4C0C52EA0C0C03D28B4277
:1017B00008BF8242704714BF9942904270470000B0
:1017C000124254D440F2FF7C1CEA11530FD06345FF
:1017D00031D09B1863453CBF01EB0251704701F0CB
:1017E000004141EA0C510020AFF30080704750EAFD
:1017F000410320D001F0004C91EA0C011CD0B1FA59
:1018000081F30B3B9A420DD9D21A994051EA0C014F
:10181000C3F1200C20FA0CFC61449840531C40F2A8
:10182000FF7CD7E7914041EA0C01C2F1200C20FA7D
:101830000CF3194390407047B0FA80F31533202B16
:10184000E0D3202AEED3203A203B9A4209D9D21A7B
:1018500000FA03F141EA0C010020531C40F2FF7C26
:10186000B8E700FA02F141EA0C0100207047524249
:1018700040F2FF7C1CEA11530DD06345DBD0B2EB84
:10188000030C3CBFA1EB025170470CF1010221EAAD
:10189000035141F4801150EA410CCCD001F0004CCE
:1018A000352A27DC30B481EA0C01B2F1200309DAD1
:1018B000C2F12003044601FA03F5D0402843D14089
:1018C0009C400CE0C3F12002450020FA03F418BF4D
:1018D00044F0010421FA03F091400C43002174F11B
:1018E000004550F1000051EB0C01244230BC7FF464
:1018F0007BAF70476146002076E70000C1F30A53D2
:1019000040F2FE329B1A14DDD3F120034FEAE1725C
:1019100008DDC90241EA505141F00040D84080182A
:101920005040704703F2E13010B1D24382F00040E2
:101930007047002070470000C11768B14840401A46
:10194000B0FA80F29040D21CC907C2F5846241EA25
:10195000025202EBD02140057047000070B44FF0F6
:10196000004591EA030F40F1B5816B40841A71EB99
:10197000030603D2001BB141121973414FF4001C3E
:101980001CEB410F34BF7CEB430442E00C0DA4EB95
:101990001356352E4FDC45EAC323DB0A45EAC12145
:1019A000C912B6F120050DDD63FA05F6EB4086EAB3
:1019B0000305124218BF45F00105C01851F100019E
:1019C0000CD213E062FA06F5F2405540F3415A405A
:1019D000B340F3405A408018594107D349085FEAA1
:1019E00030005FEA350528BF45F0010501F580119B
:1019F000420875F1004250F1000041EB04514E00E5
:101A000016F5001F70BC38BF70470020090D09058E
:101A100070471CEB410F10D252EA43060BD0BCEBCF
:101A2000410F05D80C0DAB43661E342EB6DD02E027
:101A3000AB438018594170BC704770BC70470000C0
:101A4000F0B540F2FF7581EA030C0CF0004C15EA8A
:101A500011541DBF15EA1357AC42AF42E5E0BC413B
:101A6000C1F31301C3F31303801A994143F48013A4
:101A700004D2641E4000494180185941C90241EA1C
:101A80005051B1FBF3F603FB1611A2FB0675D7EB21
:101A9000C020A94102D2761E80185941C90241EAEC
:101AA0005051B1FBF3FE03FB1E11A2FB0E75D7EBE9
:101AB000C020A94103D2AEF1010E8018594189021C
:101AC00041EA9051760546EA8E2EB1FBF3F603FB10
:101AD0001611A2FB0675D7EB8020A94102D2761E13
:101AE00080185941C90241EA50514EEA060EB1FB35
:101AF000F3F603FB1611A2FB0675D7EBC020A94134
:101B000002D2761E80185941C90241EA5051B1FBF8
:101B1000F3F703FB1711A2FB0735D3EBC020A94154
:101B200067F100070CBF004247F0010766F3D527B5
:101B30004FEA1E31B80814F5806412DDBD0775F157
:101B4000004250EB0E5051EB045111F5801F5CBF69
:101B500041EA0C01F0BD4CF07F6141F0E041002012
:101B6000F0BDBD076D0840EA0E5041F48011D4F17C
:101B70000104B4F120060ADAC4F120060200E040B4
:101B800001FA06F3E1401843B24015430EE0342C4D
:101B900013DCC6F1200445EA40056D0820FA06F280
:101BA000154321FA06F0A1400D43002175F10042D2
:101BB00050F1000051EB0C01F0BD00205FEA0C0178
:101BC000F0BDCFB992185B41B3FA83F704BFB2FA04
:101BD00082F6BF190B3FB7F120062FBF02FA06F3BA
:101BE000BB40C7F1200622FA06F638BF3343BA409D
:101BF0001CB1E419641E33E77F4231F00041B1FAB1
:101C000081F404BFB0FA80F6A4190B3CB4F12006AD
:101C10002FBF00FA06F1A140C4F1200620FA06F613
:101C200038BF3143A0403C1B1AE7AC421ABF05EA5B
:101C30001357AF4212E050EA41061CBF52EA430676
:101C4000BFE750EA4107304661461CBF41EA0551F3
:101C5000F0BD52EA430C08BFC143F0BD00204FF471
:101C6000001616EB410F98BF16EB430F08BF16EB9B
:101C7000410F24BFC14305E016EB430F0CBF614683
:101C80004CEA0551F0BD0000400D491840EA8120A2
:101C90000CD2490DA1F58061491C40F0004005DBE4
:101CA000D1F11F0154BFC840C017704700207047D2
:101CB000014648B1B0FA80F18840C91CC1F5846181
:101CC000090501EBD02140057047012000F0B8B8AC
:101CD00070470000841A71EB030604D26E40001BAB
:101CE000B141121973414FF4001C1CEB410F34BF7A
:101CF0007CEB430683E00C0DA4EB1356362E00F369
:101D00007C80012E45EAC32341DC43EA525312BFD3
:101D1000D20292025B08240545EAC12141EA5051F2
:101D2000D2EBC020994125D407D1B0FA80F610FA41
:101D300006F162D00020203608E0B1FA81F6B14009
:101D4000C6F1200220FA02F21143B0404FEAF474C7
:101D5000B4EB465434F001064FEA74040AD8D6F5C1
:101D60000016760D04F00044F04061FA06F250408F
:101D7000F1404840C00A40EA415021F0004128BFEC
:101D80005FEA500550F1000044EBD12135E0DB0A59
:101D900045EAC121C90AB6F120050EDD42EA024238
:101DA000120CC5F1200603FA06F6EB4042EA0605DE
:101DB0006D42984161F100010DE062FA06F5F240D2
:101DC000554063FA06FC82EA0C02F3405A406D4229
:101DD000904161EB030111F4801F05D1641E62057F
:101DE00002D06D004041494121F48011430875F152
:101DF000004350F1000041EB045170BC70471CEBF4
:101E0000410F15D223F0004352EA43060BD04FEAAC
:101E10004C0CBCEB410F04D80C0D661E342EB7DD04
:101E2000EBE7801A994150EA410608BF0021E4E738
:101E300008BF1CEB430F28BF6FF00001DDE7000077
:101E400080B5AFF30080024A11001820ABBEFBE75B
:101E50002600020010B50400002C01D101205FE033
:101E60002068DFF8EC11884213D02068B0F1804F71
:101E70000FD02068DFF8DC1188420AD02068DFF834
:101E8000D811884205D04FF48971DFF8D00101F0F4
:101E900064F8A068002811D0A06810280ED0A068AF
:101EA00020280BD0A068402808D0A068602805D062
:101EB00040F21311DFF8A40101F04FF82069002867
:101EC0000DD02069B0F5807F09D02069B0F5007F82
:101ED00005D04FF48A71DFF8840101F03EF8A06963
:101EE000002808D0A069802805D040F21511DFF83D
:101EF0006C0101F032F894F83D00002805D1002073
:101F000084F83C00200000F03DFD022084F83D00F4
:101F1000211D206800F0B4FB012084F83D00002062
:101F200010BD10B504002068DFF82411884213D0DA
:101F30002068B0F1804F0FD02068DFF81811884278
:101F40000AD02068DFF81011884205D040F2B9119C
:101F5000DFF8D40101F001F82068C06850F00100FA
:101F60002168C8602068816811F00701062905D042
:101F70002068006850F0010022681060002010BD49
:101F800010B50400002C01D101205FE02068DFF8CB
:101F9000C010884213D02068B0F1804F0FD0206865
:101FA000DFF8B01088420AD02068DFF8AC10884211
:101FB00005D040F25E21DFF8700100F0CEFFA0688E
:101FC000002811D0A06810280ED0A06820280BD0BF
:101FD000A068402808D0A068602805D040F25F21A2
:101FE000DFF8440100F0B9FF206900280DD0206916
:101FF000B0F5807F09D02069B0F5007F05D04FF49F
:102000001871DFF8240100F0A8FFA069002808D0AB
:10201000A069802805D040F26121DFF80C0100F0B2
:102020009CFF94F83D00002805D1002084F83C0076
:10203000200000F093FF022084F83D00211D20685D
:1020400000F01EFB012084F83D00002010BD0000C0
:10205000002C01400004004000080040D087000828
:1020600010B50400002C01D101205BE02068DFF8EE
:10207000BC10884212D02068B0F1804F0ED020688A
:10208000DFF8AC10884209D02068DFF8A810884239
:1020900004D040F29B41244800F05FFFA068002874
:1020A00010D0A06810280DD0A06820280AD0A06801
:1020B000402807D0A068602804D040F29C411A480C
:1020C00000F04BFF206900280CD02069B0F5807F1C
:1020D00008D02069B0F5007F04D040F29D4112483D
:1020E00000F03BFFA069002807D0A069802804D039
:1020F00040F29E410C4800F030FF94F83D0000286B
:1021000005D1002084F83C00200000F077FF022079
:1021100084F83D00211D206800F0B2FA012084F807
:102120003D00002010BD0000D0870008002C0140B9
:10213000000400400008004010B504002068006959
:1021400080071AD52068C068800716D57FF0020086
:1021500021680861012020772068806910F0030F52
:1021600003D0200001F032F805E0200001F02FF844
:10217000200001F02DF8002020772068006940073A
:102180001AD52068C068400716D57FF00400216882
:102190000861022020772068806910F4407F03D016
:1021A000200001F013F805E0200001F010F82000F5
:1021B00001F00EF8002020772068006900071AD58A
:1021C0002068C068000716D57FF008002168086104
:1021D000042020772068C06910F0030F03D020008E
:1021E00000F0F4FF05E0200000F0F1FF200000F017
:1021F000EFFF0020207720680069C0061AD520680C
:10220000C068C00616D57FF010002168086108205C
:1022100020772068C06910F4407F03D0200000F0D0
:10222000D5FF05E0200000F0D2FF200000F0D0FF35
:102230000020207720680069C0070AD52068C068A0
:10224000C00706D57FF0010021680861200000F07A
:1022500038FE2068006900060AD52068C0680006BC
:1022600006D57FF0800021680861200000F0B1FFF2
:102270002068006940060AD52068C068400606D577
:102280007FF0400021680861200000F0A3FF206873
:10229000006980060AD52068C068800606D57FF0F0
:1022A000200021680861200000F095FF10BD70B586
:1022B00005000E001400002C0CD0042C0AD0082CB1
:1022C00008D00C2C06D03C2C04D040F63A515A4889
:1022D00000F043FE3068002813D03068102810D07A
:1022E000306820280DD0306830280AD03068502857
:1022F00007D03068402804D040F63B514E4800F0EB
:102300002CFEB068002807D0B068022804D040F640
:102310003C51494800F021FE95F83C00012801D1CC
:10232000022086E0012085F83C00022085F83D006F
:102330002000002806D0042820D008283AD00C28F5
:1023400054D06FE02868DFF82813884211D028683D
:10235000B0F1804F0DD02868DFF81813884208D0FC
:1023600028683449884204D040F64851324800F089
:10237000F4FD3100286800F0BAF953E02868DFF86E
:10238000F012884211D02868B0F1804F0DD0286833
:10239000DFF8E012884208D028682649884204D035
:1023A00040F65251244800F0D8FD3100286800F072
:1023B000F5F937E02868DFF8B812884211D02868AC
:1023C000B0F1804F0DD02868DFF8A812884208D0FD
:1023D00028681849884204D040F65C51164800F03D
:1023E000BCFD3100286800F033FA1BE02868DFF8F4
:1023F0008012884211D02868B0F1804F0DD0286833
:10240000DFF87012884208D028680A49884204D050
:1024100040F66651084800F0A0FD3100286800F041
:1024200073FAFFE7012085F83D00002085F83C00A5
:10243000002070BD00080040D087000870B505007E
:102440000E001400002C0DD0042C0BD0082C09D049
:102450000C2C07D03C2C05D040F6EB51DFF81C02C9
:1024600000F07BFD3068602808D03068702805D007
:1024700040F6EC51DFF8040200F06FFDB068002870
:1024800008D0B068022805D040F6ED51DFF8EC0125
:1024900000F063FD3069002808D03069042805D0B9
:1024A00040F6EE51DFF8D40100F057FD95F83C00FE
:1024B000012801D10220D9E0012085F83C0002204A
:1024C00085F83D002000002807D0042835D00828D2
:1024D00064D00C2800F09280C1E02868DFF89011E9
:1024E000884213D02868B0F1804F0FD02868DFF8F9
:1024F000841188420AD02868DFF87C11884205D010
:1025000040F6FA51DFF8740100F027FD3100286829
:1025100000F0EDF82868806950F0080029688861AB
:102520002868806930F0040029688861286881691A
:10253000306901432868816191E02868DFF8301133
:10254000884213D02868B0F1804F0FD02868DFF898
:10255000241188420AD02868DFF81C11884205D06F
:1025600040F60B61DFF8140100F0F7FC3100286839
:1025700000F014F92868806950F4006029688861C7
:102580002868806930F480602968886128688069DB
:10259000316950EA01202968886160E02868DFF825
:1025A000D010884213D02868B0F1804F0FD028682F
:1025B000DFF8C01088420AD02868DFF8BC108842D3
:1025C00005D040F61C61DFF8B40000F0C6FC310015
:1025D000286800F03DF92868C06950F008002968B3
:1025E000C8612868C06930F004002968C86128689B
:1025F000C169306901432868C16130E02868DFF8AB
:102600007010884213D02868B0F1804F0FD028682E
:10261000DFF8601088420AD02868DFF85C10884232
:1026200005D040F62D61DFF8540000F096FC310033
:10263000286800F069F92868C06950F400602968CA
:10264000C8612868C06930F480602968C86128685A
:10265000C069316950EA01202968C861FFE701209B
:1026600085F83D00002085F83C00002070BD00008A
:10267000002C01400004004000080040D087000802
:1026800010B40368DFF8F042A0420AD0B0F1804FE6
:1026900007D0DFF8E822904203D0DFF8E42290422E
:1026A00003D133F070034A681343A0420AD0B0F15B
:1026B000804F07D0DFF8C422904203D0DFF8C02259
:1026C000904203D133F44073CA68134333F080035C
:1026D0004A69134303608A68C2620A688262A04240
:1026E00001D10A6902630122426110BC70472DE9E1
:1026F000F84304000D00206A400840002062276A69
:10270000D4F80480A66936F07006B608B6002868CA
:10271000064337F00207A8680743DFF85C924C4590
:1027200010D1E868002807D0E868082804D041F2F2
:102730000171904800F011FC37F00807E868074382
:1027400037F004074C4521D1A869B0F5007F07D0C8
:10275000A869002804D041F20E71864800F0FDFB04
:102760006869B0F5807F07D06869002804D041F21D
:102770000F71804800F0F1FB38F4807838F400786D
:10278000686950EA0808A86950EA0808C4F8048093
:10279000A661686860632762BDE8F1832DE9F843AC
:1027A00004000D00206A30F010002062D4F8208070
:1027B0006668A76937F4E04737F44077286857EA36
:1027C000002738F02008A86858EA0018DFF8A89118
:1027D0004C4511D1E868002807D0E868082804D0E3
:1027E00041F24C71634800F0B8FB38F08008E868AB
:1027F00058EA001838F040084C4521D1A869B0F5D6
:10280000007F07D0A869002804D041F25A715948C6
:1028100000F0A3FB6869B0F5807F07D068690028E5
:1028200004D041F25B71534800F097FB36F48066A8
:1028300036F40066686956EA8006A86956EA80069A
:102840006660A7616868A063C4F82080BDE8F18372
:102850002DE9F84304000D00206A30F480702062F6
:10286000266A6768D4F81C8038F070085FEA980818
:102870005FEA8808286850EA080836F40076A868F5
:1028800056EA0026DFF8F0904C4511D1E8680028A0
:1028900007D0E868082804D041F29771354800F065
:1028A0005CFB36F40066E86856EA002636F480667B
:1028B0004C4521D1A869B0F5007F07D0A869002850
:1028C00004D041F2A4712B4800F047FB6869B0F5D1
:1028D000807F07D06869002804D041F2A57125489F
:1028E00000F03BFB37F4805737F40057686957EA2C
:1028F0000017A86957EA00176760C4F81C80686869
:10290000E0632662BDE8F1832DE9F04104000D008B
:10291000206A30F480502062D4F820806668E7692D
:1029200037F4E04737F44077286857EA002738F44F
:102930000058A86858EA0038DFF83C00844210D1FB
:102940006869B0F5807F07D06869002804D041F23B
:10295000E371084800F001FB36F48046686956EAE6
:1029600080166660E76168682064C4F82080BDE86E
:10297000F0810000D0870008002C014000040040D6
:10298000000800407047000080B58EB000F024FCC5
:1029900000F029F800F0BCF900F06AF800F087F8C0
:1029A00000F0FEF800F059F900F098F907A8DFF8F8
:1029B00024151C22FEF76EFC002107A800F02EFC57
:1029C000DFF8141508606846DFF810151C22FEF7C2
:1029D00061FC0021684600F021FCDFF80415086066
:1029E00000F017FCFEE700B593B009A8282100F01D
:1029F00053FC6846142100F04FFC05A8102100F09C
:102A00004BFC012009905FF480300A9000210B916B
:102A100001210D910221109111905FF4801012900C
:102A200009A800F03DFC002801D000F095FA0F2025
:102A3000009002200190002002904FF480600390EB
:102A4000002004900121684600F0E0FE002801D03B
:102A500000F082FA102005905FF48000089005A82D
:102A600001F0AEF8002801D000F076FA13B000BDF6
:102A700080B5DFF87004DFF870140160DFF86C14C3
:102A80004160002181600021C1604FF480410161FB
:102A900000214161002181610021C16100210162A9
:102AA00001F062F9002801D000F056FA01BD18B516
:102AB00091B0DFF83C04D0E90023CDE9002302A85F
:102AC0001C2100F0E9FB09A8202100F0E5FBDFF85C
:102AD0002444DFF824042060002060600020A0600F
:102AE0000020E06000202061002060610020A061E3
:102AF0002000FFF7B5FA002801D000F02DFA2000E1
:102B0000FFF73EFA002801D000F026FA00200090DE
:102B1000002001906946200001F08AFA002801D0C7
:102B200000F01AFA60200290002003900020049028
:102B300000200590002006900020079000200890BB
:102B4000002202A92000FFF779FC002801D000F044
:102B500003FA00200290042202A92000FFF7A7FB3D
:102B6000002801D000F0F8F90020099000200A9018
:102B700000200B9000200C9000200D904FF400508E
:102B80000E900020109009A9200001F0B5FA00284D
:102B900001D000F0E1F9200000F05FFA12B010BDA2
:102BA00018B589B0D548D0E90023CDE9002302A8A3
:102BB0001C2100F071FBD24C5FF0804020600020AF
:102BC00060600020A0600020E06000202061002004
:102BD000A0612000FFF744FA002801D000F0BCF902
:102BE00000200090002001906946200001F020FAAA
:102BF000002801D000F0B0F960200290002003907E
:102C00000020049000200690002202A92000FFF777
:102C100015FC002801D000F09FF9042202A9200031
:102C2000FFF70CFC002801D000F096F9082202A959
:102C30002000FFF703FC002801D000F08DF90C22E2
:102C400002A92000FFF7FAFB002801D000F084F968
:102C5000200000F002FA0AB010BD18B589B0A948EA
:102C6000D0E90023CDE9002302A81C2100F014FBC9
:102C7000A54CA6482060002060600020A0600020D5
:102C8000E060002020610020A0612000FFF7E8F94B
:102C9000002801D000F060F9002000900020019091
:102CA0006946200001F0C4F9002801D000F054F971
:102CB00060200290002003900020049000200690E5
:102CC000002202A92000FFF7B9FB002801D000F084
:102CD00043F9200000F0C1F90AB010BD80B58C485E
:102CE0008C4901605FF4E131416000218160002185
:102CF000C160002101610C2141610021816100213D
:102D0000C16101F093FA002801D000F025F901BD5E
:102D100078B585B06846102100F0BEFA7E4801689B
:102D200051F010010160016811F010010491049943
:102D3000016851F020010160016811F02001049147
:102D40000499016851F004010160016811F0040167
:102D500004910499016851F008010160006810F0C5
:102D60000800049004986D4E00224FF4005130008A
:102D700001F0ACFD6A4C00224FF47041200001F0DC
:102D8000A5FD684D00224FF48061280001F09EFDF2
:102D90004FF400500090012001900020029002208A
:102DA00003906946300001F0B9FB4FF47040009089
:102DB000012001900020029002200390694620002B
:102DC00001F0ACFB4FF480600090012001900020E6
:102DD0000290022003906946280001F09FFB06B094
:102DE00070BD02000020010089B2515C002901D0B1
:102DF000401CF8E780B27047F8B5040001F0CAFD46
:102E00000025494E307801282FD1484A10784B28A8
:102E100017D15078412814D190784C2811D1D0780E
:102E20000D280ED1424F4349380001F0DFFD380034
:102E3000FFF7D7FF0500290089B2380001F047FEEF
:102E40000DE03B4F3C49380001F0D0FD3800FFF762
:102E5000C8FF0500290089B2380001F038FE01F0F2
:102E60005BFE364908600020307001F055FE344AA0
:102E700032490968401A1060324801681368994263
:102E800001D211680160106840F2E931884208D32C
:102E900000202D49086000202C49086000202C49A2
:102EA00008704FF47A7000F0E9F94FF400511B48B4
:102EB00001F033FDA5E710B50400012000F0DEF9B4
:102EC000FBE710B5040020682249884201D101F0D7
:102ED00029FE10BD04890008201D0020208900085B
:102EE000241D0020301A002000540040A08601005C
:102EF000F4890008841A0020002C0140FC89000895
:102F0000C41A0020048A0008041B002000040040AA
:102F1000441B0020004400401810024000100140F3
:102F2000000C014000080140851D0020841B00208A
:102F3000841C0020C4890008D0890008281D0020B6
:102F40002C1D0020301D0020341D0020381D0020C5
:102F5000841D002000080040704770477047000043
:102F600080B59148016851F001010160006810F0DE
:102F70000100009000988D48016851F08051016077
:102F8000006810F080500090009800220F217FF020
:102F9000010001F044FE8649086830F0E06050F01E
:102FA0000070086001BD18B585B0040001A81021AB
:102FB00000F072F920687F4988421DD17A48016883
:102FC00051F008010160006810F0080000900098BE
:102FD000C0200190122002900320049001A976489D
:102FE00001F09CFA7148016851F400110160006819
:102FF00010F400100090009806B010BD81B0016878
:103000006E4A91420AD168490A6852F400620A6025
:10301000096811F40061009100991CE00168B1F1A8
:10302000804F0AD161490A6852F001020A600968BA
:1030300011F00101009100990DE00168604A914290
:1030400009D15A490A6852F002020A60096811F06F
:1030500002010091009901B0704718B585B00400D5
:103060006846102100F018F920685449884215D1AB
:103070004D48016851F004010160006810F004003F
:10308000049004984FF440700090022001900220B8
:10309000039069464B4801F041FA4DE02068B0F1D9
:1030A000804F31D14048016851F00401016001684E
:1030B00011F0040104910499016851F008010160C4
:1030C000006810F00800049004980320009002208B
:1030D00001900220039069463A4801F01FFA4FF42C
:1030E000406000900220019002200390694632481F
:1030F00001F014FA2E49086830F4407050F0E06096
:1031000050F40070086017E020682D49884213D100
:103110002548016851F004010160006810F00400C6
:103120000490049840200090022001900220039017
:103130006946244801F0F2F906B010BD30B585B0FB
:1031400004006846102100F0A7F820681E49884254
:1031500028D11648016851F400310160006810F46C
:103160000030049004981048016851F00401016097
:10317000006810F0040004900498042000900220DD
:103180000190032003900F4D6946280001F0C6F915
:10319000082000900020019000200290694628003D
:1031A00001F0BCF905B030BD181002401C100240FF
:1031B0000400014000540040000C0140002C01407C
:1031C0000004004000080140004400407047704780
:1031D000704770477047704780B50748016851F0E5
:1031E00010010160032001F006FD002001F054FDF4
:1031F000FFF7B6FE002002BD0020024001000020C3
:103200000A0012B2842A03D00A0012B2D21C10188B
:10321000704780B501F0ECFE002002BD38B584B0E7
:1032200004000D006069002813D0A069002810D0A8
:10323000B4F90800FFF7E2FFA16902916169019109
:1032400000902B0022692168606801F06FFD0390F7
:1032500011E0B4F90800FFF7D1FF03A90191009034
:103260002B00226992B22168606801F0ADFD01284F
:1032700001D0002000E0039805B030BD38B505004E
:103280000120B5FBF0F4002C01D0200000E001206B
:1032900001F087FE002032BD002202F043B9000099
:1032A0002DE9FC470400002C01D10120ACE220688C
:1032B000002809D0207810F00F0F05D140F26711D7
:1032C000DFF8C808FFF749FE2078C0077CD56068A2
:1032D00000280DD06068B0F5803F09D06068B0F577
:1032E000A02F05D040F26D11DFF8A008FFF735FEE2
:1032F000DFF85C08016811F00C01042907D00168AF
:1033000011F00C0108290CD10068C00309D5DFF8C1
:103310003C080068800357D56068002854D101201C
:1033200072E26068B0F5803F06D1DFF820080168DE
:1033300051F48031016026E0606800280AD1DFF88E
:103340000C08016831F480310160016831F480219A
:10335000016018E06068B0F5A02F0AD1DFF8EC0733
:10336000016851F480210160016851F480310160ED
:1033700009E0DFF8D807016831F4803101600168A5
:1033800031F480210160606800280ED001F0C4FB98
:103390000500DFF8B8070068800315D401F0BCFB16
:1033A000401B6528F5D303202EE201F0B5FB050094
:1033B000DFF898070068800306D501F0ADFB401BDD
:1033C0006528F5D303201FE22078800765D52069A2
:1033D000002808D02069012805D040F2A111DFF8AB
:1033E000AC07FFF7BAFD6069202805D34FF4D1710F
:1033F000DFF89807FFF7B1FDDFF85407016811F017
:103400000C0F07D0016811F00C01082914D10068D5
:10341000C00311D4DFF834070168890704D5216996
:10342000012901D00120EFE1016831F0F801626962
:1034300051EAC201016030E0206900281AD0012061
:10344000DFF84C17086001F067FB0500DFF8FC06A9
:103450000168890706D401F05FFB401B0328F5D300
:103460000320D1E1016831F0F801626951EAC2013B
:10347000016012E00020DFF81817086001F04CFB33
:103480000500DFF8C8060068800706D501F044FB98
:10349000401B0328F5D30320B6E12078000738D578
:1034A000A069002808D0A069012805D04FF4F17167
:1034B000DFF8D806FFF751FDA069002816D00120DB
:1034C000DFF8D016086001F027FB0500DFF8B8062A
:1034D0000068800706D401F01FFB401B0328F5D3CA
:1034E000032091E1012000F035FB12E00020DFF81D
:1034F000A416086001F010FB0500DFF88C060068D8
:10350000800706D501F008FB401B0328F5D30320F4
:103510007AE12078400740F19D800027E06800288C
:103520000BD0E068012808D0E068052805D040F2FB
:103530001121DFF85806FFF710FDDFF85C86D8F898
:103540000000C0000DD4D8F8000050F08050C8F83A
:103550000000D8F8000010F0805000900098012082
:103560000700DFF83896D9F80000C00513D4D9F861
:10357000000050F48070C9F8000001F0CDFA050099
:10358000D9F80000C00506D401F0C6FA401B652832
:10359000F6D3032038E1E068012806D1DFF8000601
:1035A000016851F00101016025E0E06800280AD1BE
:1035B000DFF8EC050168490849000160016831F055
:1035C0000401016017E0E06805280AD1DFF8D005A2
:1035D000016851F004010160016851F001010160CE
:1035E00009E0DFF8BC05016849084900016001688D
:1035F00031F004010160E068002810D001F08CFA7D
:103600000500DFF89C050068800719D401F084FAF2
:10361000401B41F289318842F3D30320F4E001F0EA
:103620007BFA0500DFF878050068800708D501F00F
:1036300073FA401B41F289318842F3D30320E3E05F
:103640003800C0B2012805D1D8F8000030F0805011
:10365000C8F80000E06900280BD0E069012808D014
:10366000E069022805D040F2AF21DFF82005FFF71E
:1036700074FCE069002800F0C680DFF8D474386874
:1036800010F00C00082800F0AB80E069022840F040
:103690009480206A002809D0206AB0F5803F05D0C8
:1036A0004FF42E71DFF8E404FFF757FC606A00283E
:1036B0003DD0606AB0F5802F39D0606AB0F5002F38
:1036C00035D0606AB0F5402F31D0606AB0F5801F08
:1036D0002DD0606AB0F5A01F29D0606AB0F5C01F78
:1036E00025D0606AB0F5E01F21D0606AB0F5001FF8
:1036F0001DD0606AB0F5101F19D0606AB0F5201FA8
:1037000015D0606AB0F5301F11D0606AB0F5401F67
:103710000DD0606AB0F5501F09D0606AB0F5601F27
:1037200005D040F2B921DFF86404FFF716FCDFF89A
:1037300074A40020CAF8000001F0EEF98046DFF81A
:103740000C94D9F80000800107D501F0E5F9B0EB41
:1037500008000328F3D3032056E0206AB0F5803F29
:1037600012D1A068002809D0A068B0F5003F05D0AC
:1037700040F2CF21DFF81404FFF7EFFB396831F492
:103780000031A06801433960396831F47411206A4E
:103790000143606A014339600120CAF8000001F06A
:1037A000BBF90500D9F8000080012CD401F0B4F970
:1037B000401B0328F6D3032026E00020DFF8E413A3
:1037C000086001F0A9F90500DFF8800300688001B6
:1037D00019D501F0A1F9401B0328F5D3032013E00C
:1037E000E069012801D101200EE03868060016F4D6
:1037F0008030216A884204D116F47010616A8842D0
:1038000001D0012000E00020BDE8F6872DE9F0415D
:1038100004000D00002C01D1012018E1207810F0E7
:103820000F0F05D14FF44E71DFF86003FFF795FBE2
:10383000002D09D0012D07D0022D05D040F23931DD
:10384000DFF84803FFF789FBDFF85C73386810F096
:103850000700A8420BD23868C008C000284338606F
:10386000386810F00700A84201D00120EFE020786E
:1038700080073AD52078400705D5DFF8D4020168E3
:1038800051F4E06101602078000705D5DFF8C0023F
:10389000016851F460510160A06800281DD0A06843
:1038A00080281AD0A068902817D0A068A02814D02B
:1038B000A068B02811D0A068C0280ED0A068D02879
:1038C0000BD0A068E02808D0A068F02805D040F20E
:1038D0005F31DFF8B802FFF740FBDFF874120A68C7
:1038E00032F0F002A06802430A602078C00747D592
:1038F000606800280BD06068012808D06068022842
:1039000005D040F26631DFF88402FFF726FB6068DD
:10391000012806D1DFF834020068800312D40120A8
:1039200095E06068022806D1DFF820020068800177
:1039300008D401208BE0DFF814020068800701D46E
:10394000012084E0DFF80882D8F800108908890097
:1039500060680143C8F8001001F0DEF80600D8F8EE
:10396000000010F00C006168B0EB810F08D001F08E
:10397000D3F8801B41F289318842F0D3032066E0FE
:10398000386810F0070085420BD23868C008C000C4
:1039900028433860386810F00700A84201D00120A1
:1039A00055E0207840071FD5E068002815D0E06872
:1039B000B0F5806F11D0E068B0F5A06F0DD0E06871
:1039C000B0F5C06F09D0E068B0F5E06F05D04FF4F6
:1039D0006971DFF8B801FFF7C0FA5D490A6832F48F
:1039E000E062E06802430A60207800071FD5206982
:1039F000002814D02069B0F5806F10D02069B0F590
:103A0000A06F0CD02069B0F5C06F08D02069B0F568
:103A1000E06F04D040F2AB315C48FFF79EFA4C48AF
:103A2000016831F46051226951EAC201016000F07D
:103A300010F85E49464A1268C2F30312895CC84016
:103A40004F4908604F48006801F026F90020BDE8A2
:103A5000F081F0B585B001A855491022FDF71AFC98
:103A600054480088ADF80000002000210022002307
:103A70000025374E346814F00C07042F02D0082FAD
:103A800002D01BE03D481AE001A8C4F38347C05DA3
:103A90000300E0030CD568463668C6F34046805DF7
:103AA0000100364800FB03F0B0FBF1F0020003E038
:103AB000414800FB03F00200100000E02F4805B071
:103AC000F0BD2F480068704780B5FFF7FAFF3B490B
:103AD0001F4A1268C2F30222895CC84002BD80B549
:103AE000FFF7EFFF35491A4A1268C2F3C222895C18
:103AF000C84002BD38B504000D00002C04D140F2CE
:103B000023512248FFF729FA002D04D140F2245115
:103B10001E48FFF722FA0F2020600D48016811F0BF
:103B200003016160016811F0F001A160016811F406
:103B3000E061E1600068C00810F4E06020611A48AC
:103B4000006810F00700286031BD0000001002403E
:103B50000410024081B00A490968C9084FF47A721A
:103B6000B1FBF2F101FB00F1009100BF00994A1E88
:103B700000920029F9D101B07047000000127A00CC
:103B8000080000200400002024100240888700085C
:103B900000004242800442421C100240007000407B
:103BA0002010024060004242002002408889000844
:103BB000788900081A13000800093D000C8A0008E3
:103BC0002DE9F843050000260024287810F0130F93
:103BD00003D16C215E48FFF7C0F92878C00740F197
:103BE0008080686800280FD06868B0F5807F0BD0AF
:103BF0006868B0F5007F07D06868B0F5407F03D0F3
:103C000072215348FFF7A9F90027DFF84881D8F857
:103C10000000C0000DD4D8F8000050F08050C8F863
:103C20000000D8F8000010F08050009000980120AB
:103C30000700DFF82491D9F80000C00513D4D9F8A3
:103C4000000050F48070C9F8000000F065FF060025
:103C5000D9F80000C00506D400F05EFF801B65287F
:103C6000F6D3032071E0DFF8F490D9F8000010F4E7
:103C700040700400002C22D0686810F44070844228
:103C80001DD0D9F8000030F4407004003448012100
:103C9000016000210160C9F80040E0070FD500F085
:103CA0003BFF0600D9F80000800708D400F034FF7D
:103CB000801B41F289318842F4D3032045E0D9F8D2
:103CC000001031F4407168680143C9F800103800F1
:103CD000C0B2012805D1D8F8000030F08050C8F8F3
:103CE00000002878800719D5A86800280FD0A86898
:103CF000B0F5804F0BD0A868B0F5004F07D0A8688A
:103D0000B0F5404F03D0B9211148FFF726F9154906
:103D10000A6832F44042A86802430A602878C00664
:103D200012D5E868B0F5800F07D0E868002804D005
:103D300040F215110648FFF710F90A490A6832F4F3
:103D40008002E86802430A600020BDE8F2830000B8
:103D5000188600081C10024000700040201002402D
:103D6000400442420410024070B50400002C01D10E
:103D7000012048E12068DFF8901288420AD02068CC
:103D8000DFF88812884205D040F2CD11DFF88002BA
:103D9000FFF7E3F86068002804D06068DFF8741269
:103DA000884205D34FF4E771DFF86402FFF7D5F8D6
:103DB000A068002809D0A068B0F5804F05D040F277
:103DC000CF11DFF84C02FFF7C8F8E068800A8002E4
:103DD000002805D04FF4E871DFF83402FFF7BDF892
:103DE0002069B0F5804F09D02069B0F5404F05D06B
:103DF00040F2D111DFF81802FFF7AFF86069002830
:103E000008D06069012805D04FF4E971DFF800029D
:103E1000FFF7A3F8A06930F0FE00002805D040F2BB
:103E2000D311DFF8EC01FFF798F8E069002808D01B
:103E3000E069402805D04FF4EA71DFF8D401FFF7BC
:103E40008CF8206A002808D0206A802805D040F22B
:103E5000D511DFF8BC01FFF780F894F83D00002889
:103E600005D1002084F83C002000FFF79CF82420B6
:103E700084F83D0020680068400840002168086020
:103E8000FFF722FE0100DFF890016268824208D24B
:103E9000DFF88821914201D2012200E00022D2B253
:103EA00007E0DFF87C21914201D2012200E00022EC
:103EB000D2B2012A01D10120A5E0DFF86821B1FBCF
:103EC000F2F223685B689B099B01134325686B60D2
:103ED00023681B6A6568854201D2551C08E04FF4CF
:103EE000967505FB02F54FF47A76B5FBF6F56D1C79
:103EF0009B099B012B4325682B622368DB6965685E
:103F0000854214D2481E65686D00B0FBF5F0401C78
:103F10000005000D042801D204253EE0481E656816
:103F20006D00B0FBF5F56D1C2D052D0D35E0A0687D
:103F3000002809D14D1E666803204643B5FBF6F004
:103F4000401C0005000D0AE04D1E6668192046431E
:103F5000B5FBF6F0401C0005000D50F48040000554
:103F600001D1012519E0A068002809D14D1E66681D
:103F700003204643B5FBF6F56D1C2D052D0D0AE01B
:103F80004D1E666819204643B5FBF6F56D1C2D05E0
:103F90002D0D55F4804555F40045DFF88C000340A5
:103FA0002B432068C3612068036833F0C003E069D5
:103FB0000343206A03432068036020688368DFF8B6
:103FC0006C00034020690343E0680343206883607A
:103FD0002068C3681B0A1B02A569606905432B435F
:103FE0002068C3602068006850F0010023681860F2
:103FF00000202064202084F83D0000202063002061
:1040000084F83E00002070BD00540040005800407D
:10401000F8860008811A0600A186010080841E002F
:1040200000093D0040420F000030FFFF007CFFFF11
:1040300038B504000D0020687949884210D0206806
:10404000B0F1804F0CD020687649884208D02068B3
:104050007549884204D040F264617048FEF77DFFE4
:104060002868002819D02868102816D02868202829
:1040700013D02868302810D0286840280DD0286830
:1040800050280AD02868602807D02868702804D0F3
:1040900040F265616148FEF760FF6868802807D0DC
:1040A0006868002804D040F266615C48FEF755FF5E
:1040B00094F83C00012801D102201CE0012084F882
:1040C0003C00022084F83D00206841682068826836
:1040D00031F070012868014332F0800268680243C1
:1040E0002068416020688260012084F83D00002043
:1040F00084F83C00002032BD70B504000D0000269D
:1041000020684749884204D040F29E614348FEF748
:1041100024FF2868B0F5006F07D02868002804D075
:1041200040F29F613D48FEF718FF6868B0F5806F68
:1041300007D06868002804D04FF4D4613748FEF7F0
:104140000CFFA868002810D0A868B0F5807F0CD0BC
:10415000A868B0F5007F08D0A868B0F5407F04D00B
:1041600040F2A1612D48FEF7F8FEE868B0F5807FC7
:1041700004D340F2A2612948FEF7EFFE2869B0F5AA
:10418000805F07D02869002804D040F2A36123484B
:10419000FEF7E3FE6869002808D06869B0F5005FA3
:1041A00004D040F2A4611D48FEF7D7FEE869B0F5DF
:1041B000804F07D0E869002804D040F2A561174875
:1041C000FEF7CBFE94F83C00012801D1022024E048
:1041D000012084F83C00360A3602E868064336F4CB
:1041E0004076A868064336F480666868064336F46D
:1041F00000662868064336F480562869064336F47C
:1042000000566869064336F48046E869064320682C
:104210004664002084F83C00002070BD64860008DD
:10422000002C0140000400400008004010B50400CC
:10423000002C01D1012080E0A06900282AD020684C
:10424000DFF8F81088420FD02068DFF8F4108842B9
:104250000AD02068DFF8EC10884205D04FF4A37133
:10426000DFF8E400FEF779FEA069002827D0A069F6
:10427000B0F5807F23D0A069B0F5007F1FD0A06982
:10428000B0F5407F1BD040F24711DFF8BC00FEF7CD
:1042900064FE14E02068DFF8A41088420FD0206884
:1042A000DFF89C1088420AD02068DFF89810884216
:1042B00005D040F24B11DFF89000FEF74EFEA068EB
:1042C000002809D0A068B0F5805F05D040F24D11FC
:1042D000DFF87400FEF741FE94F83900002805D19C
:1042E000002084F838002000FEF728FF242084F8FE
:1042F00039002068C06830F400502168C860200090
:1043000000F024F82068006930F4904021680861CA
:104310002068406930F02A00216848612068C06840
:1043200050F400502168C8600020E063202084F829
:104330003900202084F83A00002010BD00380140E8
:10434000004400400048004018880008F8B5040008
:1043500060687049884204D340F6FD316C48FEF72E
:10436000FCFDE068002808D0E068B0F5005F04D0EC
:1043700040F6FE316648FEF7F0FD206900280CD0BB
:104380002069B0F5806F08D02069B0F5C06F04D007
:1043900040F6FF315E48FEF7E0FD60694FF6F371CD
:1043A000084202D16069002804D14FF440615848A6
:1043B000FEF7D3FD2068016931F44051E068014304
:1043C00020680161A568206905436069054320688C
:1043D000C1685148014029432068C1602068416993
:1043E00031F44071A0690143206841612068474968
:1043F000884245D1FFF773FB6421192202FB00F3C9
:104400006668B600B3FBF6F36426B3FBF6F302FB73
:1044100000F66768BF00B6FBF7F602FB00F7D4F8BA
:1044200004C05FEA8C0CB7FBFCF75FF0640CB7FBD1
:10443000FCF701FB1766360132366427B6FBF7F648
:1044400016F0F00616EB031602FB00F36768BF00D8
:10445000B3FBF7F302FB00F26768BF00B2FBF7F2B1
:104460006427B2FBF7F201FB1231090132316422F9
:10447000B1FBF2F111F00F018E1921688E6044E05A
:10448000FFF722FB6421192202FB00F36668B600E5
:10449000B3FBF6F36426B3FBF6F302FB00F66768A2
:1044A000BF00B6FBF7F602FB00F7D4F804C05FEAE2
:1044B0008C0CB7FBFCF75FF0640CB7FBFCF701FB5F
:1044C0001766360132366427B6FBF7F616F0F006AB
:1044D00016EB031602FB00F36768BF00B3FBF7F3AC
:1044E00002FB00F26768BF00B2FBF7F26427B2FB81
:1044F000F7F201FB1231090132316422B1FBF2F112
:1045000011F00F018E1921688E60F1BD0038014055
:104510001888000821AA4400F3E9FFFF2DE9FE4FA7
:10452000070088465FF000095FF0000ADFF81CB45E
:104530005F4514D0DFF81804874210D0DFF8140468
:1045400087420CD0DFF81004874208D0DFF80C0453
:10455000874204D0BD21DFF80804FEF7FEFCD8F83E
:104560000000000405D0D8F80000000C000400286A
:1045700004D0BE21DFF8E803FEF7EFFCD8F8040012
:1045800000283CD0D8F80400012838D0D8F804001E
:10459000112834D0D8F80400022830D0D8F804000C
:1045A00012282CD0D8F80400DFF8B813884226D09F
:1045B000D8F80400DFF8B013884220D0D8F80400FF
:1045C000DFF8A81388421AD0D8F80400DFF8A01347
:1045D000884214D0D8F80400DFF8981388420ED02F
:1045E000D8F80400DFF89013884208D0D8F8040007
:1045F000032804D0BF21DFF86803FEF7AEFCD8F82B
:10460000000030FA09F0002800F05E81012010FA65
:1046100009F00090D8F80010009801400C000098B4
:10462000844240F04E815F4514D0DFF82403874276
:1046300010D0DFF8200387420CD0DFF81C0387423C
:1046400008D0DFF81803874204D0CD21DFF810032B
:10465000FEF783FCD8F8040000287AD0012821D086
:1046600002284AD0032800F09A8011282FD012285F
:1046700059D0DFF8F01288426BD0DFF8F41288428C
:1046800067D0DFF8E412884263D0DFF8E81288428E
:104690005FD0DFF8D81288425BD0DFF8DC128842A6
:1046A00057D07FE0D8F80C0002280CD0D8F80C00C6
:1046B000012808D0D8F80C00032804D0D521DFF851
:1046C000A002FEF74AFCD8F80C0082466AE0D8F84F
:1046D0000C0002280CD0D8F80C00012808D0D8F81B
:1046E0000C00032804D0DC21DFF87402FEF735FC4F
:1046F000D8F80C00001D824654E0D8F80C000228BF
:104700000CD0D8F80C00012808D0D8F80C000328E9
:1047100004D0E321DFF84802FEF71FFCD8F80C00B4
:10472000083082463EE0D8F80C0002280CD0D8F8B9
:104730000C00012808D0D8F80C00032804D0EA2186
:10474000DFF81C02FEF709FCD8F80C000C3082469A
:1047500028E0D8F8080000280CD0D8F80800012874
:1047600008D0D8F80800022804D0F721DFF8F001BB
:10477000FEF7F3FBD8F80800002802D10420824697
:104780000CE0D8F80800012804D1082082460098DF
:10479000386103E0082082460098786102E000203A
:1047A0008246FFE7B4F5807F01D2019701E0381D12
:1047B0000190B4F5807F02D25FEA890602E0B9F188
:1047C0000806B6000F210198026811FA06F082432C
:1047D0001AFA06F0024301980260D8F80400C000FB
:1047E0006FD5DFF89801026852F00102026000689C
:1047F00010F0010002900298DFF8842148468008FA
:1048000052F8203019F00300C0B2800081408B4381
:104810005F4501D1002112E0DFF83401874201D168
:1048200001210CE0DFF82C01874201D1022106E0D2
:10483000DFF82401874201D1032100E004211D009B
:1048400019F00300C0B2800081400D434846800843
:1048500042F82050D8F80400C00305D5DFF8240141
:1048600001682143016004E0DFF818010168A143F9
:104870000160D8F80400800305D5DFF80C01016859
:104880002143016003E040480168A1430160D8F87A
:104890000400C00204D53D4801682143016003E0E3
:1048A0003A480168A1430160D8F80400800204D5A9
:1048B000374801682143016003E035480168A1439E
:1048C000016019F101099AE6BDE8F78F70B504009F
:1048D0000E001500300080B2002804D14FF4EA71B8
:1048E0001F48FEF73AFB2800C0B2002808D0280075
:1048F000C0B2012804D040F2D5111948FEF72DFBB3
:104900002800C0B2002803D0300080B2206103E04C
:10491000300080B20004206170BD38B504000D0085
:10492000280080B2002804D14FF4F5710C48FEF73E
:1049300014FBE068290089B2084203D0280080B245
:10494000606102E0280080B2206131BD00080140B2
:10495000000C01400010014000140140001801400B
:10496000B086000800001110000021100000311076
:104970000000121000002210000032101810024037
:104980000800014000040140040401400804014003
:104990000C04014010B5114C00221149200000F018
:1049A000DAFD002801D0FEF7D7FA0E49200000F00A
:1049B000EEFD002801D0FEF7CFFA0B49200001F0F0
:1049C00023F9002801D0FEF7C7FA200000F0EAFD25
:1049D000002801D0FEF7C0FA10BD00BF000E002075
:1049E0002C010020180000201C0100200CB430B560
:1049F00083B00A4606A90291044600250194009559
:104A000002AB01A9084878441E30FBF76FFB019AFE
:104A1000157000284EBF04460198041B204603B0C1
:104A200030BC5DF80CFB00BF43C8FFFF10B5354C30
:104A300000223549200001F0F1F83449200001F04E
:104A4000FAF8002010BD0020704703001800C0B223
:104A5000002810D001280FD002280ED003280DD036
:104A600004280CD020280BD021280AD0222809D0D5
:104A7000232808D008E007E006E005E004E003E0B2
:104A800002E001E000E0FFE7002070472DE9F84375
:104A900004000D001B4E2100300001F0CCF8300066
:104AA00001F0F1F840260027DFF86480C1463A00A3
:104AB0003100484601F006F92A682100404601F01D
:104AC00035F90120134908700020BDE8F2832DE973
:104AD000F04104000D0000260A4FD7F8B882D8F83C
:104AE0001402002801D0012009E02A0092B221001E
:104AF000380001F093F8380001F0A4F8C0B2BDE826
:104B0000F0810000000E0020441C0020041C002046
:104B1000841B0020851D002001480068704700BFED
:104B2000401D002003490A680348007882180A6083
:104B3000704700BF401D0020FC01002010B410F0A1
:104B40000703DFF83C4122684FF6FF010A40DFF817
:104B5000341151EA03210A43226010BC7047DFF888
:104B600020010068C0F302207047010049B200290B
:104B70000AD4012210F01F018A40DFF80C11030053
:104B80005BB25B0941F82320704710B4020052B2B7
:104B9000002A05D40A013D4B040064B21A5508E00E
:104BA0000A013B4B040064B214F00F04234403F8E1
:104BB000042C10BC704770B4030013F00704D4F148
:104BC0000700052801D3042001E0D4F10700251DCA
:104BD000072D01D2002500E0E51E012616FA00F09F
:104BE000401E0140A94016FA05F56D1E2A401143EA
:104BF000080070BC704710B50400072C0BD0062CC1
:104C000009D0052C07D0042C05D0032C03D0922109
:104C10002048FEF7A2F92000FFF790FF10BD2DE914
:104C2000F04104000D0016000027102E03D3AA2126
:104C30001848FEF792F9102D03D3AB211548FEF763
:104C40008CF9FFF78CFF8046320029004046FFF7C1
:104C5000B2FF0100200040B2FFF797FFBDE8F081EE
:104C600010B50400200040B2002803D5BE21094839
:104C7000FEF773F9200040B2FFF777FF10BD000088
:104C80000CED00E00000FA0500E100E000E400E0C7
:104C900018ED00E0CC8500082DE9F04387B0040052
:104CA00000250026002221001E20FFF7B8FF1E204D
:104CB000FFF7D6FF1948016851F004010160006850
:104CC00010F004000090009801A902A8FEF712FF5E
:104CD000FEF7FAFE47001248B7FBF0F8B8F10108FA
:104CE000DFF840901048C9F8000040F2E730C9F8FA
:104CF0000C00C9F804800020C9F810000020C9F891
:104D000008004846FDF7A6F8002803D14846FDF7FD
:104D100008F900E0012007B0BDE8F0831C10024054
:104D200040420F00C41B0020000800402DE9F04F56
:104D300085B006000F0090469946DDF838A00F9C1C
:104D4000109D002C07D1502080F31188BFF34F8FA6
:104D5000BFF36F8FFEE7002D07D1502080F311883D
:104D6000BFF34F8FBFF36F8FFEE754200090009882
:104D7000542807D0502080F31188BFF34F8FBFF322
:104D80006F8FFEE7002D19D0002C17D0AB46CBF863
:104D9000304002208BF8510000200390CDF808B07D
:104DA00004A80190CDF800A04B46424639003000DF
:104DB00000F047F8584600F0A7F801E00020049002
:104DC000049805B0BDE8F08F2DE9F84F84B00600D7
:104DD0000F0090469946DDF838A0DDF83CB040461B
:104DE00080B2800000F0DAFF0500002D0BD05420C7
:104DF00000F0D4FF0400002C01D0256304E028005B
:104E000001F05CF800E00024002C15D0002084F8AC
:104E10005100002003900294CDF804B0CDF800A01A
:104E20004B46424692B23900300000F00AF82000AA
:104E300000F06AF8012001E05FF0FF3005B0BDE846
:104E4000F08F2DE9F84F05000E0017009846DDF8A9
:104E500028900B9CDDF830A0DAF8300000EB8700DA
:104E6000001FC008C0000090009810F0070F07D086
:104E7000502080F31188BFF34F8FBFF36F8FFEE791
:104E80005FF0000BBBF1100F0CD216F80B000AEB11
:104E90000B0181F8340016F80B00002802D01BF13A
:104EA000010BEFE700208AF84300B9F1070F01D3A7
:104EB00006208146CAF82C90CAF844900020CAF80F
:104EC00048001AF1040001F0B2F81AF1180001F0DC
:104ED000AEF8CAF810A0D9F10700CAF81800CAF84D
:104EE00024A00020CAF84C0000208AF85000424656
:104EF0002900009801F0DAF8CAF80000002C01D06F
:104F0000C4F800A0BDE8F18F38B5040001F03AF90B
:104F1000DFF8DC130868401C0860DFF8D853286805
:104F2000002806D12C60086801280DD100F0FEF998
:104F30000AE0DFF8C4030068002805D1E06A2968A8
:104F4000C96A884200D32C60DFF8B0030168491CAD
:104F50000160DFF8AC130A680123E06A83401A435A
:104F60000A60211DDFF89C23E36A1420434302EB0F
:104F7000030001F05FF801F01FF9DFF87C0300681F
:104F800000280DD02868C06AE16A884208D25FF024
:104F90008050DFF8A4140860BFF34F8FBFF36F8F0A
:104FA00031BD38B505000024002D15D0DFF81404FC
:104FB0000068002807D0502080F31188BFF34F8F7E
:104FC000BFF36F8FFEE700F05BF80021280000F0D0
:104FD0004DFA00F05BF80400002C08D15FF080501F
:104FE000DFF858140860BFF34F8FBFF36F8F31BDE8
:104FF00010B586B0002004900020039005AA03A9F4
:1050000004A801F029F9DFF84044049802900398BD
:105010000190002000900023059ADFF830140FF271
:10502000E920FFF783FE20602068002801D00124DA
:1050300000E00024012C16D1502080F31188BFF32A
:105040004F8FBFF36F8F5FF0FF30DFF804140860FD
:105050000120DFF8A41208600020DFF8F8130860D0
:1050600001F049F80AE014F1010F07D1502080F354
:105070001188BFF34F8FBFF36F8FFEE706B010BDEF
:10508000DFF840030168491C01607047F8B500254E
:105090000026DFF830432068002807D1502080F335
:1050A0001188BFF34F8FBFF36F8FFEE701F06AF8EF
:1050B0002068401E20602068002857D1DFF83002A9
:1050C0000068002852D0DFF87C130868002827D039
:1050D000C868C068050015F1180000F0D2FF281D4F
:1050E00000F0CFFFDFF818120A680123E86A834056
:1050F0001A430A60291DDFF80C22EB6A142043438F
:1051000002EB030000F096FFE86ADFF8E811096897
:10511000C96A8842D7D30120DFF840130860D2E77C
:10512000002D01D000F072F9DFF82C733C68002CE0
:105130000CD000F01FF8002803D00120DFF81C136A
:105140000860641E002CF4D100203860DFF80C03E6
:10515000006800280AD0012006005FF08050DFF8C8
:10516000DC120860BFF34F8FBFF36F8F01F024F89C
:105170003000F2BD2DE9F0410027DFF84802006859
:1051800000286ED1DFF8CC020468641C0460002C97
:105190001CD1DFF8CC1208680068002807D0502026
:1051A00080F31188BFF34F8FBFF36F8FFEE7D1F805
:1051B0000080DFF8B00202680A60C0F80080DFF803
:1051C000A8020168491C016000F020F9DFF8808224
:1051D000D8F80000844238D3DFF8841208680068E9
:1051E000002804D15FF0FF30C8F800002DE0086807
:1051F000C068C068050068680600B44202D2C8F8FA
:10520000006022E0281D00F03CFFA86A002803D0BF
:1052100015F1180000F035FF39490A680123E86AE2
:1052200083401A430A60291D364AEB6A142043431F
:1052300002EB030000F0FEFEE86A2E490968C96A25
:105240008842C9D301200700C6E72A4800682D49D3
:10525000C26A142042438858022807D3012007005D
:1052600004E0DFF8F4010168491C0160DFF8EC019B
:105270000068002801D0012007003800BDE8F08157
:10528000DFF840010068002804D00120DFF8CC11CD
:1052900008602BE00020DFF8C4110860184800689F
:1052A000B0FA80F1D1F11F011422164B02FB01F07C
:1052B0001858002807D1502080F31188BFF34F8F72
:1052C000BFF36F8FFEE702FB01F203EB02004268BF
:1052D00052684260426810F108039A4202D1426863
:1052E000526842604068C068024A1060704700001F
:1052F000541D0020441D0020601D0020701D002052
:105300005C1D00205019002010B5040000F03AF890
:10531000DFF8E40100680228F8D35FF080504749C5
:105320000860BFF34F8FBFF36F8FEFE770B50024B6
:10533000072C09D2DFF8C001142101FB04F1084455
:1053400000F066FE641CF3E7DFF8B051280000F0BF
:105350005FFEDFF8AC61300000F05AFEDFF8E400D9
:1053600000F056FE064800F053FE354800F050FEAF
:10537000DFF8EC000560DFF88C01066070BD00000E
:10538000E01C002038B5DFF880512868002817D0CD
:1053900000F0F8FEDFF87401C068C0680400201D4A
:1053A00000F06FFEDFF868010168491E016028689F
:1053B000401E286000F000FF200000F005F8E2E742
:1053C00031BD00007C1D002010B5040094F8510090
:1053D000002806D1206B00F071FD200000F06EFD6A
:1053E00013E094F85100012803D1200000F066FD7D
:1053F0000BE094F85100022807D0502080F3118868
:10540000BFF34F8FBFF36F8FFEE710BDDFF8502063
:1054100010680068002805D15FF0FF30DFF8302009
:10542000106007E01068C068C06801004868DFF8D5
:10543000202010607047000004ED00E004ED00E063
:10544000F41C0020CC1C0020781D0020148A0008C9
:10545000741D0020581D0020641D0020681D0020C0
:10546000481D00204C1D00206C1D00202DE9F0413E
:1054700005000C001F480768DFF87480D8F80000AA
:10548000001D00F0FEFD002808D1D8F800002149D9
:105490000A680123C06A83409A430A6015F1010F2C
:1054A00008D1002C06D0D8F80000011D1A4800F0E1
:1054B000C1FD1AE0E8190600D8F800004660BE42B7
:1054C00007D2D8F80000011D0E48006800F0BEFDAC
:1054D0000BE0D8F80000011D1048006800F0B6FD90
:1054E0000F4801688E4200D20660BDE8F0810000DE
:1054F000441D0020581D002050190020A41C00202D
:10550000B81C00204C1D0020501D0020E01C002075
:10551000541D00205C1D0020F41C0020481D0020AC
:10552000741D002000B500BF130096469446103944
:1055300028BFA0E80C50FAD85FEA417C28BF0CC015
:1055400048BF40F8042BC90728BF20F8022B48BFEA
:1055500000F8012B00BD70B505000C001600002DF1
:1055600001D1022012E0D5F8B402002802D00020B8
:10557000C5F8B402002C01D0C5F8B042012085F86E
:105580009C022E70280000F0E6FE002070BD020094
:105590000023002903D0C2F8B412002000E002204A
:1055A000C0B2704710B50400200000F014FF0020C6
:1055B00010BD01000020704770B504000D000226E8
:1055C000D4F8B40200280AD02900C9B22000D4F8C7
:1055D000B42212689047002801D100200600300054
:1055E000C0B270BD38B504000D002900C9B220005A
:1055F000D4F8B42252689047002032BD38B5040078
:105600000D00290014F52A7001F0B9FB0120C4F83F
:105610009402B4F8AE02C4F8980294F8A80210F00C
:105620001F00002803D002280DD006D311E014F586
:105630002A71200000F0CCFF12E014F52A7120003E
:1056400001F019F80CE014F52A71200001F04AF875
:1056500006E094F8A81211F08001200000F0FBFE93
:10566000002032BDF8B504000F0015003800C0B2AC
:10567000002839D114F5AA700600D4F89402032842
:1056800026D13069F168884210D2F1683069091A70
:10569000F160F0683169884201D2F26800E0326955
:1056A00092B22900200001F0F6FB30E0D4F8B402F9
:1056B0000069002808D094F89C02032804D1200037
:1056C000D4F8B41209698847200001F0F1FB1EE00C
:1056D000D4F8940205281AD10020C4F894020021BD
:1056E000200000F0B8FE12E0D4F8B402806900286F
:1056F0000BD094F89C02032807D13900C9B22000CE
:10570000D4F8B4229269904701E0022000E0002022
:10571000F2BDF8B504000D0016002800C0B2002844
:1057200068D114F114000700D4F8940202284AD179
:105730003869F968884210D2F9683869091AF9603D
:10574000FA6892B23100200001F080FB00230022B1
:105750000021200000F0F0FE41E0B8683969B0FB9C
:10576000F1F201FB1200002817D1B86839698842AC
:1057700013D3B868D4F8981288420ED200220021C0
:10578000200001F063FB0020C4F8980200230022EF
:105790000021200000F0D0FE21E0D4F8B402C0685F
:1057A000002808D094F89C02032804D12000D4F8E3
:1057B000B412C96888478021200000F04CFE200008
:1057C00001F083FB0BE0D4F89402042803D0D4F852
:1057D0009402002803D18021200000F03CFE94F8C0
:1057E000A002012819D12000FFF7E3FE002084F871
:1057F000A00212E0D4F8B402406900280BD094F85B
:105800009C02032807D12900C9B22000D4F8B42291
:105810005269904701E0022000E00020F2BD10B57F
:105820000400402300220021200000F0E3FD0120BD
:10583000C4F858014020C4F86401402300228021AC
:10584000200000F0D7FD0120A0614020606201200F
:1058500084F89C020020C4F89402002060600020BC
:10586000C4F8A402D4F8B802002806D06168C9B20E
:105870002000D4F8B42252689047002010BD0200E6
:10588000117400207047010091F89C0281F89D027C
:10589000042081F89C0200207047010091F89C02CE
:1058A000042803D191F89D0281F89C0200207047E2
:1058B00010B5040094F89C02032809D1D4F8B4026E
:1058C000C069002804D02000D4F8B412C969884700
:1058D000002010BDF8B505000E000027287C002828
:1058E00013D14FF4007302228121280000F082FDC1
:1058F0000120E8624FF4007302220121280000F029
:1059000079FD0120C5F86C0110E0402302228121BD
:10591000280000F06FFD0120E862402302220121EF
:10592000280000F067FD0120C5F86C010823032260
:105930008221280000F05EFD012028644FF40770EA
:1059400000F01FFEC5F8B802D5F8B802002802D151
:10595000012007001FE0D5F8B8020400D5F8BC020A
:10596000006880470020C4F814020020C4F8180220
:10597000287C002808D14FF40073D4F804220121B8
:10598000280000F0D9FD06E04023D4F804220121CC
:10599000280000F0D1FD3800C0B2F2BD70B504009F
:1059A0000D0000268121200000F040FD0020E06273
:1059B0000121200000F03AFD0020C4F86C01822192
:1059C000200000F033FD00202064D4F8B802002845
:1059D0000AD0D4F8BC0240688047D4F8B80200F07E
:1059E000DDFD0020C4F8B8023000C0B270BDF8B5CB
:1059F00004000D00D4F8B86200208DF800000020EB
:105A0000ADF802000027287810F06000002828D0A8
:105A1000202863D1E88800281BD0287800060CD500
:105A2000EA8831006878D4F8BC329B689847EA88E5
:105A30003100200001F0F4F912E0687886F80002E5
:105A4000E88886F80102EA883100200001F00BFAAC
:105A500006E0002229006878D4F8BC329B68984799
:105A600042E06878002804D00A2814D00B2823D0FC
:105A70002DE094F89C02032806D102220DF10201C8
:105A8000200001F0CDF905E02900200001F08BF99C
:105A90000220070021E094F89C02032805D101228E
:105AA0006946200001F0BCF905E02900200001F062
:105AB0007AF90220070010E094F89C02032805D030
:105AC0002900200001F06FF90220070005E02900FD
:105AD000200001F068F90220070005E029002000FD
