:020000040800F2
:100000003038002021990008799700087B97000874
:100010007D9700087F970008819700080000000086
:10002000000000000000000000000000B37D000898
:1000300083970008000000006D7D0008756A0008C5
:10004000BF990008C3990008C7990008CB99000818
:10005000CF990008D3990008D7990008DB990008C8
:10006000DF990008E3990008E7990008EB99000878
:10007000EF990008F3990008F7990008FB99000828
:10008000FF990008039A0008079A00080B9A0008D5
:10009000859700080F9A0008139A00088F970008A8
:1000A000179A00081B9A00081F9A0008239A000854
:1000B000279A00082B9A0008999700082F9A0008A1
:1000C000339A0008379A00083B9A00083F9A0008C4
:1000D000439A0008479A00084B9A00084F9A000874
:1000E000539A0008579A00085B9A000818B5A3B005
:1000F00001F064F900F079F800F00CFA00F0B9F8BA
:1001000000F0D6F800F045F900F0A3F900F0E6F9A8
:10011000DFF888480021200001F066FA0421200061
:1001200001F062FADFF8744D0021200001F05CFA62
:100130000421200001F058FA0821200001F054FAAF
:100140000C21200001F050FA0021DFF8540801F0E2
:100150004BFA0020DFF84C1808600020DFF8481840
:1001600008601CA8DFF844181C2201F085FE00215D
:100170001CA801F0F1FEDFF83818086015A8DFF8B8
:1001800034181C2201F078FE002115A801F0E4FECD
:10019000DFF8241808600EA8DFF820181C2201F0F0
:1001A0006BFE00210EA801F0D7FEDFF814180860DE
:1001B00007A8DFF810181C2201F05EFE002107A836
:1001C00001F0CAFEDFF8001808606846DFF8FC1787
:1001D0001C2201F051FE0021684601F0BDFEDFF84F
:1001E000C01C086001F0B3FEFEE700B593B009A89B
:1001F000282101F0EFFE6846142101F0EBFE05A86E
:10020000102101F0E7FE012009905FF480300A9090
:1002100000210B9101210D910221109111905FF4A9
:10022000E010129009A801F0E7FE002801D001F0CB
:10023000C3F80F20009002200190002002904FF49C
:1002400080600390002004900221684602F08AF941
:10025000002801D001F0B0F810200590002008908F
:1002600005A802F059FB002801D001F0A5F813B051
:1002700000BD80B5DFF85807DFF858170160DFF8D8
:10028000241C4160002181600021C1604FF4804145
:10029000016100214161002181610021C1610021D2
:1002A000016202F00DFC002801D001F085F801BDCB
:1002B00018B591B0DFF82007D0E90023CDE900237D
:1002C00002A81C2101F086FE09A8202101F082FE6F
:1002D000DFF8C846DFF8D00B206000206060002007
:1002E000A0604FF46160E060002020610020606148
:1002F0000020A061200001F011F9002801D001F0D8
:100300005BF800200090002001906946200002F078
:100310003BFD002801D001F04FF860200290002042
:1003200003900020049000200590002006900020FB
:10033000079000200890002202A9200001F06FFA27
:10034000002801D001F038F8042202A9200001F0B1
:1003500066FA002801D001F02FF800200990002053
:100360000A9000200B9000200C9000200D904FF47C
:1003700000500E900020109009A9200002F068FDA6
:10038000002801D001F018F8200002F080FE12B021
:1003900010BD18B589B0DFF8140BD0E90023CDE902
:1003A000002302A81C2101F015FEDFF8F04A5FF0DF
:1003B00080402060142060600020A06048F6A040CB
:1003C000E060002020610020A061200001F0A6F87C
:1003D000002801D000F0F0FF0020009000200190E4
:1003E0006946200002F0D0FC002801D000F0E4FFB4
:1003F00060200290002003900020049000200690CE
:10040000002202A9200001F00AFA002801D000F021
:10041000D3FF042202A9200001F001FA002801D034
:1004200000F0CAFF082202A9200001F0F8F9002814
:1004300001D000F0C1FF0C2202A9200001F0EFF969
:10044000002801D000F0B8FF200002F020FE0AB022
:1004500010BD18B589B0DFF8580AD0E90023CDE9FE
:10046000002302A81C2101F0B5FDDFF83445DFF8B8
:10047000440A2060282060600020A06048F6A04068
:10048000E060002020610020A061200001F046F81B
:10049000002801D000F090FF002000900020019083
:1004A0006946200002F070FC002801D000F084FFB3
:1004B000602002900020039000200490002006900D
:1004C000002202A9200001F0AAF9002801D000F0C2
:1004D00073FF200002F0DBFD0AB010BD80B5DFF82D
:1004E000D809DFF8981D01605FF4E1314160002117
:1004F00081600021C160002101610C214161002166
:1005000081610021C16102F07BFE002801D000F072
:1005100053FF01BD78B585B06846102101F05AFD42
:10052000DFF89809016851F010010160016811F0CD
:10053000100104910499016851F0200101600168E3
:1005400011F0200104910499016851F00401016047
:10055000016811F0040104910499016851F0080147
:100560000160006810F0080004900498DFF85069FA
:1005700000224FF40051300003F092F9DFF84449B3
:1005800000220221200003F08BF9DFF83C59002201
:100590004FF48061280003F083F94FF4005000907D
:1005A0000120019000200290022003906946300053
:1005B00002F09EFF02200090012001900020029096
:1005C000022003906946200002F092FF4FF4704031
:1005D000009000200190002002906946200002F067
:1005E00087FF4FF48060009001200190002002906E
:1005F000022003906946280002F07AFF4020009014
:10060000DFF8A40C0190022002906946200002F05D
:100610006FFF00220521172003F029FA172003F0AD
:1006200047FA06B070BD010089B2402905D1DFF854
:100630009C180A68521C0A60FFE7704702000020FD
:10064000010089B2515C002901D0401CF8E780B25A
:1006500070472DE9704F04000D001600300029008E
:1006600003F042FA03F0ACFA82468B46300003F006
:10067000A7FA02000B000020DFF8301C03F0C4FAD8
:1006800080468946200003F09BFA42464B4603F021
:1006900031FB52465B4603F0FFFB03F0BBFCBDE8B9
:1006A000708F30B4B0F900301C000D0024B22DB2B0
:1006B000AC4201DA0B0006E014001D0024B22DB29A
:1006C000AC4200DA1300038030BC704738B5030039
:1006D0000C001D682800210003F0D0FC01D2250089
:1006E00005E01000290003F0C9FC00D215001D60D0
:1006F00031BD10B5040003F0D3FC4FF4FA7001F0E3
:100700005BFC4FF40051DFF8B80703F0F0F8F4E7B2
:100710002DE9F14F82B0DFF8B847DFF8B80701687C
:10072000DFF8B40703F0E8FC03F04AFA0022DFF830
:10073000AC3703F053FD03F06DFC2060DFF8A01729
:10074000DFF8A057DFF8846732682868121A0A6059
:10075000DFF89477086803F065FEDFF8241B09686A
:1007600003F06EFE03F02CFA0022DFF8183B03F0D2
:10077000C1FA80468946DFF8380BB0F9000003F073
:10078000DDFE02000B004046494603F027FD03F062
:1007900041FC3860306828603968DFF8189BDFF862
:1007A000182BD9F80000FFF754FFC9F80000DFF854
:1007B0000C8BDFF80C5B2868C8F80000206803F099
:1007C000FFF931F0004106000F00D9F8000003F0F6
:1007D000F7F902000B003000390003F015FA03F0BE
:1007E00019FC2860DFF8DC6A31682868DFF8D82A4D
:1007F000D2F800A0DFF8D47ADFF8D49A03F07CFCBA
:100800008346B7F90000B9F90010401A03F0A8FEBA
:10081000514603F069F9594603F06EFC30602868D0
:10082000DFF8B0AAD8F8001003F0ACFECAF8000058
:10083000DFF8A40A00682968DFF8A02A1568D6F84E
:100840000080DFF89C2AD2F800B003F04DF9009048
:100850002800414603F048F9009903F04DFC0500DB
:10086000DAF80000594603F03FF9290003F044FC90
:1008700003F0C8FE3880206803F0A2F931F000418F
:10088000DFF8602ADFF8603A03F0D2FE18D235684C
:10089000306803F095F982468B46280003F090F902
:1008A000DFF8482ADFF8483A03F024FA02000B0088
:1008B0005046594603F0A8F903F0ACFB30600BE05A
:1008C000B7F9000003F04CFEDFF8281A096803F0BE
:1008D00013FC03F097FE38803888A9F80000DFF891
:1008E000180AB0F9002000213800FFF7DAFEB7F946
:1008F0000000002803D5B7F90000404201E0B7F935
:100900000000DFF8F8291080DFF8F419B1F90000D1
:10091000002805D1DFF8EC09B0F90000002815D057
:100920004FF46160B1F900104143642291FBF2F190
:100930001C4A1160DFF8CC19B1F9001000FB01F07E
:10094000642190FBF1F0184908601FE02068002145
:1009500003F094FB0DD2B2F900104FF461604143F3
:10096000642091FBF0F00F49086000200E490860F8
:100970000CE000200B490860B2F900104FF46160F0
:100980004143642091FBF0F007490860DFF820093B
:10099000B0F9000001F010FBBDE60000F42E0020CD
:1009A000742F0020342C0140382C01402898000876
:1009B00080310020449800088431002060980008AD
:1009C000883100207C9800088C310020989800081D
:1009D000A02E002000540040909900082DE9F14F0E
:1009E0000024DFF824090078012840F03182DFF884
:1009F0001C5928784B2807D16878412804D1A87859
:100A00000D2801D100BF1AE22878532832D1687826
:100A100054282FD1A87852282CD1A8790D2829D173
:100A2000DFF8EC68E97864222B790A20434302FB63
:100A300001316879411841F2D040081A00B203F040
:100A40008FFD3060DFF8CC2800213000FFF73EFE3C
:100A5000DFF8C4682A00DFF8C418300003F000FE95
:100A60003000FFF7EBFD0400210089B2300003F0F5
:100A700068FEE4E12878532832D1687850282FD1D5
:100A8000A87844282CD1A8790D2829D1DFF844640E
:100A9000E97864222B790A20434302FB013168790B
:100AA000411841F2D040081A00B203F059FD3060FD
:100AB000DFF8602800213000FFF708FEDFF85868F3
:100AC0002A00DFF85818300003F0CAFD3000FFF7A5
:100AD000B5FD0400210089B2300003F032FEAEE122
:100AE000287844283BD16878492838D1A8785328F9
:100AF00035D1A8790D2832D10020DFF824180860FC
:100B00005FF07E50DFF81C180860DFF81C68E97899
:100B100064222B790A20434302FB01316879411892
:100B200041F2D040081A00B203F01AFD3060DFF83D
:100B3000E42700213000FFF7C9FDDFF8DC672A0059
:100B4000DFF8D817300003F08BFD3000FFF776FD9B
:100B50000400210089B2300003F0F3FD6FE1287832
:100B6000532823D16878552820D1A87841281DD151
:100B7000E8780D281AD15FF07E50DFF8A4170860DE
:100B80000020DFF8A0170860DFF88C672A00DFF884
:100B90008C17300003F064FD3000FFF74FFD0400B8
:100BA000210089B2300003F0CCFD48E128785328B9
:100BB0007BD16878552878D1A8784D2875D1E87B05
:100BC0000D2872D10020DFF8581708600020DFF8E8
:100BD000541708600A26DFF854775FF06408E87855
:100BE0002979714308FB001069790818381800B298
:100BF00003F0B6FCDFF838170860DFF83897A879FB
:100C0000E979714308FB0010297A0818381800B2F6
:100C100003F0A6FCC9F80000DFF81CA7687AA97ADF
:100C2000714308FB0010E97A0818381800B203F085
:100C300097FCCAF80000DFF804B7287B697B06FB45
:100C400001F608FB0066A87B8619BE1936B2300093
:100C500003F086FCCBF80000DFF8B8663200002114
:100C6000DFF8CC06FFF732FD320000214846FFF7DF
:100C70002DFD320000215046FFF728FD32000021F3
:100C80005846FFF723FDDFF890662A00DFF88C1640
:100C9000300003F0E5FC3000FFF7D0FC0400210039
:100CA00089B2300003F04DFDC9E0287854281ED1E8
:100CB000687847281BD1A878452818D1E8780D28EE
:100CC00015D10120DFF878160870DFF84C662A008D
:100CD000DFF84816300003F0C3FC3000FFF7AEFC2D
:100CE0000400210089B2300003F02BFDA7E0287832
:100CF00054281ED1687847281BD1A878442818D1D9
:100D0000E8780D2815D10020DFF834160870DFF8D8
:100D100008662A00DFF80416300003F0A1FC30005A
:100D2000FFF78CFC0400210089B2300003F009FDBC
:100D300085E0287853281ED1687852281BD1A878DE
:100D4000452818D1E8780D2815D10120DFF8F415D1
:100D50000870DFF8C4652A00DFF8C015300003F022
:100D60007FFC3000FFF76AFC0400210089B23000EC
:100D700003F0E7FC63E0287853281ED168785228F6
:100D80001BD1A878442818D1E8780D2815D1002067
:100D9000DFF8B0150870DFF880652A00DFF87C15F1
:100DA000300003F05DFC3000FFF748FC0400210038
:100DB00089B2300003F0C5FC41E0287850282DD1DD
:100DC00068784F282AD1A878572827D1A8790D28E4
:100DD00024D1DFF82405EA7864232E790A214E43D2
:100DE00003FB026269798A1841F2D041511A0180ED
:100DF00064220021FFF755FCDFF81C652A00DFF8AC
:100E00001C15300003F02CFC3000FFF717FC040029
:100E1000210089B2300003F094FC10E0DFF8F864A0
:100E20002A00DFF82415300003F01AFC3000FFF729
:100E300005FC0400210089B2300003F082FC03F0BD
:100E4000A5FCDFF8081508600020DFF8BC14087066
:100E500003F09CFCDFF8F824DFF8F0140968401A6E
:100E60001060DFF8F00401681368994201D211683C
:100E70000160106840F2E93188420BD3DFF8C0040A
:100E80000078012806D1DFF8D00412490860DFF8A5
:100E9000801408600A2001F08FF8A2E5342F0020AA
:100EA00090310020A0860100002C01409899000894
:100EB000A099000800040040B42F00201810024040
:100EC00000100140000C014000080140A431002046
:100ED000A031002000000020000048C2000059405E
:100EE000AC310020A8310020B03100202DE9F14FB5
:100EF00082B0DFF868040568DFF864040068DFF892
:100F000064140968DFF8604403F03CFB0100DFF87B
:100F1000040403F095FA0100280003F091FADFF8C9
:100F20004414096803F0E8F8210002F0DDFD03F045
:100F300069FB642190FBF1F0DFF830140860DFF802
:100F400030040168DFF82C040668DFF82C04076819
:100F5000DFF8C053280003F015FB8046300039004D
:100F600003F010FB0100DFF8AC0303F069FA0100A5
:100F7000404603F065FADFF80014096803F0BCF896
:100F8000210002F0B1FD03F03DFB642190FBF1F084
:100F9000DFF8E8130860DFF8E8633168DFF8E4039E
:100FA0000768DFF8E403D0F80080280003F0EAFACD
:100FB00081463800414603F0E5FA0100D54803F0C8
:100FC0003FFA0100484603F03BFADFF8BC1309681A
:100FD00003F092F8210002F087FD03F013FB642177
:100FE00090FBF1F0DFF8A4130860DFF8A473D7F8E2
:100FF0000080DFF8A0030068DFF89C13096803F0A5
:10100000C1FA0100C34803F01BFA0100404603F097
:1010100017FADFF88413096803F06EF8210002F074
:1010200063FD03F0EFFA642190FBF1F0DB49086007
:10103000DB480168DB48D0F80080DB48D0F800903E
:10104000280003F09FFA82464046494603F09AFA88
:101050000100B04803F0F4F90100504603F0F0F944
:10106000D149096803F048F8210002F03DFD03F082
:10107000C9FA642190FBF1F0CC490860642000F0CB
:101080009BFF01224FF48061C94802F009FCDFF8A0
:1010900010839F480068C8F80000A14800685FF00E
:1010A0007E5103F079FB01D100BF1DE09D4800682F
:1010B0005FF07E5103F070FB08D19B480068AC499B
:1010C0000860A6490860386030600DE09848006804
:1010D0003060984800683860974800689F49086009
:1010E00096480068A24908609C48D0F800909C4847
:1010F0000068DFF870A2DAF8001003F043FA01008C
:10110000844803F09DF90100484603F099F9DAF8A4
:10111000001002F0F1FF210002F0E6FC03F072FA89
:10112000642190FBF1F09149086091480168914871
:10113000D0F80090DFF840A2DAF800B0280003F001
:1011400021FA00904846594603F01CFA0100714804
:1011500003F076F90100009803F072F9DAF8001054
:1011600002F0CAFF210002F0BFFC03F04BFA642139
:1011700090FBF1F08149086031688248D0F8009016
:10118000DFF804A2DAF800B0280003F0FBF90090C1
:101190004846594603F0F6F901005E4803F050F95D
:1011A0000100009803F04CF9DAF8001002F0A4FFF7
:1011B000210002F099FC03F025FA642190FBF1F084
:1011C00072490860D7F8009072480068DFF8C8A13B
:1011D000DAF8001003F0D6F901004E4803F030F9B8
:1011E0000100484603F02CF9DAF8001002F084FF01
:1011F000210002F079FC03F005FA642190FBF1F084
:1012000066490860D8F800106648D0F80080DFF81A
:1012100098A1DAF80090280003F0B4F9834640461C
:10122000494603F0AFF901003A4803F009F901001B
:10123000584603F005F9DAF8001002F05DFF2100CE
:1012400002F052FC03F0DEF9642190FBF1F0574903
:1012500008603C480078012806D101224FF48061E3
:10126000534802F01DFB05E000224FF48061504816
:1012700002F016FB0A2000F09FFE08E70044004041
:101280004800002000408F4010B50400012000F00D
:1012900093FEFBE710B5040020684649884201D15F
:1012A00003F088FA10BD0000000031100000F03F8C
:1012B00068020020B43100203333B33EBC3100203B
:1012C000B8310020C0310020C83100202032002079
:1012D00022320020C43100204C00002050000020A9
:1012E000CC3100207B14AE47E17A843FB81E85EBF9
:1012F00051B89E3F540000206A0200202432002092
:101300001C3200201E32002026320020F42F002044
:10131000040000200000C842F4300020609900085A
:1013200058000020D03100200800002030EBFFFFE3
:101330005C000020600000206400002068000020A5
:101340006C0200206D0200206C990008943100208E
:10135000983100209C310020000048423C000020D1
:10136000280000201400002000A00C47340000409A
:10137000400000202C000020180000203800004011
:1013800034000020200000200C0000203C00004021
:101390003800002024000020100000204000004001
:1013A00044000020300000201C00002034040040D5
:1013B00000080140000800407047704780B50748AA
:1013C000016851F010010160032002F03CFB002095
:1013D00003F0FCF901F0D6FD002002BD0020024020
:1013E00010B50400002C01D101205FE02068DFF877
:1013F0001C11884213D02068B0F1804F0FD02068B4
:10140000DFF80C1188420AD02068DFF80811884202
:1014100005D04FF48971DFF80001FFF7CEFFA06817
:10142000002811D0A06810280ED0A06820280BD06A
:10143000A068402808D0A068602805D040F21311A9
:10144000DFF8D400FFF7B9FF206900280DD020692C
:10145000B0F5807F09D02069B0F5007F05D04FF44A
:101460008A71DFF8B400FFF7A8FFA069002808D050
:10147000A069802805D040F21511DFF89C00FFF725
:101480009CFF94F83D00002805D1002084F83C0022
:10149000200000F0A3FC022084F83D00211D2068FC
:1014A00000F0DEFA012084F83D00002010BD10B5E8
:1014B00004002068DFF85410884213D02068B0F18F
:1014C000804F0FD02068DFF8481088420AD020688B
:1014D000DFF84010884205D040F2B911DFF804016E
:1014E000FFF76BFF2068C06850F001002168C860FA
:1014F0002068816811F00701062905D0206800687E
:1015000050F0010022681060002010BD002C014046
:1015100000040040000800402497000810B50400B3
:10152000002C01D101205BE02068DFF86C118842BB
:1015300012D02068B0F1804F0ED02068DFF85C1127
:10154000884209D02068DFF85811884204D040F260
:101550009B412448FFF731FFA068002810D0A06805
:1015600010280DD0A06820280AD0A068402807D0F5
:10157000A068602804D040F29C411A48FFF71DFF84
:10158000206900280CD02069B0F5807F08D0206940
:10159000B0F5007F04D040F29D411248FFF70DFFE7
:1015A000A069002807D0A069802804D040F29E419D
:1015B0000C48FFF702FF94F83D00002805D10020F9
:1015C00084F83C00200001F033FD022084F83D0047
:1015D000211D206800F044FA012084F83D0000201D
:1015E00010BD00002497000870B505000C00DFF85E
:1015F000A8602868B04207D1002C31D0042C2FD02D
:10160000082C2DD00C2C2BD02868B0F1804F07D19E
:10161000002C25D0042C23D0082C21D00C2C1FD03A
:101620002868DFF87810884207D1002C18D0042CE5
:1016300016D0082C14D00C2C12D02868DFF86010BB
:10164000884207D1002C0BD0042C09D0082C07D0DD
:101650000C2C05D040F21351DFF84800FFF7ADFE27
:1016600001222100286800F07BFB2868B04205D1E8
:101670002868406C50F400402968486428688168F4
:1016800011F00701062905D02868006850F0010014
:101690002A681060002070BD002C0140000400404A
:1016A000000800402497000810B504002068006975
:1016B00080071AD52068C068800716D57FF0020021
:1016C00021680861012020772068806910F0030FED
:1016D00003D0200003F0C4F805E0200003F0C1F8B7
:1016E000200003F0BFF80020207720680069400741
:1016F0001AD52068C068400716D57FF0040021681D
:101700000861022020772068806910F4407F03D0B0
:10171000200003F0A5F805E0200003F0A2F8200067
:1017200003F0A0F8002020772068006900071AD590
:101730002068C068000716D57FF00800216808619E
:10174000042020772068C06910F0030F03D0200028
:1017500003F086F805E0200003F083F8200003F092
:1017600081F80020207720680069C0061AD520681B
:10177000C068C00616D57FF01000216808610820F7
:1017800020772068C06910F4407F03D0200003F068
:1017900067F805E0200003F064F8200003F062F829
:1017A0000020207720680069C0070AD52068C0683B
:1017B000C00706D57FF00100216808612000FFF70F
:1017C00069FD2068006900060AD52068C068000627
:1017D00006D57FF0800021680861200003F043F8FF
:1017E0002068006940060AD52068C068400606D512
:1017F0007FF0400021680861200003F035F8206880
:10180000006980060AD52068C068800606D57FF08A
:10181000200021680861200003F027F810BD70B592
:1018200005000E001400002C0DD0042C0BD0082C49
:1018300009D00C2C07D03C2C05D040F6EB51DFF83A
:101840001C02FFF7BAFD3068602808D030687028A5
:1018500005D040F6EC51DFF80402FFF7AEFDB068AA
:10186000002808D0B068022805D040F6ED51DFF816
:10187000EC01FFF7A2FD3069002808D03069042888
:1018800005D040F6EE51DFF8D401FFF796FD95F84C
:101890003C00012801D10220D9E0012085F83C005C
:1018A000022085F83D002000002807D0042835D00C
:1018B000082864D00C2800F09280C1E02868DFF886
:1018C0009011884213D02868B0F1804F0FD028685B
:1018D000DFF8801188420AD02868DFF87C1188423E
:1018E00005D040F6FA51DFF87401FFF766FD3100CC
:1018F000286800F0ECF82868806950F00800296832
:1019000088612868806930F0040029688861286847
:101910008169306901432868816191E02868DFF8B6
:101920003011884213D02868B0F1804F0FD028685A
:10193000DFF8201188420AD02868DFF81C1188429D
:1019400005D040F60B61DFF81401FFF736FD3100DA
:10195000286800F013F92868806950F4006029684D
:1019600088612868806930F4806029688861286807
:101970008069316950EA01202968886160E028683F
:10198000DFF8CC10884213D02868B0F1804F0FD018
:101990002868DFF8C01088420AD02868DFF8B8103D
:1019A000884205D040F61C61DFF8B000FFF705FD66
:1019B0003100286800F03CF92868C06950F0080040
:1019C0002968C8612868C06930F004002968C861C6
:1019D0002868C169306901432868C16130E028681E
:1019E000DFF86C10884213D02868B0F1804F0FD018
:1019F0002868DFF8601088420AD02868DFF858109D
:101A0000884205D040F62D61DFF85000FFF7D5FC85
:101A10003100286800F068F92868C06950F4006057
:101A20002968C8612868C06930F480602968C86185
:101A30002868C069316950EA01202968C861FFE758
:101A4000012085F83D00002085F83C00002070BD95
:101A5000002C0140000400400008004024970008CA
:101A600010B40368DFF8F042A0420AD0B0F1804F12
:101A700007D0DFF8E822904203D0DFF850239042ED
:101A800003D133F070034A681343A0420AD0B0F187
:101A9000804F07D0DFF8C422904203D0DFF82C2318
:101AA000904203D133F44073CA68134333F0800388
:101AB0004A69134303608A68C2620A688262A0426C
:101AC00001D10A6902630122426110BC70472DE90D
:101AD000F84304000D00206A400840002062276A95
:101AE000D4F80480A66936F07006B608B6002868F7
:101AF000064337F00207A8680743DFF85C924C45BD
:101B000010D1E868002807D0E868082804D041F21E
:101B100001719048FFF751FC37F00807E868074368
:101B200037F004074C4521D1A869B0F5007F07D0F4
:101B3000A869002804D041F20E718648FFF73DFCE9
:101B40006869B0F5807F07D06869002804D041F249
:101B50000F718048FFF731FC38F4807838F4007852
:101B6000686950EA0808A86950EA0808C4F80480BF
:101B7000A661686860632762BDE8F1832DE9F843D8
:101B800004000D00206A30F010002062D4F820809C
:101B90006668A76937F4E04737F44077286857EA62
:101BA000002738F02008A86858EA0018DFF8A89144
:101BB0004C4511D1E868002807D0E868082804D00F
:101BC00041F24C716348FFF7F8FB38F08008E86891
:101BD00058EA001838F040084C4521D1A869B0F502
:101BE000007F07D0A869002804D041F25A715948F3
:101BF000FFF7E3FB6869B0F5807F07D068690028CC
:101C000004D041F25B715348FFF7D7FB36F480668E
:101C100036F40066686956EA8006A86956EA8006C6
:101C20006660A7616868A063C4F82080BDE8F1839E
:101C30002DE9F84304000D00206A30F48070206222
:101C4000266A6768D4F81C8038F070085FEA980844
:101C50005FEA8808286850EA080836F40076A86821
:101C600056EA0026DFF8F0904C4511D1E8680028CC
:101C700007D0E868082804D041F297713548FFF78B
:101C80009CFB36F40066E86856EA002636F4806667
:101C90004C4521D1A869B0F5007F07D0A86900287C
:101CA00004D041F2A4712B48FFF787FB6869B0F5B7
:101CB000807F07D06869002804D041F2A5712548CB
:101CC000FFF77BFB37F4805737F40057686957EA12
:101CD0000017A86957EA00176760C4F81C80686895
:101CE000E0632662BDE8F1832DE9F04104000D00B8
:101CF000206A30F480502062D4F820806668E7695A
:101D000037F4E04737F44077286857EA002738F47B
:101D10000058A86858EA0038DFF83C00844210D127
:101D20006869B0F5807F07D06869002804D041F267
:101D3000E3710848FFF741FB36F48046686956EACC
:101D400080166660E76168682064C4F82080BDE89A
:101D5000F081000024970008002C0140000400409E
:101D600070B505000C0016001A4885420DD0B5F17B
:101D7000804F0AD01848854207D01448854204D0C5
:101D800041F6C9111248FFF718FB002C0CD0042CA7
:101D90000AD0082C08D00C2C06D03C2C04D041F6DC
:101DA000CA110B48FFF709FB012114F01F0011FABB
:101DB00000F0296A81432962296A14F01F0216FA89
:101DC00002F21143296270BD0000000000080040CB
:101DD00024970008002C0140000400407047F0B434
:101DE0000246106895681318506803EB5004C0074A
:101DF0001DD54D441BE013F8017B05F8017B491EFE
:101E0000F9D1A0B1B60813F8011B06F00306032EA2
:101E100008BF13F8016B01EB06214942801C2944DD
:101E200005D011F8016B05F8016B401EF9D1A342F2
:101E30000ED013F8016B16F0030104BF13F8011B59
:101E4000C91C30090F28DAD113F8010B0F30D6E77F
:101E5000F0BC02F10C00704762B38B0708D0521E31
:101E600011F8013B00F8013B00F024808B07F6D10C
:101E7000830740F0208000BF103A07D330B4B1E8A8
:101E80003810103AA0E83810F9D230BC530724BFFC
:101E9000B1E80810A0E8081044BF51F8043B40F82E
:101EA000043BD20724BF31F8022B20F8022B44BF99
:101EB0000B7803707047121F17D35B0009D151F8DC
:101EC000043B20F8023B1B0C121F20F8023BF6D209
:101ED0000BE051F8043B00F8013B1B0A20F8023BE1
:101EE0001B0C121F00F8013BF3D238BF121D521E0B
:101EF00024BF11F8013B00F8013BF8D8704730B41B
:101F0000002513E050F8042BD30744BFA9F10103C7
:101F10009A18091F042942F8045BFAD213468C0769
:101F200044BF15809B1CC90748BF1D7050F8041B97
:101F30000029E7D130BC7047010000200A0012B22E
:101F4000842A03D00A0012B2D21C1018704780B540
:101F500002F0EEFD002002BD38B584B004000D0093
:101F60006069002813D0A069002810D0B4F90800D7
:101F7000FFF7E2FFA16902916169019100902B00D6
:101F800022692168606802F071FC039011E0B4F9E5
:101F90000800FFF7D1FF03A9019100902B002269EF
:101FA00092B22168606802F0AFFC012801D00020E5
:101FB00000E0039805B030BD38B505000120B5FB41
:101FC000F0F4002C01D0200000E0012002F089FD97
:101FD000002032BD002203F045B8B1F5807F02D366
:101FE0004FF0FF3070470170012070470078401EAD
:101FF0008041C043C00F70472DE9FC470400002C0E
:1020000001D10120ACE22068002809D0207810F02E
:102010000F0F05D140F26711DFF8C808FFF7CDF9BF
:102020002078C0077CD5606800280DD06068B0F5C6
:10203000803F09D06068B0F5A02F05D040F26D1147
:10204000DFF8A008FFF7B9F9DFF85C08016811F0C4
:102050000C01042907D0016811F00C0108290CD1EA
:102060000068C00309D5DFF83C080068800357D535
:102070006068002854D1012072E26068B0F5803FAA
:1020800006D1DFF82008016851F48031016026E0B4
:10209000606800280AD1DFF80C08016831F480314B
:1020A0000160016831F48021016018E06068B0F5DA
:1020B000A02F0AD1DFF8EC07016851F480210160FC
:1020C000016851F48031016009E0DFF8D807016848
:1020D00031F480310160016831F480210160606871
:1020E00000280ED002F052FB0500DFF8B8070068A8
:1020F000800315D402F04AFB401B6528F5D303206A
:102100002EE202F043FB0500DFF898070068800329
:1021100006D502F03BFB401B6528F5D303201FE2E8
:102120002078800765D52069002808D0206901281B
:1021300005D040F2A111DFF8AC07FFF73EF9606966
:10214000202805D34FF4D171DFF89807FFF735F950
:10215000DFF85407016811F00C0F07D0016811F087
:102160000C01082914D10068C00311D4DFF834072A
:102170000168890704D52169012901D00120EFE117
:10218000016831F0F801626951EAC201016030E092
:10219000206900281AD00120DFF84C17086002F0EF
:1021A000F5FA0500DFF8FC060168890706D402F09D
:1021B000EDFA401B0328F5D30320D1E1016831F08B
:1021C000F801626951EAC201016012E00020DFF803
:1021D0001817086002F0DAFA0500DFF8C806006890
:1021E000800706D502F0D2FA401B0328F5D303205E
:1021F000B6E12078000738D5A069002808D0A0698A
:10220000012805D04FF4F171DFF8D806FFF7D5F8B3
:10221000A069002816D00120DFF8D016086002F06F
:10222000B5FA0500DFF8B8060068800706D402F0AA
:10223000ADFA401B0328F5D3032091E1012000F003
:1022400035FB12E00020DFF8A416086002F09EFAC9
:102250000500DFF88C060068800706D502F096FAC4
:10226000401B0328F5D303207AE12078400740F192
:102270009D800027E06800280BD0E068012808D086
:10228000E068052805D040F21121DFF85806FFF775
:1022900094F8DFF85C86D8F80000C0000DD4D8F8B8
:1022A000000050F08050C8F80000D8F8000010F08E
:1022B00080500090009801200700DFF83896D9F888
:1022C0000000C00513D4D9F8000050F48070C9F89C
:1022D000000002F05BFA0500D9F80000C00506D442
:1022E00002F054FA401B6528F6D3032038E1E06879
:1022F000012806D1DFF80006016851F001010160F4
:1023000025E0E06800280AD1DFF8EC0501684908FB
:1023100049000160016831F00401016017E0E068E4
:1023200005280AD1DFF8D005016851F004010160E9
:10233000016851F00101016009E0DFF8BC050168A6
:10234000490849000160016831F004010160E0685A
:10235000002810D002F01AFA0500DFF89C0500688A
:10236000800719D402F012FA401B41F289318842E9
:10237000F3D30320F4E002F009FA0500DFF8780552
:102380000068800708D502F001FA401B41F289314C
:102390008842F3D30320E3E03800C0B2012805D11E
:1023A000D8F8000030F08050C8F80000E06900283C
:1023B0000BD0E069012808D0E069022805D040F27E
:1023C000AF21DFF82005FEF7F8FFE069002800F0F4
:1023D000C680DFF8D474386810F00C00082800F0CC
:1023E000AB80E069022840F09480206A002809D080
:1023F000206AB0F5803F05D04FF42E71DFF8E40479
:10240000FEF7DBFF606A00283DD0606AB0F5802FE0
:1024100039D0606AB0F5002F35D0606AB0F5402F32
:1024200031D0606AB0F5801F2DD0606AB0F5A01F72
:1024300029D0606AB0F5C01F25D0606AB0F5E01FF2
:1024400021D0606AB0F5001F1DD0606AB0F5101F82
:1024500019D0606AB0F5201F15D0606AB0F5301F42
:1024600011D0606AB0F5401F0DD0606AB0F5501F02
:1024700009D0606AB0F5601F05D040F2B921DFF8DD
:102480006404FEF79AFFDFF874A40020CAF8000085
:1024900002F07CF98046DFF80C94D9F80000800146
:1024A00007D502F073F9B0EB08000328F3D303203B
:1024B00056E0206AB0F5803F12D1A068002809D00C
:1024C000A068B0F5003F05D040F2CF21DFF814043A
:1024D000FEF773FF396831F40031A06801433960B9
:1024E000396831F47411206A0143606A014339602C
:1024F0000120CAF8000002F049F90500D9F80000EF
:1025000080012CD402F042F9401B0328F6D30320AB
:1025100026E00020DFF8E413086002F037F9050038
:10252000DFF880030068800119D502F02FF9401B05
:102530000328F5D3032013E0E069012801D101202D
:102540000EE03868060016F48030216A884204D113
:1025500016F47010616A884201D0012000E000206A
:10256000BDE8F6872DE9F04104000D00002C01D1F3
:10257000012018E1207810F00F0F05D14FF44E71B3
:10258000DFF86003FEF719FF002D09D0012D07D0F9
:10259000022D05D040F23931DFF84803FEF70DFF78
:1025A000DFF85C73386810F00700A8420BD2386877
:1025B000C008C00028433860386810F00700A842FF
:1025C00001D00120EFE0207880073AD5207840073D
:1025D00005D5DFF8D402016851F4E061016020788C
:1025E000000705D5DFF8C002016851F460510160B1
:1025F000A06800281DD0A06880281AD0A068902864
:1026000017D0A068A02814D0A068B02811D0A06866
:10261000C0280ED0A068D0280BD0A068E02808D031
:10262000A068F02805D040F25F31DFF8B802FEF76D
:10263000C4FEDFF874120A6832F0F002A0680243A8
:102640000A602078C00747D5606800280BD0606812
:10265000012808D06068022805D040F26631DFF812
:102660008402FEF7AAFE6068012806D1DFF8340272
:102670000068800312D4012095E06068022806D12A
:10268000DFF820020068800108D401208BE0DFF829
:1026900014020068800701D4012084E0DFF808827A
:1026A000D8F800108908890060680143C8F8001054
:1026B00002F06CF80600D8F8000010F00C00616819
:1026C000B0EB810F08D002F061F8801B41F2893134
:1026D0008842F0D3032066E0386810F00700854296
:1026E0000BD23868C008C00028433860386810F042
:1026F0000700A84201D0012055E0207840071FD5EF
:10270000E068002815D0E068B0F5806F11D0E0686F
:10271000B0F5A06F0DD0E068B0F5C06F09D0E068EB
:10272000B0F5E06F05D04FF46971DFF8B801FEF73E
:1027300044FE5D490A6832F4E062E06802430A60E0
:10274000207800071FD52069002814D02069B0F533
:10275000806F10D02069B0F5A06F0CD02069B0F563
:10276000C06F08D02069B0F5E06F04D040F2AB3103
:102770005C48FEF722FE4C48016831F46051226942
:1027800051EAC201016000F010F85E49464A126841
:10279000C2F30312895CC8404F4908604F48006883
:1027A00002F014F80020BDE8F081F0B585B001A872
:1027B00055491022FFF760FB54480088ADF800002F
:1027C00000200021002200230025374E346814F039
:1027D0000C07042F02D0082F02D01BE03D481AE05E
:1027E00001A8C4F38347C05D0300E0030CD568462D
:1027F0003668C6F34046805D0100364800FB03F0B2
:10280000B0FBF1F0020003E0414800FB03F00200DE
:10281000100000E02F4805B0F0BD2F480068704759
:1028200080B5FFF7FAFF3B491F4A1268C2F3022244
:10283000895CC84002BD80B5FFF7EFFF35491A4AF1
:102840001268C2F3C222895CC84002BD38B50400D8
:102850000D00002C04D140F223512248FEF7ADFDBB
:10286000002D04D140F224511E48FEF7A6FD0F2092
:1028700020600D48016811F003016160016811F0EA
:10288000F001A160016811F4E061E1600068C00836
:1028900010F4E06020611A48006810F0070028601A
:1028A00031BD0000001002400410024081B00A490E
:1028B0000968C9084FF47A72B1FBF2F101FB00F12B
:1028C000009100BF00994A1E00920029F9D101B081
:1028D0007047000000127A00740000207000002091
:1028E00024100240D0960008000042428004424278
:1028F0001C10024000700040201002406000424264
:102900000020024000990008F0980008963E000858
:1029100000093D00A89900082DE9F84305000026AC
:102920000024287810F0130F03D16C215E48FEF7C5
:1029300044FD2878C00740F18080686800280FD0E7
:102940006868B0F5807F0BD06868B0F5007F07D06D
:102950006868B0F5407F03D072215348FEF72DFD23
:102960000027DFF84881D8F80000C0000DD4D8F85F
:10297000000050F08050C8F80000D8F8000010F0B7
:1029800080500090009801200700DFF82491D9F8CA
:102990000000C00513D4D9F8000050F48070C9F8C5
:1029A000000001F0F3FE0600D9F80000C00506D4CF
:1029B00001F0ECFE801B6528F6D3032071E0DFF800
:1029C000F490D9F8000010F440700400002C22D0DC
:1029D000686810F4407084421DD0D9F8000030F4CB
:1029E0004070040034480121016000210160C9F8F1
:1029F0000040E0070FD501F0C9FE0600D9F800003D
:102A0000800708D401F0C2FE801B41F28931884260
:102A1000F4D3032045E0D9F8001031F44071686820
:102A20000143C9F800103800C0B2012805D1D8F818
:102A3000000030F08050C8F800002878800719D5D1
:102A4000A86800280FD0A868B0F5804F0BD0A86800
:102A5000B0F5004F07D0A868B0F5404F03D0B921BA
:102A60001148FEF7AAFC15490A6832F44042A868EA
:102A700002430A602878C00612D5E868B0F5800FD6
:102A800007D0E868002804D040F215110648FEF788
:102A900094FC0A490A6832F48002E86802430A603A
:102AA0000020BDE8F2830000C89400081C1002401A
:102AB00000700040201002404004424204100240D6
:102AC00070B50400002C01D1012048E12068DFF836
:102AD000901288420AD02068DFF88812884205D018
:102AE00040F2CD11DFF88002FEF767FC6068002835
:102AF00004D06068DFF87412884205D34FF4E771A0
:102B0000DFF86402FEF759FCA068002809D0A0682D
:102B1000B0F5804F05D040F2CF11DFF84C02FEF740
:102B20004CFCE068800A8002002805D04FF4E87170
:102B3000DFF83402FEF741FC2069B0F5804F09D080
:102B40002069B0F5404F05D040F2D111DFF81802EE
:102B5000FEF733FC6069002808D06069012805D0C1
:102B60004FF4E971DFF80002FEF727FCA06930F0AE
:102B7000FE00002805D040F2D311DFF8EC01FEF78B
:102B80001CFCE069002808D0E069402805D04FF41B
:102B9000EA71DFF8D401FEF710FC206A002808D0A3
:102BA000206A802805D040F2D511DFF8BC01FEF77D
:102BB00004FC94F83D00002805D1002084F83C0076
:102BC000200000F002FA242084F83D00206800680C
:102BD0004008400021680860FFF722FE0100DFF88E
:102BE00090016268824208D2DFF88821914201D2C6
:102BF000012200E00022D2B207E0DFF87C219142FE
:102C000001D2012200E00022D2B2012A01D101202A
:102C1000A5E0DFF86821B1FBF2F223685B689B094D
:102C20009B01134325686B6023681B6A65688542B6
:102C300001D2551C08E04FF4967505FB02F54FF4E0
:102C40007A76B5FBF6F56D1C9B099B012B43256835
:102C50002B622368DB696568854214D2481E65686B
:102C60006D00B0FBF5F0401C0005000D042801D2FA
:102C700004253EE0481E65686D00B0FBF5F56D1C4F
:102C80002D052D0D35E0A068002809D14D1E666880
:102C900003204643B5FBF6F0401C0005000D0AE09A
:102CA0004D1E666819204643B5FBF6F0401C000532
:102CB000000D50F48040000501D1012519E0A06805
:102CC000002809D14D1E666803204643B5FBF6F582
:102CD0006D1C2D052D0D0AE04D1E6668192046431A
:102CE000B5FBF6F56D1C2D052D0D55F4804555F4FD
:102CF0000045DFF88C0003402B432068C361206847
:102D0000036833F0C003E0690343206A034320688B
:102D1000036020688368DFF86C0003402069034388
:102D2000E0680343206883602068C3681B0A1B02B5
:102D3000A569606905432B432068C360206800686B
:102D400050F001002368186000202064202084F8DF
:102D50003D0000202063002084F83E00002070BD6C
:102D6000005400400058004028960008811A0600D0
:102D7000A186010080841E0000093D0040420F0032
:102D80000030FFFF007CFFFF38B504000D00206815
:102D90007949884210D02068B0F1804F0CD020686B
:102DA0007649884208D020687549884204D040F2AC
:102DB00064617048FEF701FB2868002819D0286874
:102DC000102816D02868202813D02868302810D062
:102DD000286840280DD0286850280AD02868602824
:102DE00007D02868702804D040F265616148FEF77A
:102DF000E4FA6868802807D06868002804D040F2A8
:102E000066615C48FEF7D9FA94F83C00012801D1CC
:102E100002201CE0012084F83C00022084F83D00E0
:102E2000206841682068826831F070012868014399
:102E300032F0800268680243206841602068826046
:102E4000012084F83D00002084F83C00002032BDC1
:102E500070B504000D00002620684749884204D060
:102E600040F29E614348FEF7A8FA2868B0F5006F6B
:102E700007D02868002804D040F29F613D48FEF743
:102E80009CFA6868B0F5806F07D06868002804D0A5
:102E90004FF4D4613748FEF790FAA868002810D0A4
:102EA000A868B0F5807F0CD0A868B0F5007F08D086
:102EB000A868B0F5407F04D040F2A1612D48FEF72C
:102EC0007CFAE868B0F5807F04D340F2A26129481B
:102ED000FEF773FA2869B0F5805F07D028690028EB
:102EE00004D040F2A3612348FEF767FA686900281E
:102EF00008D06869B0F5005F04D040F2A4611D48B5
:102F0000FEF75BFAE869B0F5804F07D0E869002862
:102F100004D040F2A5611748FEF74FFA94F83C0040
:102F2000012801D1022024E0012084F83C00360A67
:102F30003602E868064336F44076A868064336F45D
:102F400080666868064336F400662868064336F4EF
:102F500080562869064336F400566869064336F4FD
:102F60008046E869064320684664002084F83C00F7
:102F7000002070BD20950008002C01400004004096
:102F80000008004080B59548016851F001010160DA
:102F9000006810F00100009000989148016851F01D
:102FA00080510160006810F080500090009800226D
:102FB0000F217FF0010000F05AFD8A49086830F0C7
:102FC000E06050F00070086001BD18B585B00400E5
:102FD00001A81021FEF7FEFF20688349884225D111
:102FE0007E48016851F008010160006810F0080097
:102FF000009000984FF4407001901220029003203E
:10300000049001A9794800F073FA7649086850F0F5
:10301000E06050F0020008607148016851F400114E
:103020000160006810F400100090009806B010BD18
:1030300081B001686E4A91420AD168490A6852F427
:1030400000620A60096811F40061009100991CE0B7
:103050000168B1F1804F0AD161490A6852F001025A
:103060000A60096811F00101009100990DE0016802
:10307000604A914209D15A490A6852F002020A6034
:10308000096811F002010091009901B0704718B56C
:1030900085B0040068461021FEF79CFF2068544963
:1030A000884215D14D48016851F004010160006863
:1030B00010F00400049004984FF440700090022037
:1030C00001900220039069464B4800F011FA4DE050
:1030D0002068B0F1804F31D14048016851F00401BF
:1030E0000160016811F0040104910499016851F034
:1030F00008010160006810F00800049004980320A3
:103100000090022001900220039069463A4800F0A6
:10311000EFF94FF4406000900220019002200390EC
:103120006946324800F0E4F92E49086830F44070EE
:1031300050F0E06050F40070086017E020682D49FE
:10314000884213D12548016851F0040101600068EC
:1031500010F0040004900498402000900220019098
:10316000022003906946244800F0C2F906B010BD61
:1031700030B585B0040068461021FEF72BFF2068AB
:103180001E49884228D11648016851F40031016077
:10319000006810F40030049004981048016851F061
:1031A00004010160006810F00400049004980420F9
:1031B000009002200190032003900F4D69462800E3
:1031C00000F096F908200090002001900020029065
:1031D0006946280000F08CF905B030BD1810024097
:1031E0001C1002400400014000540040000C01404B
:1031F000002C014000040040000801400044004051
:1032000010B50400002C01D1012080E0A069002845
:103210002AD02068DFF8F81088420FD02068DFF845
:10322000F41088420AD02068DFF8EC10884205D0FC
:103230004FF4A371DFF8E400FEF7BFF8A06900289F
:1032400027D0A069B0F5807F23D0A069B0F5007FBA
:103250001FD0A069B0F5407F1BD040F24711DFF8C6
:10326000BC00FEF7AAF814E02068DFF8A41088423A
:103270000FD02068DFF89C1088420AD02068DFF861
:103280009810884205D040F24B11DFF89000FEF70D
:1032900094F8A068002809D0A068B0F5805F05D038
:1032A00040F24D11DFF87400FEF787F894F839000A
:1032B000002805D1002084F838002000FFF758FFCF
:1032C000242084F839002068C06830F40050216858
:1032D000C860200000F024F82068006930F49040B5
:1032E000216808612068406930F02A00216848613F
:1032F0002068C06850F400502168C8600020E06376
:10330000202084F83900202084F83A00002010BDE5
:103310000038014000440040004800407895000813
:10332000F8B5040060687049884204D340F6FD3166
:103330006C48FEF742F8E068002808D0E068B0F575
:10334000005F04D040F6FE316648FEF736F820698B
:1033500000280CD02069B0F5806F08D02069B0F546
:10336000C06F04D040F6FF315E48FEF726F8606972
:103370004FF6F371084202D16069002804D14FF47E
:1033800040615848FEF719F82068016931F440514E
:10339000E068014320680161A56820690543606910
:1033A00005432068C1685148014029432068C16035
:1033B0002068416931F44071A0690143206841618E
:1033C00020684749884245D1FFF735FA6421192220
:1033D00002FB00F36668B600B3FBF6F36426B3FBAA
:1033E000F6F302FB00F66768BF00B6FBF7F602FBD8
:1033F00000F7D4F804C05FEA8C0CB7FBFCF75FF071
:10340000640CB7FBFCF701FB176636013236642704
:10341000B6FBF7F616F0F00616EB031602FB00F308
:103420006768BF00B3FBF7F302FB00F26768BF00F9
:10343000B2FBF7F26427B2FBF7F201FB123109018C
:1034400032316422B1FBF2F111F00F018E192168C3
:103450008E6044E0FFF7E4F96421192202FB00F3D7
:103460006668B600B3FBF6F36426B3FBF6F302FB23
:1034700000F66768BF00B6FBF7F602FB00F7D4F86A
:1034800004C05FEA8C0CB7FBFCF75FF0640CB7FB81
:10349000FCF701FB1766360132366427B6FBF7F6F8
:1034A00016F0F00616EB031602FB00F36768BF0088
:1034B000B3FBF7F302FB00F26768BF00B2FBF7F261
:1034C0006427B2FBF7F201FB1231090132316422A9
:1034D000B1FBF2F111F00F018E1921688E60F1BD80
:1034E000003801407895000821AA4400F3E9FFFF65
:1034F0002DE9FE4F070088465FF000095FF0000AE3
:10350000DFF83CB45F4514D0DFF83804874210D0B0
:10351000DFF8340487420CD0DFF83004874208D04B
:10352000DFF82C04874204D0BD21DFF82804FDF722
:1035300044FFD8F80000000405D0D8F80000000CC3
:103540000004002804D0BE21DFF80804FDF735FF91
:10355000D8F8040000283CD0D8F80400012838D05E
:10356000D8F80400112834D0D8F80400022830D04C
:10357000D8F8040012282CD0D8F80400DFF8D813AB
:10358000884226D0D8F80400DFF8D013884220D033
:10359000D8F80400DFF8C81388421AD0D8F804001D
:1035A000DFF8C013884214D0D8F80400DFF8B8134D
:1035B00088420ED0D8F80400DFF8B013884208D053
:1035C000D8F80400032804D0BF21DFF88803FDF7F2
:1035D000F4FED8F8000030FA09F0002800F05E810F
:1035E000012010FA09F00090D8F80010009801406E
:1035F0000C000098844240F04E815F4514D0DFF803
:103600004403874210D0DFF8400387420CD0DFF834
:103610003C03874208D0DFF83803874204D0CD212D
:10362000DFF83003FDF7C9FED8F8040000287AD08F
:10363000012821D002284AD0032800F09A801128BE
:103640002FD0122859D0DFF8101388426BD0DFF842
:103650001413884267D0DFF80413884263D0DFF880
:10366000081388425FD0DFF8F81288425BD0DFF899
:10367000FC12884257D07FE0D8F80C0002280CD00A
:10368000D8F80C00012808D0D8F80C00032804D082
:10369000D521DFF8C002FDF790FED8F80C00824675
:1036A0006AE0D8F80C0002280CD0D8F80C000128E9
:1036B00008D0D8F80C00032804D0DC21DFF89402ED
:1036C000FDF77BFED8F80C00001D824654E0D8F8C8
:1036D0000C0002280CD0D8F80C00012808D0D8F82B
:1036E0000C00032804D0E321DFF86802FDF765FE33
:1036F000D8F80C00083082463EE0D8F80C000228CA
:103700000CD0D8F80C00012808D0D8F80C000328F9
:1037100004D0EA21DFF83C02FDF74FFED8F80C0098
:103720000C30824628E0D8F8080000280CD0D8F8E1
:103730000800012808D0D8F80800022804D0F72192
:10374000DFF81002FDF739FED8F80800002802D192
:10375000042082460CE0D8F80800012804D1082093
:1037600082460098386103E008208246009878611C
:1037700002E000208246FFE7B4F5807F01D2019786
:1037800001E0381D0190B4F5807F02D25FEA89061E
:1037900002E0B9F10806B6000F210198026811FA9B
:1037A00006F082431AFA06F0024301980260D8F844
:1037B0000400C0006FD5DFF8B801026852F00102C2
:1037C0000260006810F0010002900298DFF8A42166
:1037D0004846800852F8203019F00300C0B280003B
:1037E00081408B435F4501D1002112E0DFF8540195
:1037F000874201D101210CE0DFF84C01874201D161
:10380000022106E0DFF84401874201D1032100E0F4
:1038100004211D0019F00300C0B2800081400D4357
:103820004846800842F82050D8F80400C00305D567
:10383000DFF8440101682143016004E0DFF838014A
:103840000168A1430160D8F80400800305D5DFF8C2
:103850002C0101682143016003E048480168A1434D
:103860000160D8F80400C00204D54548016821432E
:10387000016003E042480168A1430160D8F80400F8
:10388000800204D53F4801682143016003E03D48C0
:103890000168A143016019F101099AE6BDE8F78FBB
:1038A00070B504000E001500300080B2002804D16D
:1038B0004FF4EA712748FDF780FD2800C0B20028C8
:1038C00008D02800C0B2012804D040F2D511214808
:1038D000FDF773FD2800C0B2002803D0300080B28D
:1038E000206103E0300080B20004206170BD38B573
:1038F00004000D00280080B2002804D14FF4F571B7
:103900001448FDF75AFDE068290089B2084203D047
:10391000280080B2606102E0280080B2206131BDE1
:1039200010B5040018480168220092B2114206D076
:10393000210089B20160200080B2FCF774FE10BD46
:1039400000080140000C014000100140001401403B
:1039500000180140709400080000111000002110B0
:103960000000311000001210000022100000321080
:103970001810024008000140000401400404014006
:10398000080401400C0401401404014010B410F07C
:103990000703DFF83C4122684FF6FF010A40DFF8D9
:1039A000341151EA03210A43226010BC7047DFF84A
:1039B00020010068C0F302207047010049B20029CD
:1039C0000AD4012210F01F018A40DFF80C11030015
:1039D0005BB25B0941F82320704710B4020052B279
:1039E000002A05D40A013D4B040064B21A5508E0D0
:1039F0000A013B4B040064B214F00F04234403F8A3
:103A0000042C10BC704770B4030013F00704D4F109
:103A10000700052801D3042001E0D4F10700251D8B
:103A2000072D01D2002500E0E51E012616FA00F060
:103A3000401E0140A94016FA05F56D1E2A401143AB
:103A4000080070BC704710B50400072C0BD0062C82
:103A500009D0052C07D0042C05D0032C03D09221CB
:103A60002048FDF7AAFC2000FFF790FF10BD2DE9CC
:103A7000F04104000D0016000027102E03D3AA21E8
:103A80001848FDF79AFC102D03D3AB211548FDF71C
:103A900094FCFFF78CFF8046320029004046FFF778
:103AA000B2FF0100200040B2FFF797FFBDE8F081B0
:103AB00010B50400200040B2002803D5BE210948FB
:103AC000FDF77BFC200040B2FFF777FF10BD000040
:103AD0000CED00E00000FA0500E100E000E400E089
:103AE00018ED00E018940008FF2212EAD05C1DBF18
:103AF00012EAD153944593422BE09C44D30780EAC9
:103B000001021A4043EA002043EA0121A1FB0030F0
:103B1000C04238BF40007CF17F010BDBFE294ADA4E
:103B20005B0842EAC15153EA006373F1004C51EB68
:103B300010207047D1F1080CDCF120012FDB5B086D
:103B400010FA01F10B4320FA0CF073F100415041DF
:103B5000704794451CBF02EAD153934280EA0102A8
:103B600002F000421DD0400019D0490017D05BB9C7
:103B7000634514D00902B1FA81F39940BCEB030C00
:103B8000C00140F00040C1E70002B0FA80FC10FA2A
:103B90000CF0B3EB0C0CC90141F00041B6E710008A
:103BA000704740000AD0490008D010F1807F94BFD0
:103BB00011F1807F02E042F0FF407047D043704730
:103BC000C0F3C75181B1FF2906D0C110400721F0D1
:103BD000E04101F16051704741020CBF40F4E00147
:103BE0006FF000410020704700F0004100020AD051
:103BF000B0FA80FC00FA0CF001F16051A1EB0C511D
:103C000001EBD0214005704770B44FF0004591EAB8
:103C1000030F40F149816B40841A71EB030603D214
:103C2000001BB141121973414FF4001C1CEB410FF2
:103C300034BF7CEB430442E00C0DA4EB1356352E4D
:103C40004FDC45EAC323DB0A45EAC121C912B6F1BC
:103C500020050DDD63FA05F6EB4086EA0305124206
:103C600018BF45F00105C01851F100010CD213E056
:103C700062FA06F5F2405540F3415A40B340F34032
:103C80005A408018594107D349085FEA30005FEA7B
:103C9000350528BF45F0010501F58011420875F191
:103CA000004250F1000041EB04514E0016F5001F98
:103CB00070BC38BF70470020090D090570471CEB28
:103CC000410F10D252EA43060BD0BCEB410F05D88E
:103CD0000C0DAB43661E342EB6DD02E0AB438018FC
:103CE000594170BC704770BC70470268531C036038
:103CF00011707047B0B581EA030C0CF0004C40F233
:103D0000FF7515EA11541DBF15EA1357AC42AF42B7
:103D100039E0E41923EA455343F48013C90241F022
:103D2000004141EA505EC7021100A7FB02020028D1
:103D30004FF00000EEFB01204FF00001E3FB0721F4
:103D400018BF42F00102401800214941E3FB0E0177
:103D5000A4F580640F0302D252004041494154F15E
:103D600001046CDD470872F1004250F1000051EB94
:103D70000451A1F580115CBF41EA0C01B0BD4CEAD1
:103D800005510020B0BD05EA1357AC4214BFAF4245
:103D900041E050EA410E1CBF52EA430E02E0614688
:103DA0000020B0BD24423C441BD15FEA070EF6D090
:103DB000090302BF01460020AEF1140EB1FA81F7EB
:103DC000AEEB070401FA07FE0C37C7F1200100FA39
:103DD00007F7C8404EEA000E23EA455343F4801328
:103DE000A2E733F00043B3FA83F704BFB2FA82FECE
:103DF00077440B3FE41BB7F1200E2FBF02FA0EF3FE
:103E0000BB40C7F1200E22FA0EFE38BF43EA0E0374
:103E1000BA40641C82E750EA410E14BF52EA430ED6
:103E20006FF000014FF4001717EB430F8ABF1946DC
:103E300017EB410FB5E74CEA05510020B0BDD4F1B6
:103E40000104B4F120070FDAC4F12007520828BF9B
:103E500042F0010210FA07F501FA07F7E1BF2A4321
:103E6000E0403843E1400FE0352C98DCC7F12004F6
:103E700052EA400220FA07F218BF42F0010231FA7A
:103E800007F0A1400A43002172F1004250F1000006
:103E900051EB0C01B0BD010270B44FF0004591EA46
:103EA000030F7FF5B9AE6B40841A71EB030604D2A1
:103EB0006E40001BB141121973414FF4001C1CEB02
:103EC000410F34BF7CEB430683E00C0DA4EB13568B
:103ED000362E00F37C80012E45EAC32341DC43EA01
:103EE000525312BFD20292025B08240545EAC12157
:103EF00041EA5051D2EBC020994125D407D1B0FA04
:103F000080F610FA06F162D00020203608E0B1FAFF
:103F100081F6B140C6F1200220FA02F21143B0400E
:103F20004FEAF474B4EB465434F001064FEA7404DB
:103F30000AD8D6F50016760D04F00044F04061FA78
:103F400006F25040F1404840C00A40EA415021F09A
:103F5000004128BF5FEA500550F1000044EBD12139
:103F600035E0DB0A45EAC121C90AB6F120050EDDBC
:103F700042EA0242120CC5F1200603FA06F6EB40B3
:103F800042EA06056D42984161F100010DE062FAD6
:103F900006F5F240554063FA06FC82EA0C02F34053
:103FA0005A406D42904161EB030111F4801F05D12D
:103FB000641E620502D06D004041494121F4801128
:103FC000430875F1004350F1000041EB045170BC0F
:103FD00070471CEB410F15D223F0004352EA430611
:103FE0000BD04FEA4C0CBCEB410F04D80C0D661EF5
:103FF000342EB7DDEBE7801A994150EA410608BF3D
:104000000021E4E708BF1CEB430F28BF6FF000015D
:10401000DDE7000001F000428B1AA3F16051B1F519
:10402000801F0ADBB1F17F6F1FD242EAC102C100DB
:1040300071F1004142EB507070470B15C3F1090359
:10404000212B10D2890241EA905180020128494176
:1040500041F0004121FA03F0C3F12003994071F1CE
:10406000004150417047100070476FF0000013EBA3
:10407000103F5CBF000E42EAC05070474FF0807C9A
:104080001CEB400F94BF1CEB410F05E040EA010C14
:104090001CEB0C0F01D28842704718BF8142704759
:1040A00010B5114C00221149200000F0F4FF002847
:1040B00001D0FDF781F90E49200001F008F8002831
:1040C00001D0FDF779F90B49200001F03DFB0028F4
:1040D00001D0FDF771F9200001F004F8002801D0AB
:1040E000FDF76AF910BD00BF702200209801002082
:1040F000840000208801002090EA010F40F14882EE
:1041000081F00041431A4FF000423EBF5340C01AB5
:10411000C91800BFD3095FEAD05C13EB400F34BF6E
:10412000B3EB410F40E07CEBD1530CD342EA0121C9
:1041300022D8D1EB402009D3400A28BF5FEA5001C2
:1041400040EBCC507047401A15D04002B0FA80F2D4
:10415000521C9040400A4FEA3C23B3EB026384BFF9
:1041600000EB730007E040F400001A16DB07C2F111
:104170000102D04018437047182BFCDC31FA03F2DF
:1041800002FA03F3591A38BF42F00102D2EB402081
:104190003CBF4000ACF1010C5FEACC5CC20572F19F
:1041A00000414CEB5020704713EB400F0FD2C94237
:1041B00009D0ACEBD153022B03DB4902172BDDDD19
:1041C00070479143401AC042D5D10020704713EB8D
:1041D000410FD0D36FF0000070470000F0B540F2FF
:1041E000FF7581EA030C0CF0004C15EA11541DBF59
:1041F00015EA1357AC42AF42E5E0BC41C1F31301ED
:10420000C3F31303801A994143F4801304D2641E4C
:104210004000494180185941C90241EA5051B1FB5F
:10422000F3F603FB1611A2FB0675D7EBC020A941DC
:1042300002D2761E80185941C90241EA5051B1FBA1
:10424000F3FE03FB1E11A2FB0E75D7EBC020A941A4
:1042500003D2AEF1010E80185941890241EA905112
:10426000760546EA8E2EB1FBF3F603FB1611A2FB90
:104270000675D7EB8020A94102D2761E80185941DD
:10428000C90241EA50514EEA060EB1FBF3F603FBB8
:104290001611A2FB0675D7EBC020A94102D2761EEB
:1042A00080185941C90241EA5051B1FBF3F703FBB1
:1042B0001711A2FB0735D3EBC020A94167F1000716
:1042C0000CBF004247F0010766F3D5274FEA1E31C5
:1042D000B80814F5806412DDBD0775F1004250EB9B
:1042E0000E5051EB045111F5801F5CBF41EA0C01E7
:1042F000F0BD4CF07F6141F0E0410020F0BDBD0712
:104300006D0840EA0E5041F48011D4F10104B4F17B
:1043100020060ADAC4F120060200E04001FA06F3A2
:10432000E1401843B24015430EE0342C13DCC6F1D3
:10433000200445EA40056D0820FA06F2154321FAEB
:1043400006F0A1400D43002175F1004250F100003C
:1043500051EB0C01F0BD00205FEA0C01F0BDCFB9BC
:1043600092185B41B3FA83F704BFB2FA82F6BF1921
:104370000B3FB7F120062FBF02FA06F3BB40C7F18F
:10438000200622FA06F638BF3343BA401CB1E419BE
:10439000641E33E77F4231F00041B1FA81F404BF7B
:1043A000B0FA80F6A4190B3CB4F120062FBF00FA36
:1043B00006F1A140C4F1200620FA06F638BF3143C9
:1043C000A0403C1B1AE7AC421ABF05EA1357AF42A4
:1043D00012E050EA41061CBF52EA4306BFE750EA2A
:1043E0004107304661461CBF41EA0551F0BD52EA23
:1043F000430C08BFC143F0BD00204FF4001616EB7C
:10440000410F98BF16EB430F08BF16EB410F24BFB7
:10441000C14305E016EB430F0CBF61464CEA055162
:10442000F0BD000000280AD0B0FA80F18840D1F138
:104430009D01C905020672F1004241EB1020704750
:1044400010B5FF2313EAD0541DBF13EAD1529C428A
:104450009A4239E0A41ADA0780EA0103134042EADB
:10446000012142EA0020421A3CBF641E01EB4202D5
:10447000090AB2FBF1FE01FB1E221202B2FBF1F0AF
:1044800001FB10226EF30F201202B2FBF1FE4EEA86
:1044900000207F3406DDFE2C24DA53EA500050EB76
:1044A000C45010BDD4F1020401FB1E2240F0807103
:1044B000192C1DDC21FA04F0C4F12004A1401143A1
:1044C00071F10042584110BD9C421ABF03EAD1521B
:1044D0009A420FE080EA010E0EF00043400004D043
:1044E000490016D143F0FF4010BD490008BFD34337
:1044F000180010BD9C4205D1D21AF7D001F000413E
:10450000484010BD4A0212BF0846484000F0004033
:1045100010BD4AB90902B1FA81F2914044B1A41820
:10452000C00140F000409EE7C90141F00041524205
:104530000002B0FA80F4A040141B94E7C11768B1E0
:104540004840401AB0FA80F29040D21CC907C2F528
:10455000846241EA025202EBD0214005704700001C
:10456000C2175040801AB0FA80F10AD08840D1F1C9
:104570009D01D20742EAC151020672F1004241EBAD
:104580001020704790EA010F7FF5BCAD81F000412B
:10459000421A3CBF801A89184FF0004CC0F3C75232
:1045A000FF2A24D0C1F3C75313B3D21AD2F119038F
:1045B00027DD4CEA01214CFA03F321EA0303D14041
:1045C000C20D4CEA0020401834BF20EA0C004CEA2F
:1045D0005000D20553EA006373EB0C0C52EB102031
:1045E000420012F1807F38BF7047C00DC005704790
:1045F000490212BF9A4200EB5120F8E7D2F11703AB
:10460000D9D57047C0F3C7517E390EDDC217D1F13D
:10461000200106DD000240F00040C8401044504038
:104620007047D04380F00040704700207047000082
:104630004FF4001C1CEB410F94BF1CEB430F09E02F
:1046400041EA030C50EA4C0C52EA0C0C03D299429A
:1046500008BF9042704714BF8B42824270470000EF
:104660000CB430B583B00A4606A902910446002571
:104670000194009502AB01A9084878441E3001F06E
:10468000C1F8019A157000284EBF04460198041B1A
:10469000204603B030BC5DF80CFB00BF4FF6FFFFB7
:1046A00010B5354C00223549200001F057F8344947
:1046B000200001F060F8002010BD002070470300CA
:1046C0001800C0B2002810D001280FD002280ED048
:1046D00003280DD004280CD020280BD021280AD084
:1046E000222809D0232808D008E007E006E005E0EA
:1046F00004E003E002E001E000E0FFE70020704793
:104700002DE9F84304000D001B4E2100300001F09C
:1047100032F8300001F057F840260027DFF86480B7
:10472000C1463A003100484602F010F82A682100DC
:10473000404602F03FF80120134908700020BDE810
:10474000F2832DE9F04104000D0000260A4FD7F84E
:10475000B882D8F81402002801D0012009E02A000C
:1047600092B22100380000F0F9FF380001F00AF899
:10477000C0B2BDE8F081000070220020B4300020FB
:1047800074300020F42F00202632002001480068F9
:10479000704700BFD831002040EA010C1CEB0C0F21
:1047A00007D0884205D14FEA400C1CF1807F98BFAA
:1047B0008042704703490A680348007882180A60FB
:1047C000704700BFD83100206E0200202DE9F04371
:1047D00087B0040000250026002221001E20FFF7DC
:1047E00046F91E20FFF764F91948016851F00401E9
:1047F0000160006810F004000090009801A902A870
:10480000FEF724F8FEF70CF847001248B7FBF0F863
:10481000B8F10108DFF840901048C9F8000040F2F4
:10482000E730C9F80C00C9F804800020C9F810006E
:104830000020C9F808004846FCF7D2FD002803D143
:104840004846FCF734FE00E0012007B0BDE8F083E5
:104850001C10024040420F0034300020000800408D
:104860007047704770477047704770472DE9F04FA9
:1048700085B006000F0090469946DDF838A00F9CE1
:10488000109D002C07D1502080F31188BFF34F8F6B
:10489000BFF36F8FFEE7002D07D1502080F3118802
:1048A000BFF34F8FBFF36F8FFEE754200090009847
:1048B000542807D0502080F31188BFF34F8FBFF3E7
:1048C0006F8FFEE7002D19D0002C17D0AB46CBF828
:1048D000304002208BF8510000200390CDF808B042
:1048E00004A80190CDF800A04B46424639003000A4
:1048F00000F047F8584600F0A7F801E000200490C7
:10490000049805B0BDE8F08F2DE9F84F84B006009B
:104910000F0090469946DDF838A0DDF83CB04046DF
:1049200080B2800001F07EFF0500002D0BD05420E6
:1049300001F078FF0400002C01D0256304E028007A
:1049400001F09CFF00E00024002C15D0002084F82A
:104950005100002003900294CDF804B0CDF800A0DF
:104960004B46424692B23900300000F00AF820006F
:1049700000F06AF8012001E05FF0FF3005B0BDE80B
:10498000F08F2DE9F84F05000E0017009846DDF86E
:1049900028900B9CDDF830A0DAF8300000EB87009F
:1049A000001FC008C0000090009810F0070F07D04B
:1049B000502080F31188BFF34F8FBFF36F8FFEE756
:1049C0005FF0000BBBF1100F0CD216F80B000AEBD6
:1049D0000B0181F8340016F80B00002802D01BF1FF
:1049E000010BEFE700208AF84300B9F1070F01D36C
:1049F00006208146CAF82C90CAF844900020CAF8D4
:104A000048001AF1040001F05AFF1AF1180001F0F1
:104A100056FFCAF810A0D9F10700CAF81800CAF862
:104A200024A00020CAF84C0000208AF8500042461A
:104A30002900009801F082FFCAF80000002C01D084
:104A4000C4F800A0BDE8F18F38B5040001F0E2FF22
:104A5000DFF8DC130868401C0860DFF8D8532868CA
:104A6000002806D12C60086801280DD100F0FEF95D
:104A70000AE0DFF8C4030068002805D1E06A29686D
:104A8000C96A884200D32C60DFF8B0030168491C72
:104A90000160DFF8AC130A680123E06A83401A431F
:104AA0000A60211DDFF89C23E36A1420434302EBD4
:104AB000030001F007FF01F0C7FFDFF87C03006887
:104AC00000280DD02868C06AE16A884208D25FF0E9
:104AD0008050DFF8A4140860BFF34F8FBFF36F8FCF
:104AE00031BD38B505000024002D15D0DFF81404C1
:104AF0000068002807D0502080F31188BFF34F8F43
:104B0000BFF36F8FFEE700F05BF80021280000F094
:104B10004DFA00F05BF80400002C08D15FF08050E3
:104B2000DFF858140860BFF34F8FBFF36F8F31BDAC
:104B300010B586B0002004900020039005AA03A9B8
:104B400004A801F0D1FFDFF84044049802900398D4
:104B50000190002000900023059ADFF830140FF236
:104B6000E920FFF783FE20602068002801D001249F
:104B700000E00024012C16D1502080F31188BFF3EF
:104B80004F8FBFF36F8F5FF0FF30DFF804140860C2
:104B90000120DFF8A41208600020DFF8F813086095
:104BA00001F0F1FE0AE014F1010F07D1502080F36B
:104BB0001188BFF34F8FBFF36F8FFEE706B010BDB4
:104BC000DFF840030168491C01607047F8B5002513
:104BD0000026DFF830432068002807D1502080F3FA
:104BE0001188BFF34F8FBFF36F8FFEE701F012FF05
:104BF0002068401E20602068002857D1DFF830026E
:104C00000068002852D0DFF87C130868002827D0FD
:104C1000C868C068050015F1180001F07AFE281D6B
:104C200001F077FEDFF818120A680123E86A834072
:104C30001A430A60291DDFF80C22EB6A1420434353
:104C400002EB030001F03EFEE86ADFF8E8110968B4
:104C5000C96A8842D7D30120DFF840130860D2E741
:104C6000002D01D000F072F9DFF82C733C68002CA5
:104C70000CD000F01FF8002803D00120DFF81C132F
:104C80000860641E002CF4D100203860DFF80C03AB
:104C9000006800280AD0012006005FF08050DFF88D
:104CA000DC120860BFF34F8FBFF36F8F01F0CCFEB3
:104CB0003000F2BD2DE9F0410027DFF8480200681E
:104CC00000286ED1DFF8CC020468641C0460002C5C
:104CD0001CD1DFF8CC1208680068002807D05020EB
:104CE00080F31188BFF34F8FBFF36F8FFEE7D1F8CA
:104CF0000080DFF8B00202680A60C0F80080DFF8C8
:104D0000A8020168491C016000F020F9DFF88082E8
:104D1000D8F80000844238D3DFF8841208680068AD
:104D2000002804D15FF0FF30C8F800002DE00868CB
:104D3000C068C068050068680600B44202D2C8F8BE
:104D4000006022E0281D01F0E4FDA86A002803D0DD
:104D500015F1180001F0DDFD39490A680123E86A00
:104D600083401A430A60291D364AEB6A14204343E4
:104D700002EB030001F0A6FDE86A2E490968C96A42
:104D80008842C9D301200700C6E72A4800682D4998
:104D9000C26A142042438858022807D30120070022
:104DA00004E0DFF8F4010168491C0160DFF8EC0160
:104DB0000068002801D0012007003800BDE8F0811C
:104DC000DFF840010068002804D00120DFF8CC1192
:104DD00008602BE00020DFF8C41108601848006864
:104DE000B0FA80F1D1F11F011422164B02FB01F041
:104DF0001858002807D1502080F31188BFF34F8F37
:104E0000BFF36F8FFEE702FB01F203EB0200426883
:104E100052684260426810F108039A4202D1426827
:104E2000526842604068C068024A106070470000E3
:104E3000EC310020DC310020F83100200832002065
:104E4000F4310020C02D002010B5040000F03AF825
:104E5000DFF8E40100680228F8D35FF0805047498A
:104E60000860BFF34F8FBFF36F8FEFE770B500247B
:104E7000072C09D2DFF8C001142101FB04F108441A
:104E800001F00EFD641CF3E7DFF8B051280001F0DB
:104E900007FDDFF8AC61300001F002FDDFF8E4004F
:104EA00001F0FEFC064801F0FBFC354801F0F8FC7F
:104EB000DFF8EC000560DFF88C01066070BD0000D3
:104EC0005031002038B5DFF880512868002817D00D
:104ED00001F0A0FDDFF87401C068C0680400201D67
:104EE00001F017FDDFF868010168491E01602868BC
:104EF000401E286001F0A8FD200000F005F8E2E760
:104F000031BD00001432002010B5040094F85100A7
:104F1000002806D1206B01F0B1FC200001F0AEFCAE
:104F200013E094F85100012803D1200001F0A6FC01
:104F30000BE094F85100022807D0502080F311882C
:104F4000BFF34F8FBFF36F8FFEE710BDDFF8502028
:104F500010680068002805D15FF0FF30DFF83020CE
:104F6000106007E01068C068C06801004868DFF89A
:104F7000202010607047000004ED00E004ED00E028
:104F8000643100203C31002010320020B09900082C
:104F90000C320020F0310020FC31002000320020D3
:104FA000E0310020E4310020043200202DE9F041FE
:104FB00005000C001F480768DFF87480D8F800006F
:104FC000001D01F0A6FC002808D1D8F800002149F6
:104FD0000A680123C06A83409A430A6015F1010FF1
:104FE00008D1002C06D0D8F80000011D1A4801F0A5
:104FF00069FC1AE0E8190600D8F800004660BE42D5
:1050000007D2D8F80000011D0E48006801F066FCC8
:105010000BE0D8F80000011D1048006801F05EFCAC
:105020000F4801688E4200D20660BDE8F0810000A2
:10503000DC310020F0310020C02D00201431002090
:1050400028310020E4310020E831002050310020D8
:10505000EC310020F431002064310020E0310020E8
:105060000C32002000B500BF13009646944610395C
:1050700028BFA0E80C50FAD85FEA417C28BF0CC0DA
:1050800048BF40F8042BC90728BF20F8022B48BFAF
:1050900000F8012B00BD70B505000C001600002DB6
:1050A00001D1022012E0D5F8B402002802D000207D
:1050B000C5F8B402002C01D0C5F8B042012085F833
:1050C0009C022E70280001F08EFD002070BD0200B1
:1050D0000023002903D0C2F8B412002000E002200F
:1050E000C0B2704710B50400200001F0BCFD0020E4
:1050F00010BD01000020704770B504000D000226AD
:10510000D4F8B40200280AD02900C9B22000D4F88B
:10511000B42212689047002801D100200600300018
:10512000C0B270BD38B504000D002900C9B220001E
:10513000D4F8B42252689047002032BD38B504003C
:105140000D00290014F52A7002F061FA0120C4F85C
:105150009402B4F8AE02C4F8980294F8A80210F0D1
:105160001F00002803D002280DD006D311E014F54B
:105170002A71200001F074FE12E014F52A7120005B
:1051800001F0C1FE0CE014F52A71200001F0F2FEDE
:1051900006E094F8A81211F08001200001F0A3FDB0
:1051A000002032BDF8B504000F0015003800C0B271
:1051B000002839D114F5AA700600D4F89402032807
:1051C00026D13069F168884210D2F1683069091A35
:1051D000F160F0683169884201D2F26800E032691A
:1051E00092B22900200002F09EFA30E0D4F8B40216
:1051F0000069002808D094F89C02032804D12000FC
:10520000D4F8B41209698847200002F099FA1EE028
:10521000D4F8940205281AD10020C4F89402002181
:10522000200001F060FD12E0D4F8B402806900288B
:105230000BD094F89C02032807D13900C9B2200092
:10524000D4F8B4229269904701E0022000E00020E7
:10525000F2BDF8B504000D0016002800C0B2002809
:1052600068D114F114000700D4F8940202284AD13E
:105270003869F968884210D2F9683869091AF96002
:10528000FA6892B23100200002F028FA00230022CE
:105290000021200001F098FD41E0B8683969B0FBB9
:1052A000F1F201FB1200002817D1B8683969884271
:1052B00013D3B868D4F8981288420ED20022002185
:1052C000200002F00BFA0020C4F89802002300220C
:1052D0000021200001F078FD21E0D4F8B402C0687C
:1052E000002808D094F89C02032804D12000D4F8A8
:1052F000B412C96888478021200001F0F4FC200026
:1053000002F02BFA0BE0D4F89402042803D0D4F86E
:105310009402002803D18021200001F0E4FC94F8DD
:10532000A002012819D12000FFF7E3FE002084F835
:10533000A00212E0D4F8B402406900280BD094F81F
:105340009C02032807D12900C9B22000D4F8B42256
:105350005269904701E0022000E00020F2BD10B544
:105360000400402300220021200001F08BFC0120DA
:10537000C4F858014020C4F8640140230022802171
:10538000200001F07FFC0120A0614020606201202C
:1053900084F89C020020C4F8940200206060002081
:1053A000C4F8A402D4F8B802002806D06168C9B2D3
:1053B0002000D4F8B42252689047002010BD0200AB
:1053C000117400207047010091F89C0281F89D0241
:1053D000042081F89C0200207047010091F89C0293
:1053E000042803D191F89D0281F89C0200207047A7
:1053F00010B5040094F89C02032809D1D4F8B40233
:10540000C069002804D02000D4F8B412C9698847C4
:10541000002010BDF8B505000E000027287C0028EC
:1054200013D14FF4007302228121280001F02AFCDD
:105430000120E8624FF4007302220121280001F0EC
:1054400021FC0120C5F86C0110E0402302228121DB
:10545000280001F017FC0120E8624023022201210C
:10546000280001F00FFC0120C5F86C01082303227D
:105470008221280001F006FC012028644FF4077007
:1054800001F0C7FCC5F8B802D5F8B802002802D16F
:10549000012007001FE0D5F8B8020400D5F8BC02CF
:1054A000006880470020C4F814020020C4F81802E5
:1054B000287C002808D14FF40073D4F8042201217D
:1054C000280001F081FC06E04023D4F804220121E9
:1054D000280001F079FC3800C0B2F2BD70B50400BC
:1054E0000D0000268121200001F0E8FB0020E06291
:1054F0000121200001F0E2FB0020C4F86C018221B0
:10550000200001F0DBFB00202064D4F8B802002862
:105510000AD0D4F8BC0240688047D4F8B80201F041
:1055200085FC0020C4F8B8023000C0B270BDF8B5E8
:1055300004000D00D4F8B86200208DF800000020AF
:10554000ADF802000027287810F06000002828D06D
:10555000202863D1E88800281BD0287800060CD5C5
:10556000EA8831006878D4F8BC329B689847EA88AA
:105570003100200002F09CF812E0687886F8000202
:10558000E88886F80102EA883100200002F0B3F8CA
:1055900006E0002229006878D4F8BC329B6898475E
:1055A00042E06878002804D00A2814D00B2823D0C1
:1055B0002DE094F89C02032806D102220DF102018D
:1055C000200002F075F805E02900200002F033F811
:1055D0000220070021E094F89C02032805D1012253
:1055E0006946200002F064F805E02900200002F07E
:1055F00022F80220070010E094F89C02032805D04E
:105600002900200002F017F80220070005E0290019
:10561000200002F010F80220070005E02900200019
:1056200002F009F8022007003800C0B2F2BDF8B558
:1056300004000D00D4F8B862D4F8C072D4F8B802EF
:1056400000282CD014212800C0B248432044C0694F
:1056500000281FD02800C0B248432044C0692A0057
:10566000D2B252013A44926BB0FBF2F302FB130048
:1056700000280FD12800C0B201FB00F104EB0100AB
:105680000021C161002300222900C9B2200001F0DD
:1056900080FB02E00020C6F81402002000E0022097
:1056A000F2BD70B504000D00D4F8B8622900C9B28B
:1056B000200001F0A4FBC6F80C02D4F8B8020028C0
:1056C00009D016F50371D6F80402D4F8BC22D268CA
:1056D0009047002000E0022070BD38B50400D4F8E7
:1056E000B852D4F8BC02002810D095F80002FF2868
:1056F0000CD095F8012292B2290095F80002D4F856
:10570000BC329B689847FF2085F80002002032BD1C
:1057100001004320088008487047010043200880AA
:105720000648704701004320088005487047010083
:105730000A2008800348704700010020BC000020B8
:10574000440100207800002002000220002903D03C
:10575000C2F8BC1200231800C0B2704710B4030096
:10576000D3F8B842C4F80812100080B2C4F810028E
:10577000002010BC70470200D2F8B832C3F80412FF
:105780000020704738B50400D4F8B852D4F8B802F5
:10579000002816D0D5F81402002810D10120C5F831
:1057A0001402D5F810022063D5F810329BB2D5F858
:1057B00008228121200001F0ECFA002002E0012003
:1057C00000E0022032BD38B50400D4F8B852D4F855
:1057D000B802002814D0207C002808D14FF40073B0
:1057E000D5F804220121200001F0EEFA06E0402362
:1057F000D5F804220121200001F0E6FA002000E0A3
:10580000022032BD2DE9F04F0FF2A41CA1B0DCE95B
:105810000089CDE900892A9DDFF8DC9B04910024F2
:105820008DF843500D944FF0FF38824616461F46C0
:105830000FE0B3462C461BF8011B0498D047002804
:10584000049000F0A2800D98401C641E0D90F2D1CF
:1058500076193078252808D1002100220791089276
:1058600009910A920B910C920DE06A46414630462E
:1058700001F0B2FF050001D10D98A1E0D9D50125B5
:10588000E6E741F0010116F8010F2028F9D023289E
:105890000CD02B2804D02D2805D0302809D076E054
:1058A00041F00201EFE741F00401ECE741F00801AB
:1058B000E9E741F01001E6E70F9209E00F9848454B
:1058C00005DA00EB800402EB4402303A0F92761CBA
:1058D0003278A2F130000A28F0D330782E2818BF91
:1058E000CDF8388022D116F8010F2A2807D1386860
:1058F0003860761C50F8042B38600E9216E02D2884
:105900000CBF761C002000220E920AE040B90E9ACD
:105910004A4505DA02EB820403EB4403303B0E9365
:10592000761C3378A3F130020A2AEFD3ADF8401089
:1059300021A0317801F05AFF08B116F8010B8DF85B
:1059400042009DF84200682804D1307868280AD1C6
:10595000622105E06C2804BF30786C2803D17121E6
:105960008DF84210761C12A806903A4616F8013BB4
:1059700002A9504600F064F838B912AA02A95046AC
:1059800000F0C8F900287FF564AF404618E02A28E7
:1059900092D13A683A6052F8040B3A6000280F90AE
:1059A00003D540420F9041F00401761C95E70000BA
:1059B0000000000000000000686A6C747A4C00006F
:1059C00021B0BDE8F08F622820D0682811D06A2865
:1059D00003D06C2827D0712825D10868C01D20F07D
:1059E00007000860D0E90023083008601946104617
:1059F0007047002A0A680A60106803D0121D0A6006
:105A000000B217E0121D0A6080B217E0002A0A688F
:105A10000A60106803D0121D0A6040B20AE0121D2D
:105A20000A60C0B20AE0002A0A680A60106803D05F
:105A3000121D0A60C1177047121D0A6000217047CD
:105A40007CB50D4611461C462E69B4F1250200F0C6
:105A50004F811C3A00F08480121F022A40F280809D
:105A60000E3A00F00981521F59D0093A78D0921E9F
:105A700016D0521E35D0521E022A71D9121F30D0B4
:105A8000521F00F09880521E49D0521E00F0E28052
:105A9000D21E00F0FF80921E41D0D21E3FD02DE1D9
:105AA00095F83A406C2C09D06869421C6A610A6812
:105AB0000A6052F8043B0A60335429E10A680A601C
:105AC00052F8043B0A600093002201924FF0FF332A
:105AD0002B636A46294600F098F9002840F11881A6
