:020000040800F2
:100000003838002055B50008A1B30008A3B3000894
:10001000A5B30008A7B30008A9B3000800000000BA
:10002000000000000000000000000000DB99000854
:10003000ABB300080000000095990008798600081D
:10004000F3B50008F7B50008FBB50008FFB50008D8
:1000500003B6000807B600080BB600080FB6000884
:1000600013B6000817B600081BB600081FB6000834
:1000700023B6000827B600082BB600082FB60008E4
:1000800033B6000837B600083BB600083FB6000894
:10009000ADB3000843B6000847B600084BB60008E9
:1000A0004FB6000853B6000857B600085BB6000804
:1000B0005FB6000863B60008B7B30008C1B3000814
:1000C000CBB3000867B600086BB600086FB600082F
:1000D00073B6000877B600087BB600087FB6000844
:1000E00083B6000887B600088BB6000870B5040018
:1000F000002C01D1012048E12068DFF898158842E2
:100100000AD02068DFF89015884205D040F2CD1162
:10011000DFF8880502F08DFF6068002804D0606871
:10012000DFF87C15884205D34FF4E771DFF86C05E2
:1001300002F07FFFA068002809D0A068B0F5804FCA
:1001400005D040F2CF11DFF8540502F072FFE068ED
:10015000800A8002002805D04FF4E871DFF83C05E2
:1001600002F067FF2069B0F5804F09D02069B0F533
:10017000404F05D040F2D111DFF8200502F059FFC1
:100180006069002808D06069012805D04FF4E97142
:10019000DFF8080502F04DFFA06930F0FE000028EE
:1001A00005D040F2D311DFF8F40402F042FFE06919
:1001B000002808D0E069402805D04FF4EA71DFF844
:1001C000DC0402F036FF206A002808D0206A80286C
:1001D00005D040F2D511DFF8C40402F02AFF94F8EC
:1001E0003D00002805D1002084F83C00200002F0EA
:1001F00044FF242084F83D00206800684008400047
:100200002168086003F070FC0100DFF89804626860
:10021000824208D2DFF89024914201D2012200E00C
:100220000022D2B207E0DFF88424914201D20122F9
:1002300000E00022D2B2012A01D10120A5E0DFF8BE
:100240007024B1FBF2F223685B689B099B011343A6
:1002500025686B6023681B6A6568854201D2551C5E
:1002600008E04FF4967505FB02F54FF47A76B5FB7E
:10027000F6F56D1C9B099B012B4325682B622368B7
:10028000DB696568854214D2481E65686D00B0FB65
:10029000F5F0401C0005000D042801D204253EE0C5
:1002A000481E65686D00B0FBF5F56D1C2D052D0D24
:1002B00035E0A068002809D14D1E6668032046433A
:1002C000B5FBF6F0401C0005000D0AE04D1E666807
:1002D00019204643B5FBF6F0401C0005000D50F414
:1002E0008040000501D1012519E0A068002809D14E
:1002F0004D1E666803204643B5FBF6F56D1C2D05C3
:100300002D0D0AE04D1E666819204643B5FBF6F533
:100310006D1C2D052D0D55F4804555F40045DFF875
:10032000940303402B432068C3612068036833F0C3
:10033000C003E0690343206A034320680360206828
:100340008368DFF87403034020690343E0680343D4
:10035000206883602068C3681B0A1B02A569606966
:1003600005432B432068C3602068006850F00100FB
:100370002368186000202064202084F83D000020BD
:100380002063002084F83E00002070BD2DE9FC476A
:1003900004000D0016001F00DDF8288003F020FC8B
:1003A000814694F83D00202840F07181CDF80090FE
:1003B00019230122DFF80413200001F012FC0028A9
:1003C00001D0022064E194F83C00012801D1022010
:1003D0005EE1012084F83C0020680068C00705D475
:1003E0002068006850F001002168086020680068FB
:1003F00030F4006021680860222084F83D0010205D
:1004000084F83E000020206466626785608D208548
:10041000DFF8AC02E0624B464246290089B2200078
:1004200001F04AFA002801D0012031E1208D002896
:100430000FD10020009020684069009020688069FA
:10044000009000982068006850F4007021680860EF
:1004500044E0208D012817D12068006830F48060C6
:100460002168086072B60020009020684069009002
:1004700020688069009000982068006850F400703F
:100480002168086062B629E0208D022817D1206813
:10049000006850F400602168086072B60020009087
:1004A000206840690090206880690090009820686A
:1004B000006830F480602168086062B60EE0206851
:1004C000006850F480602168086000200090206877
:1004D000406900902068806900900098208D002875
:1004E00000F0CA80208D042880F09D80208D012896
:1004F00016D14A464146200001F041FC002801D0B7
:100500000120C5E020680069616A0870606A401CCB
:100510006062208D401E2085608D401E6085DDE775
:10052000208D02282FD1CDF8009043460022DFF81D
:100530009411200001F055FB002801D00120A7E014
:1005400072B62068006850F4007021680860206866
:100550000069616A0870606A401C6062208D401EFC
:100560002085608D401E608562B620680069616AE2
:100570000870606A401C6062208D401E2085608D7E
:10058000401E6085AAE7DFF83CA1CDF80090434605
:1005900000225146200001F024FB002801D0012058
:1005A00076E02068006830F480602168086072B6E8
:1005B00020680069616A0870606A401C6062208D72
:1005C000401E2085608D401E6085CDF8009043461A
:1005D00000225146200001F004FB002801D0012038
:1005E00056E02068006850F40070216808602068B8
:1005F0000069616A0870606A401C6062208D401E5C
:100600002085608D401E608562B620680069616A41
:100610000870606A401C6062208D401E2085608DDD
:10062000401E60855AE74A464146200001F0A7FB7C
:10063000002801D001202BE020680069616A087061
:10064000606A401C6062208D401E2085608D401EC7
:1006500060852068406940077FF540AF20680069E9
:10066000616A0870606A401C6062208D401E2085AF
:10067000608D401E608531E7202084F83D00002019
:1006800084F83E00002084F83C00002000E00220B6
:10069000BDE8F687005400400058004050B2000802
:1006A000811A0600A186010080841E0000093D0019
:1006B00040420F000030FFFF007CFFFF02001000EF
:1006C0000000FFFF040001002DE9F24F82B0050099
:1006D00016001F00DDF830800D9CDDF8389003F027
:1006E0007FFA8246380080B2012809D0380080B2F3
:1006F000102805D040F60E21DFF8140302F099FC13
:1007000095F83D00202840F07E81CDF800A0192307
:100710000122DFF80013280001F063FA002804D05A
:10072000002085F83C0002206EE195F83C0001288D
:1007300001D1022068E1012085F83C0028680068AA
:10074000C00705D42868006850F0010029680860D7
:100750002868006830F4006029680860222085F865
:100760003D00402085F83E0000202864C5F8248024
:100770006C85688D2885DFF89402E862CDF804A0C6
:10078000CDF800903B009BB2320092B2BDF8081049
:10079000280001F024F9002804D0002085F83C004E
:1007A000012031E1288D00280FD100200090286819
:1007B0004069009028688069009000982868006867
:1007C00050F400702968086044E0288D012817D192
:1007D0002868006830F480602968086072B60020DC
:1007E000009028684069009028688069009000980F
:1007F0002868006850F400702968086062B629E033
:10080000288D022817D12868006850F400602968F4
:10081000086072B60020009028684069009028683F
:100820008069009000982868006830F4806029682A
:10083000086062B60EE02868006850F4806029689D
:10084000086000200090286840690090286880694E
:1008500000900098288D002800F0CA80288D042878
:1008600080F09D80288D012816D1524649462800E7
:1008700001F085FA002801D00120C5E02868006950
:10088000696A0870686A401C6862288D401E288565
:10089000688D401E6885DDE7288D02282FD1CDF8B0
:1008A00000A04B460022DFF87011280001F099F9F2
:1008B000002801D00120A7E072B62868006850F433
:1008C00000702968086028680069696A0870686AA9
:1008D000401C6862288D401E2885688D401E6885F2
:1008E00062B628680069696A0870686A401C6862B4
:1008F000288D401E2885688D401E6885AAE7DFF890
:1009000018B1CDF800A04B4600225946280001F04E
:1009100068F9002801D0012076E02868006830F4EA
:1009200080602968086072B628680069696A087082
:10093000686A401C6862288D401E2885688D401EAC
:100940006885CDF800A04B4600225946280001F0EA
:1009500048F9002801D0012056E02868006850F4CA
:1009600000702968086028680069696A0870686A08
:10097000401C6862288D401E2885688D401E688551
:1009800062B628680069696A0870686A401C686213
:10099000288D401E2885688D401E68855AE752467E
:1009A0004946280001F0EBF9002801D001202BE096
:1009B00028680069696A0870686A401C6862288D46
:1009C000401E2885688D401E68852868406940075C
:1009D0007FF540AF28680069696A0870686A401C42
:1009E0006862288D401E2885688D401E688531E725
:1009F000202085F83D00002085F83E00002085F885
:100A00003C00002000E00220BDE8FE8F0000FFFF58
:100A100050B2000802001000040001002DE9F04768
:100A20000400002520684668E76A94F83E8094F840
:100A30003D904046C0B2102803D04046C0B2402886
:100A40006AD12068806905002068D0F814A05FEAA8
:100A5000CA700CD4B7F52A0F02D0B7F12A4F01D1D2
:100A6000012000E00020C0B2002840F0AC801AF065
:100A70000100C0B2002808D0B00506D5200001F062
:100A8000D3F9200000F001FB9DE05FEA0A7005D574
:100A9000B00503D5200000F051FB94E05FEA8A70B6
:100AA00005D5B00503D5200000F061FB8BE0680799
:100AB00019D520684068000500F185805FEA0A606A
:100AC00008D5700506D55FEA4A7003D4200000F00F
:100AD000F3F878E05FEA4A7075D5B00573D5200069
:100AE00000F09AF96FE02068406800056BD45FEA77
:100AF0004A6008D5700506D55FEA4A7003D4200025
:100B000000F0DCF95FE05FEA4A705CD5B0055AD5C9
:100B1000200000F026FA56E0206C002803D0206860
:100B2000D0F814A005E02068806905002068D0F89E
:100B300014A05FEA8A700CD5B0050AD5206C002895
:100B400002D02068806905002900200000F0A6FC82
:100B500039E05FEACA6005D5B00503D5200000F092
:100B6000CBFC30E04846C0B2212803D04846C0B292
:100B7000292814D15FEA0A6008D5700506D55FEA16
:100B80004A7003D4200000F01FFC1CE05FEA4A70AA
:100B900019D5B00517D5200000F03DFC13E05FEA41
:100BA0004A6008D5700506D55FEA4A7003D4200074
:100BB00000F03FFC07E05FEA4A7004D5B00502D5BB
:100BC000200000F05DFCBDE8F0872DE9F84F06003D
:100BD0003068D0F814A03068D0F804B000255FEA7F
:100BE000CA500ED55FEACB500BD555F001057FF406
:100BF0008070316848613068006850F400403168A6
:100C000008605FEA8A5008D55FEACB5005D555F0F9
:100C100002057FF40070316848615FEA4A5035D5BB
:100C20005FEACB5032D596F83E000700708D040085
:100C300096F83D008046306B81463800C0B22028CF
:100C400014D1002C12D14046C0B221280AD040460F
:100C5000C0B2292806D04046C0B2282806D1B9F132
:100C6000210F03D1300000F014FD0FE07FF480600D
:100C70003168486155F0040596F83E00102805D10A
:100C80003068006850F40070316808605FEA0A500C
:100C900008D55FEACB5005D555F008057FF4006014
:100CA00031684861002D05D0306C28433064300035
:100CB00000F041FDBDE8F18FF8B5040094F83D5017
:100CC00094F83E60E76A208D002840D12800C0B229
:100CD00021283CD1082F17D0202F15D0DFF8D40BB6
:100CE000874211D02068406830F4E0602168486095
:100CF00011202063002084F83E00202084F83D006D
:100D0000200002F073FF86E02068406830F4E06065
:100D1000216848602068006850F40070216808600D
:100D200000202063202084F83D0094F83E004028F5
:100D300006D1002084F83E00200002F058FF6AE04F
:100D4000002084F83E00200002F050FF63E02800FD
:100D5000C0B2212807D03000C0B240285BD12800A3
:100D6000C0B2222857D1608D002806D12068406883
:100D700030F48060216848604DE094F83E004028DF
:100D80003FD1206D002814D1E06C012807D1A06C60
:100D9000C0B221680861206D801C20653BE0A06C1A
:100DA00080B2000AC0B221680861206D401C206535
:100DB00031E0206D012807D1A06CC0B22168086124
:100DC000206D401C206526E0206D022823D194F878
:100DD0003D00222806D12068006850F48070216808
:100DE000086018E094F83D00212814D1606A00786A
:100DF00021680861606A401C6062608D401E6085E9
:100E000009E0606A007821680861606A401C6062DD
:100E1000608D401E6085F1BD38B50400E56A94F828
:100E20003D00212849D1608D00280AD0606A0078F1
:100E300021680861606A401C6062608D401E6085A8
:100E40003BE0082D17D0202D15D0DFF8680A854229
:100E500011D02068406830F4E060216848601120BB
:100E60002063002084F83E00202084F83D0020000C
:100E700002F0BCFE21E02068406830F4E0602168A8
:100E800048602068006850F4007021680860002005
:100E90002063202084F83D0094F83E00402806D1CD
:100EA000002084F83E00200002F0A1FE05E00020B2
:100EB00084F83E00200002F099FE31BD38B50500EF
:100EC00095F83D0022284BD16C8D042C13D3286853
:100ED0000069696A0870686A401C6862688D401E13
:100EE0006885688D03283BD12868406830F48060AD
:100EF0002968486034E0E86A022831D0012C01D02A
:100F0000002C2DD12868006830F4806029680860C2
:100F10002868406830F4E060296848602868006903
:100F2000696A0870686A401C6862688D401E68853E
:100F3000202085F83D0095F83E00402808D100208B
:100F400085F83E0000202863280002F051FE07E0EB
:100F5000002085F83E0012202863280002F049FE98
:100F600031BD38B50400E56A608D042810D12068D1
:100F7000406830F480602168486020680069616AD8
:100F80000870606A401C6062608D401E60857BE076
:100F9000608D03281AD12068406830F48060216891
:100FA0004860042D07D0022D05D02068006830F479
:100FB00080602168086020680069616A0870606A62
:100FC000401C6062608D401E60855DE0608D02287F
:100FD00050D1012D01D0102D06D12068006830F4C9
:100FE00080602168086012E0042D01D0022D06D136
:100FF0002068006850F480602168086007E0102DC8
:1010000005D02068006850F40070216808602068EE
:101010000069616A0870606A401C6062608D401EF1
:10102000608520680069616A0870606A401C6062BF
:10103000608D401E60852068406830F440702168F3
:101040004860202084F83D0094F83E00402808D1F4
:10105000002084F83E0000202063200002F0C8FD3C
:1010600012E0002084F83E0012202063200002F0ED
:10107000C0FD09E020680069616A0870606A401C70
:101080006062608D401E608531BD90F83E10402941
:101090000FD1016D002905D1416C11F0FE010268EC
:1010A00011614AE0416C51F00101C9B2026811615D
:1010B00043E00169B1F5804F24D190F83D1021291A
:1010C00005D1416C11F0FE010268116105E0416C2F
:1010D00051F00101C9B202681161416B002902D1CE
:1010E000816B002929D0416B896A002903D1816B6A
:1010F000896A002921D00168496851F400610268B9
:1011000051601AE0016D00290AD1416C11F440715F
:1011100089B2C90951F0F001C9B2026811610CE04D
:10112000016D012909D1416C11F4407189B2C909DD
:1011300051F0F101C9B2026811617047416CC9B246
:1011400002681161416B002902D1816B00290DD029
:10115000416B896A002903D1816B896A002905D016
:101160000168496851F4006102685160704738B401
:1011700090F83E20C36A046B90F83D10222940F09D
:101180001781016D00290DD11100C9B2402909D183
:101190000021009101684969009101688969009105
:1011A00000990EE1016D002916D10169B1F5404F9A
:1011B00012D1002100910168496900910168896993
:1011C000009100990168096851F4807105682960EF
:1011D000016D491C0165F4E0418D00290FD100210A
:1011E000009101684969009101688969009100993D
:1011F0000168096851F4007105682960D5E0418DE6
:10120000012968D1DFF8AC168B4229D10168096841
:1012100031F48061056829600168496809050FD5C6
:101220000168096831F48061056829600021009136
:101230000168496900910168896900910099B4E0E9
:101240000021009101684969009101688969009154
:1012500000990168096851F4007105682960A4E0EB
:10126000082B22D0202B20D0122C01D1012B1CD1F5
:10127000042B0AD0022B08D0102B06D00168096875
:1012800031F480610568296005E00168096851F45E
:101290008061056829600021009101684969009119
:1012A00001688969009100997FE00168096831F45B
:1012B00080610568296000210091016849690091F9
:1012C00001688969009100990168096851F4007109
:1012D0000568296069E0418D022941D1042B19D0AC
:1012E000022B17D0102B15D00168096851F400614A
:1012F0000568296000210091016849690091016831
:101300008969009100990168096831F48061056874
:1013100029600EE00168096851F480610568296060
:101320000021009101684969009101688969009173
:10133000009901684968090537D5DFF878158B42AF
:1013400007D0012B05D0082B03D0102B01D0202B68
:101350002BD10168496851F480510568696024E027
:101360000168096851F4806105682960016849686D
:10137000090511D5DFF83C158B4207D0012B05D0AC
:10138000082B03D0102B01D0202B05D10168496810
:1013900051F4805105686960002100910168496934
:1013A000009101688969009100990021016508E0B8
:1013B00000210091016849690091016889690091E3
:1013C000009931BC7047000038B5040094F83D50D6
:1013D000608D00281ED0606A007821680861606A0C
:1013E000401C6062608D401E6085608D002811D1B8
:1013F0002800C0B229280DD12068406830F48060F0
:101400002168486021202063282084F83D002000C6
:1014100002F0F0FB31BD418D002909D0416A097805
:1014200002681161416A491C4162418D491E418532
:10143000704738B5040094F83D50608D00281ED0E8
:1014400020680069616A0870606A401C6062608D93
:10145000401E6085608D002811D12800C0B22A2866
:101460000DD12068406830F48060216848602220F7
:101470002063282084F83D00200002F0BCFB31BD31
:10148000418D002909D001680969426A1170416AD9
:10149000491C4162418D491E41857047F8B50500E0
:1014A0000E00002795F83D0010F0280028281BD1D9
:1014B0002868406830F4806029684860700701D46B
:1014C00001200700300602D4E868040001E0A869A2
:1014D0000400002085F83C00220092B23900C9B215
:1014E000280002F089FB06E07FF0020029684861CD
:1014F000002085F83C00F1BD38B5040094F83D505B
:101500002068406830F4E060216848600020009066
:101510002068406900902068006850F00100216850
:10152000086000982068006830F4806021680860D6
:101530002068406800054ED52800C0B2222803D09C
:101540002800C0B22A2823D1A06B006840686085BB
:10155000608D002803D0206C50F0040020642068C7
:10156000406830F4006021684860A06B02F0EAFB3C
:10157000012830D00FF2C950A16B4863A06B02F074
:1015800079FB002827D0A06BA16B496B884722E02C
:10159000606B006840686085608D002803D0206C17
:1015A00050F0040020642068406830F40060216836
:1015B0004860606B02F0C6FB01280CD00FF281502E
:1015C000616B4863606B02F055FB002803D0606BD1
:1015D000616B496B8847608D002822D02068406984
:1015E000400709D520680069616A0870606A401C7C
:1015F0006062608D401E608520684069400609D5A4
:1016000020680069616A0870606A401C6062608DD1
:10161000401E6085608D002803D0206C50F00400CF
:101620002064206C002803D0200000F084F82FE014
:101630002800C0B22A2807D100202063282084F87F
:101640003D00200002F0D7FA94F83D0028280DD183
:101650009848E06200202063202084F83D000020AC
:1016600084F83E00200002F070FB11E0206B22287D
:1016700003D02800C0B222280AD1002020632020F5
:1016800084F83D00002084F83E00200002F0B3FA08
:1016900031BD70B5040094F83D50E66A082E01D0C3
:1016A000202E21D12800C0B228281DD18148E06217
:1016B0002068406830F4E060216848607FF4806012
:1016C000216848612068006830F480602168086003
:1016D00000202063202084F83D00002084F83E0094
:1016E000200002F032FB25E02800C0B221281DD1E5
:1016F0007048E06221202063202084F83D00002013
:1017000084F83E002068406830F4E060216848605A
:101710007FF48060216848612068006830F4806050
:1017200021680860200002F065FA03E07FF4806021
:101730002168486170BD70B5040094F83D5094F87C
:101740003E00102809D12800C0B2222805D1206807
:10175000006830F40060216808602800C0B210F012
:101760002800282805D100202063282084F83D0087
:101770000FE020684068000506D42800C0B2602849
:1017800002D0202084F83D0000202063002084F84F
:101790003E0020684068000543D52068406830F46A
:1017A000006021684860606B90F82100012816D025
:1017B0000FF28D30616B4863606B02F05BFA0028BA
:1017C0005BD0206800684008400021680860202045
:1017D00084F83D00606B616B496B88474DE00FF208
:1017E0006130A16B4863A06B02F044FA002844D03A
:1017F00020684069400606D520680069616A087063
:10180000606A401C606220680068400840002168EF
:101810000860202084F83D00A06BA16B496B8847CD
:101820002BE094F83D00602819D1202084F83D0079
:101830000020206420684069400606D520680069C1
:10184000616A0870606A401C606220680068400835
:10185000400021680860200002F078FA0DE020685E
:101860004069400606D520680069616A0870606AB0
:10187000401C6062200002F06AFA94F83D60206C1F
:10188000400716D53000C0B2282812D12068406821
:1018900030F4E060216848600648E0620020206380
:1018A000202084F83D00002084F83E00200002F053
:1018B0004CFA70BD0000FFFF2DE9FC4104000D0053
:1018C00016001F00D4F82C802068006850F4806057
:1018D00021680860B8F1080F06D0B8F1010F03D0F5
:1018E000DFF85802804506D12068006850F4807007
:1018F0002168086008E0206B112805D12068006885
:1019000050F48070216808600097330000225FF077
:101910000111200000F065F9002801D001205CE0F1
:101920002069B0F5804F05D155F00100C0B22168A3
:10193000086146E015F4407080B2C00950F0F00034
:10194000C0B2216808613B003200DFF8E8112000D6
:1019500000F08CF9002801D001203EE02800C0B240
:10196000216808613B003200DFF8CC11200000F054
:101970007DF9002801D001202FE000200090206890
:101980004069009020688069009000982068006895
:1019900050F48070216808600097330000225FF0E7
:1019A0000111200000F01DF9002801D0012014E0F1
:1019B00015F4407080B2C00950F0F100C0B2216847
:1019C00008613B003200DFF87011200000F04EF992
:1019D000002801D0012000E00020BDE8F6812DE9BB
:1019E000FC4704000D0016001F00DDF82880DDF81C
:1019F0002C902068006850F480602168086020689E
:101A0000006850F4807021680860CDF8009043466B
:101A100000225FF00111200000F0E3F8002801D05F
:101A2000012084E015F0FE0021680861DFF808A1BC
:101A30004B4642465146200000F018F9002801D0DC
:101A4000012074E000200090206840690090206828
:101A50008069009000984A464146200000F063F9F2
:101A600000280AD0206C042805D12068006850F4B2
:101A7000007021680860012059E0380080B2012818
:101A800004D13000C0B2216808611BE0300080B290
:101A9000000AC0B2216808614A464146200000F0B1
:101AA00042F900280AD0206C042805D1206800687B
:101AB00050F4007021680860012038E03000C0B2A6
:101AC000216808614A464146200000F02CF90028B0
:101AD0000AD0206C042805D12068006850F40070FA
:101AE00021680860012022E02068006850F48070BE
:101AF00021680860CDF80090434600225FF0011194
:101B0000200000F06EF8002801D001200FE055F011
:101B10000100C0B2216808614B4642465146200090
:101B200000F0A4F8002801D0012000E00020BDE86A
:101B3000F687000008000100020001000000FFFF1E
:101B400070B50400656A95F83D600020696B886295
:101B50000020A96B88622868006830F480602968DA
:101B60000860002068850020696B48630020A96B2D
:101B7000486328680068400840002968086095F8B4
:101B80003D0060280BD1202085F83D00002085F81D
:101B90003E0000202864280002F0D8F820E0300041
:101BA000C0B210F02800282811D12868006850F031
:101BB0000100296808602868006850F4806029687E
:101BC000086000202863282085F83D0005E02020DB
:101BD00085F83D00002085F83E00280002F0B7F8A7
:101BE00070BD2DE9F04105000E0017001C00DDF866
:101BF00018803000000CC0B201280AD12868406962
:101C0000304080B2B1B2884201D101200BE0002007
:101C100009E028688069304080B2B1B2884201D1C1
:101C2000012000E000203900C9B288421BD114F124
:101C3000010FDED001F0D4FFB0EB0800844201D3E5
:101C4000002CD6D100202863202085F83D000020FC
:101C500085F83E00286C50F020002864002085F8AC
:101C60003C00012000E00020BDE8F081F8B505004F
:101C70000E0014001F003000000CC0B201280AD171
:101C800028684069304080B2B1B2884201D1012059
:101C90000BE0002009E028688069304080B2B1B2D2
:101CA000884201D1012000E00020002839D12868B5
:101CB000406940051AD52868006850F4007029680A
:101CC00008607FF480602968486100202863202034
:101CD00085F83D00002085F83E00286C50F0040097
:101CE0002864002085F83C0001201BE014F1010F5E
:101CF000C1D001F075FFC01B844201D3002CBAD1C2
:101D000000202863202085F83D00002085F83E0053
:101D1000286C50F020002864002085F83C00012049
:101D200000E00020F2BD70B505000C001600286828
:101D30004069000621D4280000F05AF8002801D09C
:101D400001201BE014F1010FF1D001F049FF801BCD
:101D5000844201D3002CEAD100202863202085F89A
:101D60003D00002085F83E00286C50F020002864DB
:101D7000002085F83C00012000E0002070BD70B517
:101D800005000C0016002868406940062ED428681B
:101D90004069C00612D57FF0100029684861002014
:101DA0002863202085F83D00002085F83E00286C3F
:101DB0002864002085F83C00012018E001F010FFA5
:101DC000801B844201D3002CDDD100202863202019
:101DD00085F83D00002085F83E00286C50F020007A
:101DE0002864002085F83C00012000E0002070BD40
:101DF000010008684069400514D57FF480600A68D6
:101E0000506100200863202081F83D00002081F807
:101E10003E00086C50F004000864002081F83C008B
:101E2000012000E000207047C16AB1F52A0F02D1FD
:101E30000121C16205E0C16AB1F12A4F01D1082137
:101E4000C162704718B5A3B001F082FF00F079F8C5
:101E500000F00CFA00F0B9F800F0D6F800F045F9FF
:101E600000F0A3F900F0E6F9DFF870470021200048
:101E700002F084F80421200002F080F8DFF8544CCE
:101E80000021200002F07AF80421200002F076F808
:101E90000821200002F072F80C21200002F06EF8F8
:101EA0000021DFF83C0702F069F80020DFF8341762
:101EB00008600020DFF8301708601CA8DFF82C1736
:101EC0001C2202F083FC00211CA802F0E1FCDFF8D8
:101ED0002017086015A8DFF81C171C2202F076FCFA
:101EE000002115A802F0D4FCDFF80C1708600EA83A
:101EF000DFF808171C2202F069FC00210EA802F08E
:101F0000C7FCDFF8FC16086007A8DFF8F8161C22EB
:101F100002F05CFC002107A802F0BAFCDFF8E8162A
:101F200008606846DFF8E4161C2202F04FFC00212E
:101F3000684602F0ADFCDFF8A01B086002F0A3FCCD
:101F4000FEE700B593B009A8282102F0DFFC68463F
:101F5000142102F0DBFC05A8102102F0D7FC0120BF
:101F600009905FF480300A9000210B9101210D91BE
:101F70000221109111905FF4E010129009A801F075
:101F80009FF9002801D001F053F80F2000900220A3
:101F90000190002002904FF4806003900020049094
:101FA0000221684601F042FC002801D001F040F80F
:101FB000102005900020089005A802F0AFFC002832
:101FC00001D001F035F813B000BD80B5DFF80C0B7F
:101FD000DFF80C1B0160DFF80C1B41600021816001
:101FE0000821C1604FF4804101610021416100215D
:101FF00081610021C16100210162FEF777F80028AC
:1020000001D001F015F801BD18B591B0DFF8D80A7C
:10201000D0E90023CDE9002302A81C2102F076FCC0
:1020200009A8202102F072FCDFF8B045DFF8BC0AF5
:102030002060002060600020A0604FF46160E060DC
:1020400000202061002060610020A061200001F0DC
:102050002FFF002801D000F0EBFF002000900020AF
:1020600001906946200002F02DFD002801D000F00B
:10207000DFFF6020029000200390002004900020E9
:102080000590002006900020079000200890002274
:1020900002A9200002F08DF8002801D000F0C8FF4E
:1020A000042202A9200002F084F8002801D000F0E8
:1020B000BFFF0020099000200A9000200B90002014
:1020C0000C9000200D904FF400500E9000201090C6
:1020D00009A9200002F05AFD002801D000F0A8FF55
:1020E000200001F034F812B010BD18B589B0DFF847
:1020F000000AD0E90023CDE9002302A81C2102F048
:1021000005FCDFF8D0495FF080402060142060605B
:102110000020A06048F6A040E06000202061002080
:10212000A061200001F0C4FE002801D000F080FF73
:1021300000200090002001906946200002F0C2FCBF
:10214000002801D000F074FF60200290002003906E
:102150000020049000200690002202A9200002F036
:1021600028F8002801D000F063FF042202A9200013
:1021700002F01FF8002801D000F05AFF082202A93F
:10218000200002F016F8002801D000F051FF0C22C8
:1021900002A9200002F00DF8002801D000F048FF4D
:1021A000200000F0D4FF0AB010BD18B589B0DFF8E8
:1021B0004409D0E90023CDE9002302A81C2102F044
:1021C000A5FBDFF81C44DFF8340D20602820606098
:1021D0000020A06048F6A040E060002020610020C0
:1021E000A061200001F064FE002801D000F020FF73
:1021F00000200090002001906946200002F062FC5F
:10220000002801D000F014FF60200290002003900D
:102210000020049000200690002202A9200001F076
:10222000C8FF002801D000F003FF200000F08FFF5E
:102230000AB010BD80B5DFF8C008DFF8C41C01602B
:102240005FF4E1314160002181600021C160002123
:1022500001610C214161002181610021C16102F015
:102260002FFD002801D000F0E3FE01BD30B585B0A0
:102270006846102102F04AFBDFF88008016851F03F
:1022800010010160016811F01001049104990168C6
:1022900051F020010160016811F0200104910499BE
:1022A000016851F004010160016811F0040104911A
:1022B0000499016851F008010160006810F00800FD
:1022C00004900498DFF8384800224FF400512000B1
:1022D00003F046F8DFF82C5800224FF48061280004
:1022E00003F03EF84FF400500090012001900020D0
:1022F0000290022003906946200002F059FE4FF23E
:10230000020000900020019000200290DFF8F847C2
:102310006946200002F04CFE4FF4806000900120DE
:10232000019000200290022003906946280002F0EC
:102330003FFE20200090DFF8E00B0190002002908B
:102340006946200002F034FE05B030BD02000020D6
:10235000010089B2515C002901D0401CF8E780B22D
:1023600070472DE9704F04000D0016003000290061
:1023700003F05AF803F0C4F882468B46300003F0AD
:10238000BFF802000B000020DFF8941B03F0DCF81C
:1023900080468946200003F0B3F842464B4603F0DE
:1023A00045F952465B4603F013FA03F0CFFABDE855
:1023B000708F30B4B0F900301C000D0024B22DB283
:1023C000AC4201DA0B0006E014001D0024B22DB26D
:1023D000AC4200DA1300038030BC704738B503000C
:1023E0000C001D682800210003F0E4FA01D225004A
:1023F00005E01000290003F0DDFA00D215001D6091
:1024000031BD10B5040003F0E7FA4FF4FA7002F0A2
:102410006FFA4FF40051DFF8E80602F0C8FFF4E766
:102420002DE9F84F8146DFF8FC4A200003F000FB5D
:10243000DFF8F40A00682060DFF8F00A00686060E6
:102440000020A0600020E060DFF8E48AB8F9000016
:1024500003F04AFB2061DFF8DC5ADFF8DC0A006891
:10246000DFF8D81A03F052FB03F04AF80022DFF835
:10247000D03A03F0BDFB03F069FA2860DFF8C41A14
:10248000DFF8C47ADFF894AADAF800203868121A64
:102490000A60DFF8B8BADFF8B86A086803F0CCFC65
:1024A000DFF8B01A02F0C0FF0090B6F9000003F0A8
:1024B0001BFBDFF8A41A096802F0B6FF01000098C0
:1024C00003F0C8FCCBF80000DAF800003860DBF855
:1024D0000010DFF8887ADFF8882A3868FFF741FFB4
:1024E0003860DBF800201700286803F009F831F0A5
:1024F000004103F02BFA01003A00200003F0A9FA92
:10250000DFF8607A03F024FD3880286802F0F8FFD5
:1025100031F00041DFF8502ADFF8503A03F02EFD89
:1025200012D8DFF84C0AD0F800A0388803F084FCF9
:10253000514603F0EBFA03F039FD3880B8F900207A
:1025400000213800FFF735FFDFF8281AB1F9000045
:10255000002805D1DFF8200AB0F90000002815D0C6
:102560004FF46160B1F900104143642291FBF2F134
:102570001C4A1160DFF8001AB1F9001000FB01F0ED
:10258000642190FBF1F01849086020E028680021E0
:1025900003F022FD0DD24FF461603988D1F164015E
:1025A0004143642291FBF2F10E4A11600E4908602A
:1025B0000DE04FF461600B4908603988D1F1640186
:1025C00000FB01F0642190FBF1F007490860B6F9C7
:1025D000000002F08DF93EE700000000F42E00201C
:1025E000742F0020342C0140382C01405CB40008CA
:1025F000A031002078B40008A431002094B4000871
:10260000A8310020B0B40008AC310020CCB40008E0
:102610002DE9F14F0024DFF864090078012840F02B
:102620003182DFF85C5928784B2807D16878412837
:1026300004D1A8780D2801D100BF1AE228785328C8
:1026400032D1687854282FD1A87852282CD1A87973
:102650000D2829D1DFF82C69E97864222B790A202A
:10266000434302FB01316879411841F2D040081A16
:1026700000B203F039FA3060DFF80C290021300095
:10268000FFF7ACFEDFF804692A00DFF80419300018
:1026900003F0B4FC3000FFF759FE0400210089B2BA
:1026A000300003F01CFDE4E12878532832D168782B
:1026B00050282FD1A87844282CD1A8790D2829D1C9
:1026C000DFF87468E97864222B790A20434302FB1F
:1026D00001316879411841F2D040081A00B203F084
:1026E00003FA3060DFF8A02800213000FFF776FE03
:1026F000DFF898682A00DFF89818300003F07EFCB5
:102700003000FFF723FE0400210089B2300003F0FF
:10271000E6FCAEE1287844283BD16878492838D1D6
:10272000A878532835D1A8790D2832D10020DFF8B8
:10273000641808605FF07E50DFF85C180860DFF80E
:102740005C68E97864222B790A20434302FB01315B
:102750006879411841F2D040081A00B203F0C4F978
:102760003060DFF8242800213000FFF737FEDFF863
:102770001C682A00DFF81818300003F03FFC300016
:10278000FFF7E4FD0400210089B2300003F0A7FC4C
:102790006FE12878532823D16878552820D1A8786C
:1027A00041281DD1E8780D281AD15FF07E50DFF85E
:1027B000E41708600020DFF8E0170860DFF8CC6756
:1027C0002A00DFF8CC17300003F018FC3000FFF7C8
:1027D000BDFD0400210089B2300003F080FC48E117
:1027E000287853287BD16878552878D1A8784D2847
:1027F00075D1E87B0D2872D10020DFF898170860AA
:102800000020DFF8941708600A26DFF894775FF05D
:102810006408E8782979714308FB00106979081881
:10282000381800B203F060F9DFF878170860DFF8B5
:102830007897A879E979714308FB0010297A08187C
:10284000381800B203F050F9C9F80000DFF85CA7AF
:10285000687AA97A714308FB0010E97A08183818D9
:1028600000B203F041F9CAF80000DFF844B7287B52
:10287000697B06FB01F608FB0066A87B8619BE197A
:1028800036B2300003F030F9CBF80000DFF8F8661C
:1028900032000021DFF80C07FFF7A0FD3200002115
:1028A0004846FFF79BFD320000215046FFF796FD9A
:1028B000320000215846FFF791FDDFF8D0662A006C
:1028C000DFF8CC16300003F099FB3000FFF73EFD37
:1028D0000400210089B2300003F001FCC9E028782F
:1028E00054281ED1687847281BD1A878452818D1CC
:1028F000E8780D2815D10120DFF8B8160870DFF848
:102900008C662A00DFF88816300003F077FB300071
:10291000FFF71CFD0400210089B2300003F0DFFB4B
:10292000A7E0287854281ED1687847281BD1A878BA
:10293000442818D1E8780D2815D10020DFF8741646
:102940000870DFF848662A00DFF84416300003F00C
:1029500055FB3000FFF7FAFC0400210089B230007B
:1029600003F0BDFB85E0287853281ED168785228F3
:102970001BD1A878452818D1E8780D2815D1012059
:10298000DFF834160870DFF804662A00DFF8001656
:10299000300003F033FB3000FFF7D8FC04002100C7
:1029A00089B2300003F09BFB63E0287853281ED1E6
:1029B000687852281BD1A878442818D1E8780D28C7
:1029C00015D10020DFF8F0150870DFF8C0652A0087
:1029D000DFF8BC15300003F011FB3000FFF7B6FC48
:1029E0000400210089B2300003F079FB41E028782F
:1029F00050282DD168784F282AD1A878572827D178
:102A0000A8790D2824D1DFF82805EA7864232E79E7
:102A10000A214E4303FB026269798A1841F2D041D0
:102A2000511A018064220021FFF7C3FCDFF85C65C6
:102A30002A00DFF85C15300003F0E0FA3000FFF701
:102A400085FC0400210089B2300003F048FB10E04F
:102A5000DFF838652A00DFF86415300003F0CEFA9D
:102A60003000FFF773FC0400210089B2300003F04E
:102A700036FB01F0B5F8DFF8481508600020DFF8F4
:102A8000FC14087001F0ACF8DFF83825DFF83015D9
:102A90000968401A1060DFF8300501681368994230
:102AA00001D211680160106840F2E93188420CD30C
:102AB000DFF800050078012807D1DFF81005DFF8FE
:102AC00078140860DFF8BC1408600A2001F010FFD9
:102AD000A1E50000342F0020B0310020A02E0020FE
:102AE00000540040A0860100C4B50008002C01403D
:102AF000CCB50008D4B50008B42F0020181002404F
:102B00000010014000080140000C01402DE9F14F88
:102B100082B0DFF8BC040568DFF8B8040068DFF8AD
:102B2000B8140968DFF8B44403F0FEFA0100DFF8D6
:102B3000580403F08FF90100280003F08BF9DFF847
:102B40009814096802F0E2FF210002F06DFC03F026
:102B50002DFA642190FBF1F0DFF884140860DFF8AF
:102B600084040168DFF880040668DFF880040768E1
:102B7000DFF81454280003F0D7FA804630003900FB
:102B800003F0D2FA0100DFF8000403F063F901005A
:102B9000404603F05FF9DFF85414096802F0B6FF0D
:102BA000210002F041FC03F001FA642190FBF1F0F6
:102BB000DFF83C140860DFF83C643168DFF8380463
:102BC0000768DFF83804D0F80080280003F0ACFA7A
:102BD00081463800414603F0A7FA0100DFF8A80358
:102BE00003F038F90100484603F034F9DFF80C141B
:102BF000096802F08BFF210002F016FC03F0D6F901
:102C0000642190FBF1F0DFF8F8130860DFF8F4734B
:102C1000D7F80080DFF8F0030068DFF8F0130968E8
:102C200003F082FA0100D84803F014F9010040468D
:102C300003F010F9DFF8D413096802F067FF2100F0
:102C400002F0F2FB03F0B2F9642190FBF1F0DFF83F
:102C5000C0130860DFF8BC030168DFF8BC03D0F8DC
:102C60000080DFF8B803D0F80090280003F05CFA89
:102C700082464046494603F057FA0100C24803F035
:102C8000E9F80100504603F0E5F8DFF89013096811
:102C900002F03CFF210002F0C7FB03F087F964213A
:102CA00090FBF1F0DE490860642001F021FE002273
:102CB0004FF48061DB4802F053FBDFF85883B148E2
:102CC0000068C8F80000B34800685FF07E5103F068
:102CD0006BFA01D100BF1DE0AF4800685FF07E5184
:102CE00003F062FA08D1AD480068BE490860B849EF
:102CF0000860386030600DE0AA4800683060AA487B
:102D000000683860A9480068B1490860A8480068B0
:102D1000B4490860AE48D0F80090AE480068DFF8CB
:102D2000B8A2DAF8001003F0FFF90100964803F0AA
:102D300091F80100484603F08DF8DAF8001002F02F
:102D4000E5FE210002F070FB03F030F9642190FBF6
:102D5000F1F0A3490860A3480168A348D0F80090A7
:102D6000DFF888A2DAF800B0280003F0DDF900905F
:102D70004846594603F0D8F90100834803F06AF841
:102D80000100009803F066F8DAF8001002F0BEFEC9
:102D9000210002F049FB03F009F9642190FBF1F0F6
:102DA0009349086031689448D0F80090DFF84CA24D
:102DB000DAF800B0280003F0B7F900904846594609
:102DC00003F0B2F90100704803F044F801000098E4
:102DD00003F040F8DAF8001002F098FE210002F04B
:102DE00023FB03F0E3F8642190FBF1F084490860D1
:102DF000D7F8009084480068DFF810A2DAF80010D5
:102E000003F092F90100604803F024F801004846FD
:102E100003F020F8DAF8001002F078FE210002F04A
:102E200003FB03F0C3F8642190FBF1F078490860DC
:102E3000D8F800107848D0F80080DFF8E0A1DAF880
:102E40000090280003F070F983464046494603F09D
:102E50006BF901004C4802F0FDFF0100584602F0FA
:102E6000F9FFDAF8001002F051FE210002F0DCFA5E
:102E700003F09CF8642190FBF1F0694908604E482A
:102E80000078012806D101224FF48061654802F0E4
:102E900067FA05E000224FF48061624802F060FAB0
:102EA0000A2001F025FD08E7F8B584B004000F20E2
:102EB0008DF804004FF4FA6001F01AFD5A4E4FF4F9
:102EC00020600090012301AA32213000FDF75EFA54
:102ED00007000F223221300003F074F9050038009A
:102EE000C0B2002800D000BF0F223221300003F012
:102EF00069F90500642001F0FBFCF5E700040040DF
:102F00000044004010B5040020684849884201D1BF
:102F100003F088F910BD000000001110C43100203A
:102F20000000F03F143100204C0000205000002031
:102F30006A020020C031002000000020000048C2CA
:102F400000005940CC310020C8310020D031002091
:102F50006802002000007A4448000020D43100209C
:102F60003333B33E2C3200207C14AE47E17A843FE9
:102F700054000020283200202A3200202F32002066
:102F8000F42F0020040000200000C842F43000208C
:102F900094B5000858000020D83100200800002017
:102FA00030EBFFFF5C000020600000206400002088
:102FB000680000206C0200202E320020A0B500081E
:102FC000B4310020B8310020BC310020000048425C
:102FD0003C000020280000201400002000A00C4726
:102FE00034000040400000202C0000201800002089
:102FF0003800004034000020200000200C00002099
:103000003C00004038000020240000201000002078
:103010004000004044000020300000201C00002040
:103020003404004000080140A02E002000080040A9
:103030007047704780B59948016851F001010160FF
:10304000006810F00100009000989548016851F068
:1030500080510160006810F08050009000980022BC
:103060000F217FF0010003F05AF98E49086830F013
:10307000E06050F00070086001BD18B585B0040034
:1030800001A8102101F042FC2068874988422DD117
:103090008248016851F008010160006810F00800E2
:1030A00000900098C020019012200290032004900C
:1030B00001A97E4801F07CFF7948016851F40011B4
:1030C0000160006810F400100090009800220521B3
:1030D0001F2003F024F91F2003F042F900220521EC
:1030E000202003F01CF9202003F03AF906B010BDAF
:1030F00081B001686E4A91420AD168490A6852F467
:1031000000620A60096811F40061009100991CE0F6
:103110000168B1F1804F0AD161490A6852F0010299
:103120000A60096811F00101009100990DE0016841
:10313000604A914209D15A490A6852F002020A6073
:10314000096811F002010091009901B0704718B5AB
:1031500085B004006846102101F0D8FB206854496E
:10316000884215D14D48016851F0040101600068A2
:1031700010F00400049004984FF440700090022076
:1031800001900220039069464B4801F011FF4DE089
:103190002068B0F1804F31D14048016851F00401FE
:1031A0000160016811F0040104910499016851F073
:1031B00008010160006810F00800049004980320E2
:1031C0000090022001900220039069463A4801F0E5
:1031D000EFFE4FF440600090022001900220039027
:1031E0006946324801F0E4FE2E49086830F4407028
:1031F00050F0E06050F40070086017E020682D493E
:10320000884213D12548016851F00401016000682B
:1032100010F00400049004984020009002200190D7
:10322000022003906946244801F0C2FE06B010BD9A
:1032300030B585B004006846102101F067FB2068B6
:103240001E49884228D11648016851F400310160B6
:10325000006810F40030049004981048016851F0A0
:1032600004010160006810F0040004900498042038
:10327000009002200190032003900F4D6946280022
:1032800001F096FE0820009000200190002002909E
:103290006946280001F08CFE05B030BD18100240D0
:1032A0001C1002400400014000540040000C01408A
:1032B000002C014000040040000801400044004090
:1032C0002DE9FC470400002C01D10120ACE220686C
:1032D000002809D0207810F00F0F05D140F26711B7
:1032E000DFF8C808FFF7A5FE2078C0077CD5606826
:1032F00000280DD06068B0F5803F09D06068B0F557
:10330000A02F05D040F26D11DFF8A008FFF791FE65
:10331000DFF85C08016811F00C01042907D001688E
:1033200011F00C0108290CD10068C00309D5DFF8A1
:103330003C080068800357D56068002854D10120FC
:1033400072E26068B0F5803F06D1DFF820080168BE
:1033500051F48031016026E0606800280AD1DFF86E
:103360000C08016831F480310160016831F480217A
:10337000016018E06068B0F5A02F0AD1DFF8EC0713
:10338000016851F480210160016851F480310160CD
:1033900009E0DFF8D807016831F480310160016885
:1033A00031F480210160606800280ED000F018FC24
:1033B0000500DFF8B8070068800315D400F010FCA2
:1033C000401B6528F5D303202EE200F009FC050020
:1033D000DFF898070068800306D500F001FC401B69
:1033E0006528F5D303201FE22078800765D5206982
:1033F000002808D02069012805D040F2A111DFF88B
:10340000AC07FFF716FE6069202805D34FF4D17191
:10341000DFF89807FFF70DFEDFF85407016811F099
:103420000C0F07D0016811F00C01082914D10068B5
:10343000C00311D4DFF834070168890704D5216976
:10344000012901D00120EFE1016831F0F801626942
:1034500051EAC201016030E0206900281AD0012041
:10346000DFF84C17086000F0BBFB0500DFF8FC0636
:103470000168890706D400F0B3FB401B0328F5D38D
:103480000320D1E1016831F0F801626951EAC2011B
:10349000016012E00020DFF81817086000F0A0FBC0
:1034A0000500DFF8C8060068800706D500F098FB25
:1034B000401B0328F5D30320B6E12078000738D558
:1034C000A069002808D0A069012805D04FF4F17147
:1034D000DFF8D806FFF7ADFDA069002816D001205F
:1034E000DFF8D016086000F07BFB0500DFF8B806B7
:1034F0000068800706D400F073FB401B0328F5D357
:10350000032091E1012000F035FB12E00020DFF8FC
:10351000A416086000F064FB0500DFF88C06006864
:10352000800706D500F05CFB401B0328F5D3032081
:103530007AE12078400740F19D800027E06800286C
:103540000BD0E068012808D0E068052805D040F2DB
:103550001121DFF85806FFF76CFDDFF85C86D8F81C
:103560000000C0000DD4D8F8000050F08050C8F81A
:103570000000D8F8000010F0805000900098012062
:103580000700DFF83896D9F80000C00513D4D9F841
:10359000000050F48070C9F8000000F021FB050025
:1035A000D9F80000C00506D400F01AFB401B6528BE
:1035B000F6D3032038E1E068012806D1DFF80006E1
:1035C000016851F00101016025E0E06800280AD19E
:1035D000DFF8EC050168490849000160016831F035
:1035E0000401016017E0E06805280AD1DFF8D00582
:1035F000016851F004010160016851F001010160AE
:1036000009E0DFF8BC05016849084900016001686C
:1036100031F004010160E068002810D000F0E0FA09
:103620000500DFF89C050068800719D400F0D8FA7F
:10363000401B41F289318842F3D30320F4E000F0CB
:10364000CFFA0500DFF878050068800708D500F09C
:10365000C7FA401B41F289318842F3D30320E3E0EB
:103660003800C0B2012805D1D8F8000030F08050F1
:10367000C8F80000E06900280BD0E069012808D0F4
:10368000E069022805D040F2AF21DFF82005FFF7FE
:10369000D0FCE069002800F0C680DFF8D4743868F8
:1036A00010F00C00082800F0AB80E069022840F020
:1036B0009480206A002809D0206AB0F5803F05D0A8
:1036C0004FF42E71DFF8E404FFF7B3FC606A0028C2
:1036D0003DD0606AB0F5802F39D0606AB0F5002F18
:1036E00035D0606AB0F5402F31D0606AB0F5801FE8
:1036F0002DD0606AB0F5A01F29D0606AB0F5C01F58
:1037000025D0606AB0F5E01F21D0606AB0F5001FD7
:103710001DD0606AB0F5101F19D0606AB0F5201F87
:1037200015D0606AB0F5301F11D0606AB0F5401F47
:103730000DD0606AB0F5501F09D0606AB0F5601F07
:1037400005D040F2B921DFF86404FFF772FCDFF81E
:1037500074A40020CAF8000000F042FA8046DFF8A6
:103760000C94D9F80000800107D500F039FAB0EBCD
:1037700008000328F3D3032056E0206AB0F5803F09
:1037800012D1A068002809D0A068B0F5003F05D08C
:1037900040F2CF21DFF81404FFF74BFC396831F415
:1037A0000031A06801433960396831F47411206A2E
:1037B0000143606A014339600120CAF8000000F04B
:1037C0000FFA0500D9F8000080012CD400F008FAA7
:1037D000401B0328F6D3032026E00020DFF8E41383
:1037E000086000F0FDF90500DFF880030068800143
:1037F00019D500F0F5F9401B0328F5D3032013E099
:10380000E069012801D101200EE03868060016F4B5
:103810008030216A884204D116F47010616A8842AF
:1038200001D0012000E00020BDE8F6872DE9F0413D
:1038300004000D00002C01D1012018E1207810F0C7
:103840000F0F05D14FF44E71DFF86003FFF7F1FB66
:10385000002D09D0012D07D0022D05D040F23931BD
:10386000DFF84803FFF7E5FBDFF85C73386810F01A
:103870000700A8420BD23868C008C000284338604F
:10388000386810F00700A84201D00120EFE020784E
:1038900080073AD52078400705D5DFF8D4020168C3
:1038A00051F4E06101602078000705D5DFF8C0021F
:1038B000016851F460510160A06800281DD0A06823
:1038C00080281AD0A068902817D0A068A02814D00B
:1038D000A068B02811D0A068C0280ED0A068D02859
:1038E0000BD0A068E02808D0A068F02805D040F2EE
:1038F0005F31DFF8B802FFF79CFBDFF874120A684B
:1039000032F0F002A06802430A602078C00747D571
:10391000606800280BD06068012808D06068022821
:1039200005D040F26631DFF88402FFF782FB606861
:10393000012806D1DFF834020068800312D4012088
:1039400095E06068022806D1DFF820020068800157
:1039500008D401208BE0DFF814020068800701D44E
:10396000012084E0DFF80882D8F800108908890077
:1039700060680143C8F8001000F032F90600D8F87A
:10398000000010F00C006168B0EB810F08D000F06F
:1039900027F9801B41F289318842F0D3032066E089
:1039A000386810F0070085420BD23868C008C000A4
:1039B00028433860386810F00700A84201D0012081
:1039C00055E0207840071FD5E068002815D0E06852
:1039D000B0F5806F11D0E068B0F5A06F0DD0E06851
:1039E000B0F5C06F09D0E068B0F5E06F05D04FF4D6
:1039F0006971DFF8B801FFF71CFB5D490A6832F412
:103A0000E062E06802430A60207800071FD5206961
:103A1000002814D02069B0F5806F10D02069B0F56F
:103A2000A06F0CD02069B0F5C06F08D02069B0F548
:103A3000E06F04D040F2AB315C48FFF7FAFA4C4833
:103A4000016831F46051226951EAC201016000F05D
:103A500010F85E49464A1268C2F30312895CC840F6
:103A60004F4908604F48006802F096FC0020BDE80E
:103A7000F081F0B585B001A85549102200F0A6FEEE
:103A800054480088ADF800000020002100220023E7
:103A90000025374E346814F00C07042F02D0082F8D
:103AA00002D01BE03D481AE001A8C4F38347C05D83
:103AB0000300E0030CD568463668C6F34046805DD7
:103AC0000100364800FB03F0B0FBF1F0020003E018
:103AD000414800FB03F00200100000E02F4805B051
:103AE000F0BD2F480068704780B5FFF7FAFF3B49EB
:103AF0001F4A1268C2F30222895CC84002BD80B529
:103B0000FFF7EFFF35491A4A1268C2F3C222895CF7
:103B1000C84002BD38B504000D00002C04D140F2AD
:103B200023512248FFF785FA002D04D140F2245199
:103B30001E48FFF77EFA0F2020600D48016811F043
:103B400003016160016811F0F001A160016811F4E6
:103B5000E061E1600068C00810F4E06020611A488C
:103B6000006810F00700286031BD0000001002401E
:103B70000410024081B00A490968C9084FF47A72FA
:103B8000B1FBF2F101FB00F1009100BF00994A1E68
:103B900000920029F9D101B07047000000127A00AC
:103BA000740000207000002024100240F8B20008C9
:103BB00000004242800442421C100240007000405B
:103BC00020100240600042420020024034B500084C
:103BD00024B500082A56000800093D00DCB500089D
:103BE00001480068704700BFE0310020704770470F
:103BF00070477047704770477047F0B402461068CE
:103C000095681318506803EB5004C0071DD54D4448
:103C10001BE013F8017B05F8017B491EF9D1A0B127
:103C2000B60813F8011B06F00306032E08BF13F8AD
:103C3000016B01EB06214942801C294405D011F893
:103C4000016B05F8016B401EF9D1A3420ED013F8A9
:103C5000016B16F0030104BF13F8011BC91C3009E6
:103C60000F28DAD113F8010B0F30D6E7F0BC02F1C0
:103C70000C00704738B50400002594F82100022894
:103C800004D00420A063012005004AE020680068F9
:103C900030F00E002168086020680068400840008D
:103CA000216808602068DFF88010884201D1012077
:103CB00028E02068DFF87410884201D1102021E04C
:103CC0002068DFF86C10884202D14FF4807019E050
:103CD0002068DFF86010884202D14FF4805011E074
:103CE0002068DFF85410884202D15FF4803009E088
:103CF0002068DFF84810884202D15FF4801001E0AC
:103D00005FF08070DFF838100860012084F821002F
:103D1000002084F82000606B002802D02000616B36
:103D200088472800C0B232BD080002401C00024093
:103D30003000024044000240580002406C00024043
:103D40000400024090F821007047704770477047A8
:103D500080B50748016851F010010160032002F0AE
:103D6000CAFA002002F018FBFFF764F9002002BD38
:103D70000020024010B50400002C01D101205FE0BA
:103D80002068DFF81C11884213D02068B0F1804F02
:103D90000FD02068DFF80C1188420AD02068DFF8C5
:103DA0000811884205D04FF48971DFF80001FFF750
:103DB00040F9A068002811D0A06810280ED0A06893
:103DC00020280BD0A068402808D0A068602805D023
:103DD00040F21311DFF8D400FFF72BF92069002817
:103DE0000DD02069B0F5807F09D02069B0F5007F43
:103DF00005D04FF48A71DFF8B400FFF71AF9A06913
:103E0000002808D0A069802805D040F21511DFF8FD
:103E10009C00FFF70EF994F83D00002805D1002022
:103E200084F83C00200000F0A3FC022084F83D0050
:103E3000211D206800F0DEFA012084F83D000020FA
:103E400010BD10B504002068DFF85410884213D06C
:103E50002068B0F1804F0FD02068DFF8481088420A
:103E60000AD02068DFF84010884205D040F2B9112E
:103E7000DFF80401FFF7DDF82068C06850F00100AA
:103E80002168C8602068816811F00701062905D003
:103E90002068006850F0010022681060002010BD0A
:103EA000002C014000040040000800404CB3000812
:103EB00010B50400002C01D101205BE02068DFF880
:103EC0006C11884212D02068B0F1804F0ED020686B
:103ED000DFF85C11884209D02068DFF85811884269
:103EE00004D040F29B412448FFF7A3F8A0680028C3
:103EF00010D0A06810280DD0A06820280AD0A06893
:103F0000402807D0A068602804D040F29C411A489D
:103F1000FFF78FF8206900280CD02069B0F5807F6A
:103F200008D02069B0F5007F04D040F29D411248CE
:103F3000FFF77FF8A069002807D0A069802804D087
:103F400040F29E410C48FFF774F894F83D000028B9
:103F500005D1002084F83C002000FFF7C9F80220BA
:103F600084F83D00211D206800F044FA012084F807
:103F70003D00002010BD00004CB3000870B50500E6
:103F80000C00DFF8A8602868B04207D1002C31D0BF
:103F9000042C2FD0082C2DD00C2C2BD02868B0F15D
:103FA000804F07D1002C25D0042C23D0082C21D001
:103FB0000C2C1FD02868DFF87810884207D1002C1D
:103FC00018D0042C16D0082C14D00C2C12D0286831
:103FD000DFF86010884207D1002C0BD0042C09D0E8
:103FE000082C07D00C2C05D040F21351DFF8480004
:103FF000FFF71FF801222100286800F07BFB2868EA
:10400000B04205D12868406C50F4004029684864EB
:104010002868816811F00701062905D02868006822
:1040200050F001002A681060002070BD002C014093
:1040300000040040000800404CB3000810B5040024
:104040002068006980071AD52068C068800716D5E7
:104050007FF00200216808610120207720688069D4
:1040600010F0030F03D0200002F0E0F905E020007B
:1040700002F0DDF9200002F0DBF900202077206853
:10408000006940071AD52068C068400716D57FF040
:10409000040021680861022020772068806910F4FC
:1040A000407F03D0200002F0C1F905E0200002F0BB
:1040B000BEF9200002F0BCF90020207720680069DA
:1040C00000071AD52068C068000716D57FF00800E1
:1040D00021680861042020772068C06910F0030F70
:1040E00003D0200002F0A2F905E0200002F09FF9C1
:1040F000200002F09DF90020207720680069C006AA
:104100001AD52068C068C00616D57FF01000216857
:104110000861082020772068C06910F4407F03D030
:10412000200002F083F905E0200002F080F9200071
:1041300002F07EF90020207720680069C0070AD5C8
:104140002068C068C00706D57FF0010021680861BB
:104150002000FEF7D7FE2068006900060AD5206817
:10416000C068000606D57FF0800021680861200045
:1041700002F05FF92068006940060AD52068C0682F
:10418000400606D57FF0400021680861200002F05B
:1041900051F92068006980060AD52068C068800649
:1041A00006D57FF0200021680861200002F043F965
:1041B00010BD70B505000E001400002C0DD0042CAD
:1041C0000BD0082C09D00C2C07D03C2C05D040F685
:1041D000EB51DFF81C02FEF72CFF3068602808D096
:1041E0003068702805D040F6EC51DFF80402FEF785
:1041F00020FFB068002808D0B068022805D040F63B
:10420000ED51DFF8EC01FEF714FF3069002808D00B
:104210003069042805D040F6EE51DFF8D401FEF7EE
:1042200008FF95F83C00012801D10220D9E00120C7
:1042300085F83C00022085F83D002000002807D0CA
:10424000042835D0082864D00C2800F09280C1E002
:104250002868DFF89011884213D02868B0F1804FA9
:104260000FD02868DFF8801188420AD02868DFF86C
:104270007C11884205D040F6FA51DFF87401FEF750
:10428000D8FE3100286800F0ECF82868806950F00A
:104290000800296888612868806930F0040029686E
:1042A000886128688169306901432868816191E0EB
:1042B0002868DFF83011884213D02868B0F1804FA9
:1042C0000FD02868DFF8201188420AD02868DFF86C
:1042D0001C11884205D040F60B61DFF81401FEF78F
:1042E000A8FE3100286800F013F92868806950F4AE
:1042F0000060296888612868806930F480602968D6
:10430000886128688069316950EA012029688861DC
:1043100060E02868DFF8CC10884213D02868B0F13C
:10432000804F0FD02868DFF8C01088420AD0286874
:10433000DFF8B810884205D040F61C61DFF8B00005
:10434000FEF777FE3100286800F03CF92868C06964
:1043500050F008002968C8612868C06930F004007E
:104360002968C8612868C169306901432868C1614A
:1043700030E02868DFF86C10884213D02868B0F16C
:10438000804F0FD02868DFF8601088420AD0286874
:10439000DFF85810884205D040F62D61DFF8500054
:1043A000FEF747FE3100286800F068F92868C06908
:1043B00050F400602968C8612868C06930F48060E2
:1043C0002968C8612868C069316950EA01202968F4
:1043D000C861FFE7012085F83D00002085F83C001A
:1043E000002070BD002C0140000400400008004087
:1043F0004CB3000810B40368DFF8F042A0420AD0C2
:10440000B0F1804F07D0DFF8E822904203D0DFF808
:104410005023904203D133F070034A681343A04203
:104420000AD0B0F1804F07D0DFF8C422904203D009
:10443000DFF82C23904203D133F44073CA6813434E
:1044400033F080034A69134303608A68C2620A68D2
:104450008262A04201D10A6902630122426110BC5A
:1044600070472DE9F84304000D00206A4008400021
:104470002062276AD4F80480A66936F07006B60870
:10448000B6002868064337F00207A8680743DFF83C
:104490005C924C4510D1E868002807D0E8680828ED
:1044A00004D041F201719048FEF7C3FD37F00807D0
:1044B000E868074337F004074C4521D1A869B0F5F7
:1044C000007F07D0A869002804D041F20E71864809
:1044D000FEF7AFFD6869B0F5807F07D068690028F6
:1044E00004D041F20F718048FEF7A3FD38F48078C4
:1044F00038F40078686950EA0808A86950EA0808A2
:10450000C4F80480A661686860632762BDE8F1832F
:104510002DE9F84304000D00206A30F010002062FD
:10452000D4F820806668A76937F4E04737F440770D
:10453000286857EA002738F02008A86858EA0018C9
:10454000DFF8A8914C4511D1E868002807D0E86849
:10455000082804D041F24C716348FEF76AFD38F038
:104560008008E86858EA001838F040084C4521D126
:10457000A869B0F5007F07D0A869002804D041F2EF
:104580005A715948FEF755FD6869B0F5807F07D02C
:104590006869002804D041F25B715348FEF749FD79
:1045A00036F4806636F40066686956EA8006A869C3
:1045B00056EA80066660A7616868A063C4F8208038
:1045C000BDE8F1832DE9F84304000D00206A30F4C2
:1045D00080702062266A6768D4F81C8038F0700802
:1045E0005FEA98085FEA8808286850EA080836F405
:1045F0000076A86856EA0026DFF8F0904C4511D105
:10460000E868002807D0E868082804D041F29771CC
:104610003548FEF70EFD36F40066E86856EA0026D7
:1046200036F480664C4521D1A869B0F5007F07D0EB
:10463000A869002804D041F2A4712B48FEF7F9FCC8
:104640006869B0F5807F07D06869002804D041F21E
:10465000A5712548FEF7EDFC37F4805737F4005775
:10466000686957EA0017A86957EA00176760C4F835
:104670001C806868E0632662BDE8F1832DE9F041A3
:1046800004000D00206A30F480502062D4F82080AD
:104690006668E76937F4E04737F44077286857EAF7
:1046A000002738F40058A86858EA0038DFF83C00C2
:1046B000844210D16869B0F5807F07D0686900280E
:1046C00004D041F2E3710848FEF7B3FC36F48046AB
:1046D000686956EA80166660E76168682064C4F815
:1046E0002080BDE8F08100004CB30008002C0140A0
:1046F0000004004070B505000C0016001A48854201
:104700000DD0B5F1804F0AD01848854207D0144823
:10471000854204D041F6C9111248FEF78AFC002CEC
:104720000CD0042C0AD0082C08D00C2C06D03C2C21
:1047300004D041F6CA110B48FEF77BFC012114F0AE
:104740001F0011FA00F0296A81432962296A14F0D6
:104750001F0216FA02F21143296270BD0000000028
:10476000000800404CB30008002C01400004004049
:10477000704730B4002513E050F8042BD30744BF32
:10478000A9F101039A18091F042942F8045BFAD21F
:1047900013468C0744BF15809B1CC90748BF1D707A
:1047A00050F8041B0029E7D130BC704762B38B0777
:1047B00008D0521E11F8013B00F8013B00F02480A4
:1047C0008B07F6D1830740F0208000BF103A07D353
:1047D00030B4B1E83810103AA0E83810F9D230BC43
:1047E000530724BFB1E80810A0E8081044BF51F8EF
:1047F000043B40F8043BD20724BF31F8022B20F8D9
:10480000022B44BF0B7803707047121F17D35B0055
:1048100009D151F8043B20F8023B1B0C121F20F871
:10482000023BF6D20BE051F8043B00F8013B1B0AB7
:1048300020F8023B1B0C121F00F8013BF3D238BFDB
:10484000121D521E24BF11F8013B00F8013BF8D89D
:104850007047B1F5807F02D34FF0FF307047017091
:10486000012070470078401E8041C043C00F704750
:10487000010000200A0012B2842A03D00A0012B2FA
:10488000D21C1018704780B501F038FF002002BD1F
:1048900038B584B004000D006069002813D0A06909
:1048A000002810D0B4F90800FFF7E2FFA1690291D7
:1048B0006169019100902B0022692168606801F014
:1048C000BBFD039011E0B4F90800FFF7D1FF03A985
:1048D000019100902B00226992B22168606801F07A
:1048E000F9FD012801D0002000E0039805B030BD9B
:1048F00038B505000120B5FBF0F4002C01D02000F4
:1049000000E0012001F0D3FE002032BD002202F0C1
:104910008FB90268531C0360117070472DE9F8438A
:10492000050000260024287810F0130F03D16C2115
:104930005E48FEF77EFB2878C00740F180806868FB
:1049400000280FD06868B0F5807F0BD06868B0F59C
:10495000007F07D06868B0F5407F03D072215348CC
:10496000FEF767FB0027DFF84881D8F80000C00099
:104970000DD4D8F8000050F08050C8F80000D8F8E6
:10498000000010F080500090009801200700DFF830
:104990002491D9F80000C00513D4D9F8000050F4D0
:1049A0008070C9F80000FFF71BF90600D9F8000075
:1049B000C00506D4FFF714F9801B6528F6D3032041
:1049C00071E0DFF8F490D9F8000010F440700400B2
:1049D000002C22D0686810F4407084421DD0D9F8B1
:1049E000000030F4407004003448012101600021CF
:1049F0000160C9F80040E0070FD5FFF7F1F80600A5
:104A0000D9F80000800708D4FFF7EAF8801B41F2CC
:104A100089318842F4D3032045E0D9F8001031F4FD
:104A2000407168680143C9F800103800C0B201281D
:104A300005D1D8F8000030F08050C8F80000287880
:104A4000800719D5A86800280FD0A868B0F5804F56
:104A50000BD0A868B0F5004F07D0A868B0F5404F5C
:104A600003D0B9211148FEF7E4FA15490A6832F477
:104A70004042A86802430A602878C00612D5E86858
:104A8000B0F5800F07D0E868002804D040F2151177
:104A90000648FEF7CEFA0A490A6832F48002E8684E
:104AA00002430A600020BDE8F2830000F0B0000875
:104AB0001C1002400070004020100240400442429E
:104AC0000410024038B504000D002068794988427E
:104AD00010D02068B0F1804F0CD020687649884211
:104AE00008D020687549884204D040F2646170485B
:104AF000FEF79FFA2868002819D02868102816D0D9
:104B00002868202813D02868302810D0286840282A
:104B10000DD0286850280AD02868602807D0286857
:104B2000702804D040F265616148FEF782FA686837
:104B3000802807D06868002804D040F266615C488D
:104B4000FEF777FA94F83C00012801D102201CE01E
:104B5000012084F83C00022084F83D002068416870
:104B60002068826831F070012868014332F08002C9
:104B7000686802432068416020688260012084F8F0
:104B80003D00002084F83C00002032BD70B50400D8
:104B90000D00002620684749884204D040F29E61FB
:104BA0004348FEF746FA2868B0F5006F07D028683A
:104BB000002804D040F29F613D48FEF73AFA686849
:104BC000B0F5806F07D06868002804D04FF4D46136
:104BD0003748FEF72EFAA868002810D0A868B0F56C
:104BE000807F0CD0A868B0F5007F08D0A868B0F529
:104BF000407F04D040F2A1612D48FEF71AFAE86820
:104C0000B0F5807F04D340F2A2612948FEF711FA83
:104C10002869B0F5805F07D02869002804D040F2E9
:104C2000A3612348FEF705FA6869002808D068697F
:104C3000B0F5005F04D040F2A4611D48FEF7F9F919
:104C4000E869B0F5804F07D0E869002804D040F249
:104C5000A5611748FEF7EDF994F83C00012801D151
:104C6000022024E0012084F83C00360A3602E8687D
:104C7000064336F44076A868064336F480666868D2
:104C8000064336F400662868064336F480562869E1
:104C9000064336F400566869064336F48046E869F0
:104CA000064320684664002084F83C00002070BD64
:104CB00048B10008002C01400004004000080040FA
:104CC00010B50400002C01D1012080E0A06900286B
:104CD0002AD02068DFF8F81088420FD02068DFF86B
:104CE000F41088420AD02068DFF8EC10884205D022
:104CF0004FF4A371DFF8E400FEF79BF9A0690028E8
:104D000027D0A069B0F5807F23D0A069B0F5007FDF
:104D10001FD0A069B0F5407F1BD040F24711DFF8EB
:104D2000BC00FEF786F914E02068DFF8A410884282
:104D30000FD02068DFF89C1088420AD02068DFF886
:104D40009810884205D040F24B11DFF89000FEF732
:104D500070F9A068002809D0A068B0F5805F05D080
:104D600040F24D11DFF87400FEF763F994F8390052
:104D7000002805D1002084F838002000FEF758FAFA
:104D8000242084F839002068C06830F4005021687D
:104D9000C860200000F024F82068006930F49040DA
:104DA000216808612068406930F02A002168486164
:104DB0002068C06850F400502168C8600020E0639B
:104DC000202084F83900202084F83A00002010BD0B
:104DD000003801400044004000480040A0B10008F5
:104DE000F8B5040060687049884204D340F6FD318C
:104DF0006C48FEF71EF9E068002808D0E068B0F5BE
:104E0000005F04D040F6FE316648FEF712F92069D3
:104E100000280CD02069B0F5806F08D02069B0F56B
:104E2000C06F04D040F6FF315E48FEF702F96069BA
:104E30004FF6F371084202D16069002804D14FF4A3
:104E400040615848FEF7F5F82068016931F4405197
:104E5000E068014320680161A56820690543606935
:104E600005432068C1685148014029432068C1605A
:104E70002068416931F44071A069014320684161B3
:104E800020684749884245D1FEF739FE642119223E
:104E900002FB00F36668B600B3FBF6F36426B3FBCF
:104EA000F6F302FB00F66768BF00B6FBF7F602FBFD
:104EB00000F7D4F804C05FEA8C0CB7FBFCF75FF096
:104EC000640CB7FBFCF701FB17663601323664272A
:104ED000B6FBF7F616F0F00616EB031602FB00F32E
:104EE0006768BF00B3FBF7F302FB00F26768BF001F
:104EF000B2FBF7F26427B2FBF7F201FB12310901B2
:104F000032316422B1FBF2F111F00F018E192168E8
:104F10008E6044E0FEF7E8FD6421192202FB00F3F5
:104F20006668B600B3FBF6F36426B3FBF6F302FB48
:104F300000F66768BF00B6FBF7F602FB00F7D4F88F
:104F400004C05FEA8C0CB7FBFCF75FF0640CB7FBA6
:104F5000FCF701FB1766360132366427B6FBF7F61D
:104F600016F0F00616EB031602FB00F36768BF00AD
:104F7000B3FBF7F302FB00F26768BF00B2FBF7F286
:104F80006427B2FBF7F201FB1231090132316422CE
:104F9000B1FBF2F111F00F018E1921688E60F1BDA5
:104FA00000380140A0B1000821AA4400F3E9FFFF46
:104FB0002DE9FE4F070088465FF000095FF0000A08
:104FC000DFF81CB45F4514D0DFF81804874210D016
:104FD000DFF8140487420CD0DFF81004874208D0B1
:104FE000DFF80C04874204D0BD21DFF80804FEF787
:104FF00020F8D8F80000000405D0D8F80000000C14
:105000000004002804D0BE21DFF8E803FEF711F801
:10501000D8F8040000283CD0D8F80400012838D083
:10502000D8F80400112834D0D8F80400022830D071
:10503000D8F8040012282CD0D8F80400DFF8B813F0
:10504000884226D0D8F80400DFF8B013884220D078
:10505000D8F80400DFF8A81388421AD0D8F8040062
:10506000DFF8A013884214D0D8F80400DFF89813B2
:1050700088420ED0D8F80400DFF89013884208D098
:10508000D8F80400032804D0BF21DFF86803FDF737
:10509000D0FFD8F8000030FA09F0002800F05E8157
:1050A000012010FA09F00090D8F800100098014093
:1050B0000C000098844240F04E815F4514D0DFF828
:1050C0002403874210D0DFF8200387420CD0DFF89A
:1050D0001C03874208D0DFF81803874204D0CD2193
:1050E000DFF81003FDF7A5FFD8F8040000287AD0F8
:1050F000012821D002284AD0032800F09A801128E4
:105100002FD0122859D0DFF8F01288426BD0DFF888
:10511000F412884267D0DFF8E412884263D0DFF8E7
:10512000E81288425FD0DFF8D81288425BD0DFF8FF
:10513000DC12884257D07FE0D8F80C0002280CD04F
:10514000D8F80C00012808D0D8F80C00032804D0A7
:10515000D521DFF8A002FDF76CFFD8F80C008246DD
:105160006AE0D8F80C0002280CD0D8F80C0001280E
:1051700008D0D8F80C00032804D0DC21DFF8740232
:10518000FDF757FFD8F80C00001D824654E0D8F810
:105190000C0002280CD0D8F80C00012808D0D8F850
:1051A0000C00032804D0E321DFF84802FDF741FF9B
:1051B000D8F80C00083082463EE0D8F80C000228EF
:1051C0000CD0D8F80C00012808D0D8F80C0003281F
:1051D00004D0EA21DFF81C02FDF72BFFD8F80C0001
:1051E0000C30824628E0D8F8080000280CD0D8F807
:1051F0000800012808D0D8F80800022804D0F721B8
:10520000DFF8F001FDF715FFD8F80800002802D1FB
:10521000042082460CE0D8F80800012804D10820B8
:1052200082460098386103E0082082460098786141
:1052300002E000208246FFE7B4F5807F01D20197AB
:1052400001E0381D0190B4F5807F02D25FEA890643
:1052500002E0B9F10806B6000F210198026811FAC0
:1052600006F082431AFA06F0024301980260D8F869
:105270000400C0006FD5DFF89801026852F0010207
:105280000260006810F0010002900298DFF88421AB
:105290004846800852F8203019F00300C0B2800060
:1052A00081408B435F4501D1002112E0DFF83401DA
:1052B000874201D101210CE0DFF82C01874201D1A6
:1052C000022106E0DFF82401874201D1032100E03A
:1052D00004211D0019F00300C0B2800081400D437D
:1052E0004846800842F82050D8F80400C00305D58D
:1052F000DFF8240101682143016004E0DFF81801B0
:105300000168A1430160D8F80400800305D5DFF8E7
:105310000C0101682143016003E040480168A1439A
:105320000160D8F80400C00204D53D48016821435B
:10533000016003E03A480168A1430160D8F8040025
:10534000800204D5374801682143016003E03548F5
:105350000168A143016019F101099AE6BDE8F78FE0
:1053600070B504000E001500300080B2002804D192
:105370004FF4EA711F48FDF75CFE2800C0B2002818
:1053800008D02800C0B2012804D040F2D511194835
:10539000FDF74FFE2800C0B2002803D0300080B2D5
:1053A000206103E0300080B20004206170BD38B598
:1053B00004000D00280080B2002804D14FF4F571DC
:1053C0000C48FDF736FEE068290089B2084203D098
:1053D000280080B2606102E0280080B2206131BD07
:1053E00000080140000C0140001001400014014081
:1053F0000018014098B000080000111000002110B2
:1054000000003110000012100000221000003210C5
:10541000181002400800014000040140040401404B
:10542000080401400C040140FF2212EAD05C1DBFB9
:1054300012EAD153944593422BE09C44D30780EA6F
:1054400001021A4043EA002043EA0121A1FB003097
:10545000C04238BF40007CF17F010BDBFE294ADAF5
:105460005B0842EAC15153EA006373F1004C51EB0F
:1054700010207047D1F1080CDCF120012FDB5B0814
:1054800010FA01F10B4320FA0CF073F10041504186
:10549000704794451CBF02EAD153934280EA01024F
:1054A00002F000421DD0400019D0490017D05BB96E
:1054B000634514D00902B1FA81F39940BCEB030CA7
:1054C000C00140F00040C1E70002B0FA80FC10FAD1
:1054D0000CF0B3EB0C0CC90141F00041B6E7100031
:1054E000704740000AD0490008D010F1807F94BF77
:1054F00011F1807F02E042F0FF407047D0437047D7
:10550000C0F3C75181B1FF2906D0C110400721F077
:10551000E04101F16051704741020CBF40F4E001ED
:105520006FF000410020704700F0004100020AD0F7
:10553000B0FA80FC00FA0CF001F16051A1EB0C51C3
:1055400001EBD0214005704770B44FF0004591EA5F
:10555000030F40F145816B40841A71EB030603D2BF
:10556000001BB141121973414FF4001C1CEB410F99
:1055700034BF7CEB430442E00C0DA4EB1356352EF4
:105580004FDC45EAC323DB0A45EAC121C912B6F163
:1055900020050DDD63FA05F6EB4086EA03051242AD
:1055A00018BF45F00105C01851F100010CD213E0FD
:1055B00062FA06F5F2405540F3415A40B340F340D9
:1055C0005A408018594107D349085FEA30005FEA22
:1055D000350528BF45F0010501F58011420875F138
:1055E000004250F1000041EB04514E0016F5001F3F
:1055F00070BC38BF70470020090D090570471CEBCF
:10560000410F10D252EA43060BD0BCEB410F05D834
:105610000C0DAB43661E342EB6DD02E0AB438018A2
:10562000594170BC704770BC70470102B0B581EA47
:10563000030C0CF0004C40F2FF7515EA11541DBF2D
:1056400015EA1357AC42AF4239E0E41923EA455357
:1056500043F48013C90241F0004141EA505EC702A1
:105660001100A7FB020200284FF00000EEFB012012
:105670004FF00001E3FB072118BF42F00102401880
:1056800000214941E3FB0E01A4F580640F0302D21F
:1056900052004041494154F101046CDD470872F168
:1056A000004250F1000051EB0451A1F580115CBFA4
:1056B00041EA0C01B0BD4CEA05510020B0BD05EA3D
:1056C0001357AC4214BFAF4241E050EA410E1CBF39
:1056D00052EA430E02E061460020B0BD24423C4441
:1056E0001BD15FEA070EF6D0090302BF0146002076
:1056F000AEF1140EB1FA81F7AEEB070401FA07FE22
:105700000C37C7F1200100FA07F7C8404EEA000E37
:1057100023EA455343F48013A2E733F00043B3FA7E
:1057200083F704BFB2FA82FE77440B3FE41BB7F164
:10573000200E2FBF02FA0EF3BB40C7F1200E22FA53
:105740000EFE38BF43EA0E03BA40641C82E750EAFB
:10575000410E14BF52EA430E6FF000014FF40017E0
:1057600017EB430F8ABF194617EB410FB5E74CEA19
:1057700005510020B0BDD4F10104B4F120070FDAC7
:10578000C4F12007520828BF42F0010210FA07F5C1
:1057900001FA07F7E1BF2A43E0403843E1400FE058
:1057A000352C98DCC7F1200452EA400220FA07F2B7
:1057B00018BF42F0010231FA07F0A1400A4300216C
:1057C00072F1004250F1000051EB0C01B0BD00003D
:1057D00070B44FF0004591EA030F7FF5BDAE6B400A
:1057E000841A71EB030604D26E40001BB1411219FA
:1057F00073414FF4001C1CEB410F34BF7CEB43069C
:1058000083E00C0DA4EB1356362E00F37C80012EA2
:1058100045EAC32341DC43EA525312BFD20292024B
:105820005B08240545EAC12141EA5051D2EBC02072
:10583000994125D407D1B0FA80F610FA06F162D06A
:105840000020203608E0B1FA81F6B140C6F120020E
:1058500020FA02F21143B0404FEAF474B4EB46541C
:1058600034F001064FEA74040AD8D6F50016760D16
:1058700004F00044F04061FA06F25040F140484024
:10588000C00A40EA415021F0004128BF5FEA5005BC
:1058900050F1000044EBD12135E0DB0A45EAC1219B
:1058A000C90AB6F120050EDD42EA0242120CC5F12A
:1058B000200603FA06F6EB4042EA06056D429841DF
:1058C00061F100010DE062FA06F5F240554063FA1D
:1058D00006FC82EA0C02F3405A406D42904161EBB3
:1058E000030111F4801F05D1641E620502D06D0012
:1058F0004041494121F48011430875F1004350F1C2
:10590000000041EB045170BC70471CEB410F15D2F5
:1059100023F0004352EA43060BD04FEA4C0CBCEB99
:10592000410F04D80C0D661E342EB7DDEBE7801A4C
:10593000994150EA410608BF0021E4E708BF1CEB8B
:10594000430F28BF6FF00001DDE7000001F00042C7
:105950008B1AA3F16051B1F5801F0ADBB1F17F6FA3
:105960001FD242EAC102C10071F1004142EB507006
:1059700070470B15C3F10903212B10D2890241EAAC
:10598000905180020128494141F0004121FA03F081
:10599000C3F12003994071F100415041704710005C
:1059A00070476FF0000013EB103F5CBF000E42EA3F
:1059B000C05070474FF0807C1CEB400F94BF1CEB35
:1059C000410F05E040EA010C1CEB0C0F01D28842AC
:1059D000704718BF8142704710B5114C0022114921
:1059E000200001F03EF9002801D0FDF721FB0E490F
:1059F000200001F052F9002801D0FDF719FB0B49F6
:105A0000200001F087FC002801D0FDF711FB2000E9
:105A100001F04EF9002801D0FDF70AFB10BD00BFD0
:105A200070220020980100208400002088010020BE
:105A30000021016000214160002181600021C160DE
:105A4000002101610021C1610021416100218161CA
:105A500070472DE9F24F82B004001500029829002A
:105A600000F062FB06003000E16900F05DFB07001A
:105A700020683100FFF7D8FC8046A0683900FFF7A6
:105A8000D3FC81464046494600F040F882465FF02C
:105A90007E50616800F048FBA169FFF7C5FC8346B2
:105AA00061686069FFF7C0FC594600F02FF8834633
:105AB0002269E168009101925046594600F026F8AB
:105AC000019A009901F084FC02003000002100F0EE
:105AD0006BFB01D100208346E661C4F818B0626117
